{
  "contractName": "CreationManager",
  "abi": [
    {
      "inputs": [
        {
          "internalType": "address",
          "name": "_podTokenImplementationAddress",
          "type": "address"
        },
        {
          "internalType": "address",
          "name": "_copyrightTokenImplementationAddress",
          "type": "address"
        },
        {
          "internalType": "address",
          "name": "_erc721WithRoyaltyAddress",
          "type": "address"
        },
        {
          "internalType": "address",
          "name": "_podWithdrawManagerAddress",
          "type": "address"
        }
      ],
      "stateMutability": "nonpayable",
      "type": "constructor"
    },
    {
      "inputs": [],
      "name": "DEFAULT_ADMIN_ROLE",
      "outputs": [
        {
          "internalType": "bytes32",
          "name": "",
          "type": "bytes32"
        }
      ],
      "stateMutability": "view",
      "type": "function",
      "constant": true
    },
    {
      "inputs": [],
      "name": "WITHDRAW_MANAGER_ROLE",
      "outputs": [
        {
          "internalType": "bytes32",
          "name": "",
          "type": "bytes32"
        }
      ],
      "stateMutability": "view",
      "type": "function",
      "constant": true
    },
    {
      "inputs": [],
      "name": "setPodManagerAddress",
      "outputs": [],
      "stateMutability": "nonpayable",
      "type": "function"
    },
    {
      "inputs": [
        {
          "internalType": "string",
          "name": "name",
          "type": "string"
        },
        {
          "internalType": "string",
          "name": "symbol",
          "type": "string"
        }
      ],
      "name": "createPodToken",
      "outputs": [
        {
          "internalType": "address",
          "name": "",
          "type": "address"
        }
      ],
      "stateMutability": "nonpayable",
      "type": "function"
    },
    {
      "inputs": [
        {
          "internalType": "string",
          "name": "name",
          "type": "string"
        },
        {
          "internalType": "string",
          "name": "symbol",
          "type": "string"
        },
        {
          "internalType": "address[]",
          "name": "owners",
          "type": "address[]"
        },
        {
          "internalType": "uint256[]",
          "name": "copyrightAllocation",
          "type": "uint256[]"
        },
        {
          "internalType": "uint256",
          "name": "copyrightTokenSupply",
          "type": "uint256"
        }
      ],
      "name": "createCopyrightToken",
      "outputs": [
        {
          "internalType": "address",
          "name": "",
          "type": "address"
        }
      ],
      "stateMutability": "nonpayable",
      "type": "function"
    },
    {
      "inputs": [
        {
          "internalType": "string",
          "name": "name",
          "type": "string"
        },
        {
          "internalType": "string",
          "name": "symbol",
          "type": "string"
        },
        {
          "internalType": "address",
          "name": "podAddress",
          "type": "address"
        },
        {
          "internalType": "uint256",
          "name": "royaltyPercentage",
          "type": "uint256"
        }
      ],
      "name": "createErc721WithRoyalty",
      "outputs": [
        {
          "internalType": "address",
          "name": "",
          "type": "address"
        }
      ],
      "stateMutability": "nonpayable",
      "type": "function"
    }
  ],
  "bytecode": "0x6101006040523480156200001257600080fd5b50604051620014da380380620014da833981810160405281019062000038919062000135565b8373ffffffffffffffffffffffffffffffffffffffff1660a08173ffffffffffffffffffffffffffffffffffffffff1660601b815250508273ffffffffffffffffffffffffffffffffffffffff1660c08173ffffffffffffffffffffffffffffffffffffffff1660601b815250508173ffffffffffffffffffffffffffffffffffffffff1660e08173ffffffffffffffffffffffffffffffffffffffff1660601b815250508073ffffffffffffffffffffffffffffffffffffffff1660808173ffffffffffffffffffffffffffffffffffffffff1660601b8152505050505050620001fa565b6000815190506200012f81620001e0565b92915050565b60008060008060808587031215620001525762000151620001db565b5b600062000162878288016200011e565b945050602062000175878288016200011e565b935050604062000188878288016200011e565b92505060606200019b878288016200011e565b91505092959194509250565b6000620001b482620001bb565b9050919050565b600073ffffffffffffffffffffffffffffffffffffffff82169050919050565b600080fd5b620001eb81620001a7565b8114620001f757600080fd5b50565b60805160601c60a05160601c60c05160601c60e05160601c611293620002476000396000610627015260006102a50152600061079301526000818161037d015261086b01526112936000f3fe608060405234801561001057600080fd5b50600436106100615760003560e01c80622181b414610066578063258d79e91461007057806353fe2d91146100a0578063a217fddf146100d0578063e1b08619146100ee578063fd4eb0d71461010c575b600080fd5b61006e61013c565b005b61008a60048036038101906100859190610c3b565b61020d565b6040516100979190610dfa565b60405180910390f35b6100ba60048036038101906100b59190610b94565b61058f565b6040516100c79190610dfa565b60405180910390f35b6100d86106d0565b6040516100e59190610e3e565b60405180910390f35b6100f66106d7565b6040516101039190610e3e565b60405180910390f35b61012660048036038101906101219190610b13565b6106fb565b6040516101339190610dfa565b60405180910390f35b600073ffffffffffffffffffffffffffffffffffffffff1660008054906101000a900473ffffffffffffffffffffffffffffffffffffffff1673ffffffffffffffffffffffffffffffffffffffff16146101cb576040517f08c379a00000000000000000000000000000000000000000000000000000000081526004016101c290610f42565b60405180910390fd5b336000806101000a81548173ffffffffffffffffffffffffffffffffffffffff021916908373ffffffffffffffffffffffffffffffffffffffff160217905550565b60008060009054906101000a900473ffffffffffffffffffffffffffffffffffffffff1673ffffffffffffffffffffffffffffffffffffffff163373ffffffffffffffffffffffffffffffffffffffff161461029e576040517f08c379a000000000000000000000000000000000000000000000000000000000815260040161029590610f22565b60405180910390fd5b60006102c97f00000000000000000000000000000000000000000000000000000000000000006108e5565b90508073ffffffffffffffffffffffffffffffffffffffff1663077f224a8c8c8c8c336040518663ffffffff1660e01b815260040161030c959493929190610e82565b600060405180830381600087803b15801561032657600080fd5b505af115801561033a573d6000803e3d6000fd5b505050508073ffffffffffffffffffffffffffffffffffffffff16632f2ff15d7fbe4b8ff2378fafab5b779323935cef89cecb6bffd2e15c86526a218902195a357f00000000000000000000000000000000000000000000000000000000000000006040518363ffffffff1660e01b81526004016103b9929190610e59565b600060405180830381600087803b1580156103d357600080fd5b505af11580156103e7573d6000803e3d6000fd5b5050505060005b878790508110156104d1578173ffffffffffffffffffffffffffffffffffffffff166340c10f198989848181106104285761042761115b565b5b905060200201602081019061043d9190610ae6565b6064878a8a878181106104535761045261115b565b5b90506020020135610464919061101a565b61046e9190610fe9565b6040518363ffffffff1660e01b815260040161048b929190610e15565b600060405180830381600087803b1580156104a557600080fd5b505af11580156104b9573d6000803e3d6000fd5b505050506001816104ca9190610f93565b90506103ee565b508073ffffffffffffffffffffffffffffffffffffffff166340c10f1933606486898960018c8c90506105049190611074565b8181106105145761051361115b565b5b90506020020135610525919061101a565b61052f9190610fe9565b6040518363ffffffff1660e01b815260040161054c929190610e15565b600060405180830381600087803b15801561056657600080fd5b505af115801561057a573d6000803e3d6000fd5b50505050809150509998505050505050505050565b60008060009054906101000a900473ffffffffffffffffffffffffffffffffffffffff1673ffffffffffffffffffffffffffffffffffffffff163373ffffffffffffffffffffffffffffffffffffffff1614610620576040517f08c379a000000000000000000000000000000000000000000000000000000000815260040161061790610f22565b60405180910390fd5b600061064b7f00000000000000000000000000000000000000000000000000000000000000006108e5565b90508073ffffffffffffffffffffffffffffffffffffffff1663f542033f8989898989896040518763ffffffff1660e01b815260040161069096959493929190610ecb565b600060405180830381600087803b1580156106aa57600080fd5b505af11580156106be573d6000803e3d6000fd5b50505050809150509695505050505050565b6000801b81565b7fbe4b8ff2378fafab5b779323935cef89cecb6bffd2e15c86526a218902195a3581565b60008060009054906101000a900473ffffffffffffffffffffffffffffffffffffffff1673ffffffffffffffffffffffffffffffffffffffff163373ffffffffffffffffffffffffffffffffffffffff161461078c576040517f08c379a000000000000000000000000000000000000000000000000000000000815260040161078390610f22565b60405180910390fd5b60006107b77f00000000000000000000000000000000000000000000000000000000000000006108e5565b90508073ffffffffffffffffffffffffffffffffffffffff1663077f224a87878787336040518663ffffffff1660e01b81526004016107fa959493929190610e82565b600060405180830381600087803b15801561081457600080fd5b505af1158015610828573d6000803e3d6000fd5b505050508073ffffffffffffffffffffffffffffffffffffffff16632f2ff15d7fbe4b8ff2378fafab5b779323935cef89cecb6bffd2e15c86526a218902195a357f00000000000000000000000000000000000000000000000000000000000000006040518363ffffffff1660e01b81526004016108a7929190610e59565b600060405180830381600087803b1580156108c157600080fd5b505af11580156108d5573d6000803e3d6000fd5b5050505080915050949350505050565b60006040517f3d602d80600a3d3981f3363d3d373d3d3d363d7300000000000000000000000081528260601b60148201527f5af43d82803e903d91602b57fd5bf3000000000000000000000000000000000060288201526037816000f0915050600073ffffffffffffffffffffffffffffffffffffffff168173ffffffffffffffffffffffffffffffffffffffff1614156109b5576040517f08c379a00000000000000000000000000000000000000000000000000000000081526004016109ac90610f62565b60405180910390fd5b919050565b6000813590506109c98161122f565b92915050565b60008083601f8401126109e5576109e461118f565b5b8235905067ffffffffffffffff811115610a0257610a0161118a565b5b602083019150836020820283011115610a1e57610a1d611194565b5b9250929050565b60008083601f840112610a3b57610a3a61118f565b5b8235905067ffffffffffffffff811115610a5857610a5761118a565b5b602083019150836020820283011115610a7457610a73611194565b5b9250929050565b60008083601f840112610a9157610a9061118f565b5b8235905067ffffffffffffffff811115610aae57610aad61118a565b5b602083019150836001820283011115610aca57610ac9611194565b5b9250929050565b600081359050610ae081611246565b92915050565b600060208284031215610afc57610afb61119e565b5b6000610b0a848285016109ba565b91505092915050565b60008060008060408587031215610b2d57610b2c61119e565b5b600085013567ffffffffffffffff811115610b4b57610b4a611199565b5b610b5787828801610a7b565b9450945050602085013567ffffffffffffffff811115610b7a57610b79611199565b5b610b8687828801610a7b565b925092505092959194509250565b60008060008060008060808789031215610bb157610bb061119e565b5b600087013567ffffffffffffffff811115610bcf57610bce611199565b5b610bdb89828a01610a7b565b9650965050602087013567ffffffffffffffff811115610bfe57610bfd611199565b5b610c0a89828a01610a7b565b94509450506040610c1d89828a016109ba565b9250506060610c2e89828a01610ad1565b9150509295509295509295565b600080600080600080600080600060a08a8c031215610c5d57610c5c61119e565b5b60008a013567ffffffffffffffff811115610c7b57610c7a611199565b5b610c878c828d01610a7b565b995099505060208a013567ffffffffffffffff811115610caa57610ca9611199565b5b610cb68c828d01610a7b565b975097505060408a013567ffffffffffffffff811115610cd957610cd8611199565b5b610ce58c828d016109cf565b955095505060608a013567ffffffffffffffff811115610d0857610d07611199565b5b610d148c828d01610a25565b93509350506080610d278c828d01610ad1565b9150509295985092959850929598565b610d40816110a8565b82525050565b610d4f816110ba565b82525050565b6000610d618385610f82565b9350610d6e8385846110ee565b610d77836111a3565b840190509392505050565b6000610d8f601083610f82565b9150610d9a826111b4565b602082019050919050565b6000610db2601f83610f82565b9150610dbd826111dd565b602082019050919050565b6000610dd5601683610f82565b9150610de082611206565b602082019050919050565b610df4816110e4565b82525050565b6000602082019050610e0f6000830184610d37565b92915050565b6000604082019050610e2a6000830185610d37565b610e376020830184610deb565b9392505050565b6000602082019050610e536000830184610d46565b92915050565b6000604082019050610e6e6000830185610d46565b610e7b6020830184610d37565b9392505050565b60006060820190508181036000830152610e9d818789610d55565b90508181036020830152610eb2818587610d55565b9050610ec16040830184610d37565b9695505050505050565b60006080820190508181036000830152610ee681888a610d55565b90508181036020830152610efb818688610d55565b9050610f0a6040830185610d37565b610f176060830184610deb565b979650505050505050565b60006020820190508181036000830152610f3b81610d82565b9050919050565b60006020820190508181036000830152610f5b81610da5565b9050919050565b60006020820190508181036000830152610f7b81610dc8565b9050919050565b600082825260208201905092915050565b6000610f9e826110e4565b9150610fa9836110e4565b9250827fffffffffffffffffffffffffffffffffffffffffffffffffffffffffffffffff03821115610fde57610fdd6110fd565b5b828201905092915050565b6000610ff4826110e4565b9150610fff836110e4565b92508261100f5761100e61112c565b5b828204905092915050565b6000611025826110e4565b9150611030836110e4565b9250817fffffffffffffffffffffffffffffffffffffffffffffffffffffffffffffffff0483118215151615611069576110686110fd565b5b828202905092915050565b600061107f826110e4565b915061108a836110e4565b92508282101561109d5761109c6110fd565b5b828203905092915050565b60006110b3826110c4565b9050919050565b6000819050919050565b600073ffffffffffffffffffffffffffffffffffffffff82169050919050565b6000819050919050565b82818337600083830152505050565b7f4e487b7100000000000000000000000000000000000000000000000000000000600052601160045260246000fd5b7f4e487b7100000000000000000000000000000000000000000000000000000000600052601260045260246000fd5b7f4e487b7100000000000000000000000000000000000000000000000000000000600052603260045260246000fd5b600080fd5b600080fd5b600080fd5b600080fd5b600080fd5b6000601f19601f8301169050919050565b7f4f6e6c7920706f64206d616e6167657200000000000000000000000000000000600082015250565b7f506f64206d616e61676572206164647265737320616c72656164792073657400600082015250565b7f455243313136373a20637265617465206661696c656400000000000000000000600082015250565b611238816110a8565b811461124357600080fd5b50565b61124f816110e4565b811461125a57600080fd5b5056fea2646970667358221220df32a7f9cb7d02de4e21eaf63356772463591db0853cbd19a373c52aec2b480764736f6c63430008060033",
  "immutableReferences": {
    "3117": [
      {
        "length": 32,
        "start": 893
      },
      {
        "length": 32,
        "start": 2155
      }
    ],
    "3119": [
      {
        "length": 32,
        "start": 1939
      }
    ],
    "3121": [
      {
        "length": 32,
        "start": 677
      }
    ],
    "3123": [
      {
        "length": 32,
        "start": 1575
      }
    ]
  },
  "source": "// SPDX-License-Identifier: MIT\npragma solidity ^0.8.0;\n\nimport \"@openzeppelin/contracts/proxy/Clones.sol\";\nimport \"./implementations/PodToken.sol\";\nimport \"./implementations/CopyrightToken.sol\";\nimport \"./implementations/ERC721WithRoyalty.sol\";\n\ncontract CreationManager {\n    bytes32 public constant WITHDRAW_MANAGER_ROLE = keccak256(\"WITHDRAW_MANAGER_ROLE\");\n    bytes32 public constant DEFAULT_ADMIN_ROLE = 0x00;\n    address private immutable podWithdrawManagerAddress;\n\n    address private immutable podTokenImplementationAddress;\n    address private immutable copyrightTokenImplementationAddress;\n    address private immutable erc721WithRoyaltyAddress;\n    address private podManagerAddress;\n\n    modifier onlyPodManager() {\n        require(msg.sender == podManagerAddress, \"Only pod manager\");\n        _;\n    }\n\n    /**\n     * @notice assign the default roles\n     * @param _podTokenImplementationAddress the implementation of the token to clone\n     */\n    constructor(\n        address _podTokenImplementationAddress,\n        address _copyrightTokenImplementationAddress,\n        address _erc721WithRoyaltyAddress,\n        address _podWithdrawManagerAddress\n    ) {\n        podTokenImplementationAddress = _podTokenImplementationAddress;\n        copyrightTokenImplementationAddress = _copyrightTokenImplementationAddress;\n        erc721WithRoyaltyAddress = _erc721WithRoyaltyAddress;\n        podWithdrawManagerAddress = _podWithdrawManagerAddress;\n    }\n\n    function setPodManagerAddress() external {\n        require(podManagerAddress == address(0), \"Pod manager address already set\");\n        podManagerAddress = msg.sender;\n    }\n\n    function createPodToken(string calldata name, string calldata symbol)\n        external\n        onlyPodManager\n        returns (address)\n    {\n        address podAddress = Clones.clone(podTokenImplementationAddress);\n        PodToken(podAddress).initialize(name, symbol, msg.sender);\n        PodToken(podAddress).grantRole(WITHDRAW_MANAGER_ROLE, podWithdrawManagerAddress);\n        return (podAddress);\n    }\n\n    function createCopyrightToken(\n        string calldata name,\n        string calldata symbol,\n        address[] calldata owners,\n        uint256[] calldata copyrightAllocation,\n        uint256 copyrightTokenSupply\n    ) external onlyPodManager returns (address) {\n        address copyrightToken = Clones.clone(copyrightTokenImplementationAddress);\n        CopyrightToken(copyrightToken).initialize(name, symbol, msg.sender);\n        CopyrightToken(copyrightToken).grantRole(WITHDRAW_MANAGER_ROLE, podWithdrawManagerAddress);\n        for (uint256 i = 0; i < owners.length; i += 1) {\n            CopyrightToken(copyrightToken).mint(\n                owners[i],\n                (copyrightAllocation[i] * copyrightTokenSupply) / 100\n            );\n        }\n        CopyrightToken(copyrightToken).mint(\n            msg.sender,\n            (copyrightAllocation[copyrightAllocation.length - 1] * copyrightTokenSupply) / 100\n        );\n        return (copyrightToken);\n    }\n\n    function createErc721WithRoyalty(\n        string calldata name,\n        string calldata symbol,\n        address podAddress,\n        uint256 royaltyPercentage\n    ) external onlyPodManager returns (address) {\n        address erc721WithRoyalty = Clones.clone(erc721WithRoyaltyAddress);\n        ERC721WithRoyalty(erc721WithRoyalty).initialize(name, symbol, podAddress, royaltyPercentage);\n        return (erc721WithRoyalty);\n    }\n}\n",
  "sourcePath": "/Users/angelsatorresalmenara/Desktop/privi-pods-smart-contract/contracts/CreationManager.sol",
  "compiler": {
    "name": "solc",
    "version": "0.8.6+commit.11564f7e.Emscripten.clang"
  },
  "schemaVersion": "3.4.3",
  "updatedAt": "2021-10-08T21:06:54.809Z",
  "networkType": "ethereum",
  "devdoc": {
    "kind": "dev",
    "methods": {
      "constructor": {
        "params": {
          "_podTokenImplementationAddress": "the implementation of the token to clone"
        }
      }
    },
    "version": 1
  },
  "userdoc": {
    "kind": "user",
    "methods": {
      "constructor": {
        "notice": "assign the default roles"
      }
    },
    "version": 1
  }
}