{
  "contractName": "DREEMlaunchpadVesting",
  "abi": [
    {
      "inputs": [
        {
          "internalType": "contract IERC20",
          "name": "_token",
          "type": "address"
        }
      ],
      "stateMutability": "nonpayable",
      "type": "constructor"
    },
    {
      "anonymous": false,
      "inputs": [
        {
          "indexed": true,
          "internalType": "address",
          "name": "previousOwner",
          "type": "address"
        },
        {
          "indexed": true,
          "internalType": "address",
          "name": "newOwner",
          "type": "address"
        }
      ],
      "name": "OwnershipTransferred",
      "type": "event"
    },
    {
      "anonymous": false,
      "inputs": [
        {
          "indexed": false,
          "internalType": "address",
          "name": "beneficiary",
          "type": "address"
        },
        {
          "indexed": false,
          "internalType": "uint256",
          "name": "duration",
          "type": "uint256"
        },
        {
          "indexed": false,
          "internalType": "uint256",
          "name": "periodicity",
          "type": "uint256"
        },
        {
          "indexed": false,
          "internalType": "uint256",
          "name": "amount",
          "type": "uint256"
        },
        {
          "indexed": false,
          "internalType": "uint256",
          "name": "cliffTime",
          "type": "uint256"
        },
        {
          "indexed": false,
          "internalType": "uint256",
          "name": "lockId",
          "type": "uint256"
        },
        {
          "indexed": false,
          "internalType": "uint256",
          "name": "amountLocked",
          "type": "uint256"
        }
      ],
      "name": "TokenLocked",
      "type": "event"
    },
    {
      "anonymous": false,
      "inputs": [
        {
          "indexed": false,
          "internalType": "address",
          "name": "beneficiary",
          "type": "address"
        },
        {
          "indexed": false,
          "internalType": "uint256",
          "name": "amount",
          "type": "uint256"
        },
        {
          "indexed": false,
          "internalType": "uint256",
          "name": "lockId",
          "type": "uint256"
        }
      ],
      "name": "TokenReleased",
      "type": "event"
    },
    {
      "inputs": [],
      "name": "FAdminRenounceOwnership",
      "outputs": [],
      "stateMutability": "nonpayable",
      "type": "function"
    },
    {
      "inputs": [
        {
          "internalType": "address",
          "name": "newOwner",
          "type": "address"
        }
      ],
      "name": "GAdminTransferOwnership",
      "outputs": [],
      "stateMutability": "nonpayable",
      "type": "function"
    },
    {
      "inputs": [],
      "name": "lockCount",
      "outputs": [
        {
          "internalType": "uint256",
          "name": "",
          "type": "uint256"
        }
      ],
      "stateMutability": "view",
      "type": "function",
      "constant": true
    },
    {
      "inputs": [
        {
          "internalType": "address",
          "name": "",
          "type": "address"
        },
        {
          "internalType": "uint256",
          "name": "",
          "type": "uint256"
        }
      ],
      "name": "lockIds",
      "outputs": [
        {
          "internalType": "uint256",
          "name": "",
          "type": "uint256"
        }
      ],
      "stateMutability": "view",
      "type": "function",
      "constant": true
    },
    {
      "inputs": [
        {
          "internalType": "uint256",
          "name": "",
          "type": "uint256"
        }
      ],
      "name": "lockInfos",
      "outputs": [
        {
          "internalType": "address",
          "name": "beneficiary",
          "type": "address"
        },
        {
          "internalType": "uint256",
          "name": "duration",
          "type": "uint256"
        },
        {
          "internalType": "uint256",
          "name": "periodicity",
          "type": "uint256"
        },
        {
          "internalType": "uint256",
          "name": "amount",
          "type": "uint256"
        },
        {
          "internalType": "uint256",
          "name": "cliffTime",
          "type": "uint256"
        },
        {
          "internalType": "uint256",
          "name": "released",
          "type": "uint256"
        }
      ],
      "stateMutability": "view",
      "type": "function",
      "constant": true
    },
    {
      "inputs": [],
      "name": "owner",
      "outputs": [
        {
          "internalType": "address",
          "name": "",
          "type": "address"
        }
      ],
      "stateMutability": "view",
      "type": "function",
      "constant": true
    },
    {
      "inputs": [],
      "name": "token",
      "outputs": [
        {
          "internalType": "contract IERC20",
          "name": "",
          "type": "address"
        }
      ],
      "stateMutability": "view",
      "type": "function",
      "constant": true
    },
    {
      "inputs": [
        {
          "internalType": "uint256",
          "name": "lockId",
          "type": "uint256"
        }
      ],
      "name": "getAvailableAmount",
      "outputs": [
        {
          "internalType": "uint256",
          "name": "",
          "type": "uint256"
        }
      ],
      "stateMutability": "view",
      "type": "function",
      "constant": true
    },
    {
      "inputs": [
        {
          "internalType": "address",
          "name": "beneficiary",
          "type": "address"
        }
      ],
      "name": "getLockIds",
      "outputs": [
        {
          "internalType": "uint256[]",
          "name": "",
          "type": "uint256[]"
        }
      ],
      "stateMutability": "view",
      "type": "function",
      "constant": true
    },
    {
      "inputs": [
        {
          "internalType": "address",
          "name": "beneficiary",
          "type": "address"
        }
      ],
      "name": "getReleasableAmount",
      "outputs": [
        {
          "internalType": "uint256",
          "name": "",
          "type": "uint256"
        }
      ],
      "stateMutability": "view",
      "type": "function",
      "constant": true
    },
    {
      "inputs": [],
      "name": "ASelfClaimToMyWallet",
      "outputs": [],
      "stateMutability": "nonpayable",
      "type": "function"
    },
    {
      "inputs": [
        {
          "internalType": "address",
          "name": "beneficiary",
          "type": "address"
        }
      ],
      "name": "BAdminReleaseAllVestedTokensToSingleBeneficiary",
      "outputs": [],
      "stateMutability": "nonpayable",
      "type": "function"
    },
    {
      "inputs": [
        {
          "internalType": "address[]",
          "name": "beneficiaries",
          "type": "address[]"
        }
      ],
      "name": "CAdminReleaseAllVestedTokensToSingleBeneficiary",
      "outputs": [],
      "stateMutability": "nonpayable",
      "type": "function"
    },
    {
      "inputs": [
        {
          "internalType": "address[]",
          "name": "beneficiaries",
          "type": "address[]"
        },
        {
          "internalType": "uint256[]",
          "name": "durations",
          "type": "uint256[]"
        },
        {
          "internalType": "uint256[]",
          "name": "peridicities",
          "type": "uint256[]"
        },
        {
          "internalType": "uint256[]",
          "name": "amounts",
          "type": "uint256[]"
        },
        {
          "internalType": "uint256[]",
          "name": "cliffTimes",
          "type": "uint256[]"
        },
        {
          "internalType": "uint256[]",
          "name": "permilleReleasedAtStarts",
          "type": "uint256[]"
        }
      ],
      "name": "EAdminBatchLockTokens",
      "outputs": [],
      "stateMutability": "nonpayable",
      "type": "function"
    },
    {
      "inputs": [
        {
          "internalType": "address",
          "name": "beneficiary",
          "type": "address"
        },
        {
          "internalType": "uint256",
          "name": "duration",
          "type": "uint256"
        },
        {
          "internalType": "uint256",
          "name": "periodicity",
          "type": "uint256"
        },
        {
          "internalType": "uint256",
          "name": "amount",
          "type": "uint256"
        },
        {
          "internalType": "uint256",
          "name": "cliffTime",
          "type": "uint256"
        },
        {
          "internalType": "uint256",
          "name": "permilleReleasedAtStart",
          "type": "uint256"
        }
      ],
      "name": "DAdminLockTokens",
      "outputs": [],
      "stateMutability": "nonpayable",
      "type": "function"
    }
  ],
  "bytecode": "0x608060405234801561001057600080fd5b50604051611d4d380380611d4d8339818101604052602081101561003357600080fd5b5051600061003f61010d565b600080546001600160a01b0319166001600160a01b0383169081178255604051929350917f8be0079c531659141344cd1fd0a4f28419497f9722a3daafe3b4186f6b6457e0908290a350600180556001600160a01b0381166100e8576040805162461bcd60e51b815260206004820152601c60248201527f546f6b656e20616464726573732063616e2774206265207a65726f2100000000604482015290519081900360640190fd5b600280546001600160a01b0319166001600160a01b0392909216919091179055610111565b3390565b611c2d806101206000396000f3fe608060405234801561001057600080fd5b50600436106100f55760003560e01c80639b10b6f511610097578063de8372f511610066578063de8372f5146102d5578063e88cc3aa14610345578063fc0c546a1461054f578063fd13376b14610557576100f5565b80639b10b6f514610282578063a5e231a81461028a578063b590a94214610292578063d5c14391146102b8576100f5565b80632d049032116100d35780632d049032146101d45780638095630b1461022e578063852d1d3b146102385780638da5cb5b1461025e576100f5565b80631c1a4710146100fa57806325b416d4146101385780632afd1a7d146101ae575b600080fd5b6101266004803603604081101561011057600080fd5b506001600160a01b03813516906020013561059b565b60408051918252519081900360200190f35b61015e6004803603602081101561014e57600080fd5b50356001600160a01b03166105cc565b60408051602080825283518183015283519192839290830191858101910280838360005b8381101561019a578181015183820152602001610182565b505050509050019250505060405180910390f35b610126600480360360208110156101c457600080fd5b50356001600160a01b0316610686565b6101f1600480360360208110156101ea57600080fd5b50356107a5565b604080516001600160a01b0390971687526020870195909552858501939093526060850191909152608084015260a0830152519081900360c00190f35b6102366107f5565b005b6102366004803603602081101561024e57600080fd5b50356001600160a01b03166108c0565b6102666109e1565b604080516001600160a01b039092168252519081900360200190f35b6101266109f0565b6102366109f6565b610236600480360360208110156102a857600080fd5b50356001600160a01b0316610aa6565b610126600480360360208110156102ce57600080fd5b5035610bcd565b610236600480360360208110156102eb57600080fd5b81019060208101813564010000000081111561030657600080fd5b82018360208201111561031857600080fd5b8035906020019184602083028401116401000000008311171561033a57600080fd5b509092509050610d87565b610236600480360360c081101561035b57600080fd5b81019060208101813564010000000081111561037657600080fd5b82018360208201111561038857600080fd5b803590602001918460208302840111640100000000831117156103aa57600080fd5b9193909290916020810190356401000000008111156103c857600080fd5b8201836020820111156103da57600080fd5b803590602001918460208302840111640100000000831117156103fc57600080fd5b91939092909160208101903564010000000081111561041a57600080fd5b82018360208201111561042c57600080fd5b8035906020019184602083028401116401000000008311171561044e57600080fd5b91939092909160208101903564010000000081111561046c57600080fd5b82018360208201111561047e57600080fd5b803590602001918460208302840111640100000000831117156104a057600080fd5b9193909290916020810190356401000000008111156104be57600080fd5b8201836020820111156104d057600080fd5b803590602001918460208302840111640100000000831117156104f257600080fd5b91939092909160208101903564010000000081111561051057600080fd5b82018360208201111561052257600080fd5b8035906020019184602083028401116401000000008311171561054457600080fd5b509092509050610eff565b610266611173565b610236600480360360c081101561056d57600080fd5b506001600160a01b038135169060208101359060408101359060608101359060808101359060a00135611182565b600560205281600052604060002081815481106105b757600080fd5b90600052602060002001600091509150505481565b60606001600160a01b03821661061c576040805162461bcd60e51b815260206004820152601060248201526f496e76616c696420616464726573732160801b604482015290519081900360640190fd5b6001600160a01b0382166000908152600560209081526040918290208054835181840281018401909452808452909183018282801561067a57602002820191906000526020600020905b815481526020019060010190808311610666575b50505050509050919050565b60006001600160a01b0382166106d6576040805162461bcd60e51b815260206004820152601060248201526f496e76616c696420616464726573732160801b604482015290519081900360640190fd5b6001600160a01b03821660009081526005602052604081205480610741576040805162461bcd60e51b815260206004820181905260248201527f4e6f206c6f636b656420746f6b656e20666f7220746869732061646472657373604482015290519081900360640190fd5b60005b8181101561079c576001600160a01b0385166000908152600560205260408120805461078591908490811061077557fe5b9060005260206000200154610bcd565b9050610791848261120c565b935050600101610744565b50909392505050565b600481815481106107b557600080fd5b60009182526020909120600690910201805460018201546002830154600384015460048501546005909501546001600160a01b0390941695509193909286565b6107fd61126f565b6001600160a01b031661080e6109e1565b6001600160a01b031614610869576040805162461bcd60e51b815260206004820181905260248201527f4f776e61626c653a2063616c6c6572206973206e6f7420746865206f776e6572604482015290519081900360640190fd5b600080546040516001600160a01b03909116907f8be0079c531659141344cd1fd0a4f28419497f9722a3daafe3b4186f6b6457e0908390a36000805473ffffffffffffffffffffffffffffffffffffffff19169055565b6108c861126f565b6001600160a01b03166108d96109e1565b6001600160a01b031614610934576040805162461bcd60e51b815260206004820181905260248201527f4f776e61626c653a2063616c6c6572206973206e6f7420746865206f776e6572604482015290519081900360640190fd5b6001600160a01b0381166109795760405162461bcd60e51b8152600401808060200182810382526026815260200180611a546026913960400191505060405180910390fd5b600080546040516001600160a01b03808516939216917f8be0079c531659141344cd1fd0a4f28419497f9722a3daafe3b4186f6b6457e091a36000805473ffffffffffffffffffffffffffffffffffffffff19166001600160a01b0392909216919091179055565b6000546001600160a01b031690565b60035481565b60026001541415610a4e576040805162461bcd60e51b815260206004820152601f60248201527f5265656e7472616e637947756172643a207265656e7472616e742063616c6c00604482015290519081900360640190fd5b60026001556000610a5e33611273565b905060008111610a9f5760405162461bcd60e51b8152600401808060200182810382526028815260200180611bd06028913960400191505060405180910390fd5b5060018055565b60026001541415610afe576040805162461bcd60e51b815260206004820152601f60248201527f5265656e7472616e637947756172643a207265656e7472616e742063616c6c00604482015290519081900360640190fd5b6002600155610b0b61126f565b6001600160a01b0316610b1c6109e1565b6001600160a01b031614610b77576040805162461bcd60e51b815260206004820181905260248201527f4f776e61626c653a2063616c6c6572206973206e6f7420746865206f776e6572604482015290519081900360640190fd5b6001600160a01b038116610bbc5760405162461bcd60e51b8152600401808060200182810382526021815260200180611a336021913960400191505060405180910390fd5b610bc581611273565b505060018055565b60045460009082908110610c28576040805162461bcd60e51b815260206004820152600e60248201527f496e76616c6964206c6f636b4964000000000000000000000000000000000000604482015290519081900360640190fd5b600060048481548110610c3757fe5b9060005260206000209060060201600301549050600060048581548110610c5a57fe5b9060005260206000209060060201600201549050600060048681548110610c7d57fe5b9060005260206000209060060201600401549050600060048781548110610ca057fe5b9060005260206000209060060201600101549050600060048881548110610cc357fe5b600091825260208220600560069092020101549150610cec85610ce6868661120c565b9061145e565b905042811015610d0d57610d00868361145e565b9750505050505050610d81565b42841115610d245760009750505050505050610d81565b6000610d3084876114bb565b90506000610d3e88836114bb565b90506000610d5a6001610d54428a90038b6114bb565b9061120c565b90506000610d688383611522565b9050610d74818761145e565b9b50505050505050505050505b50919050565b60026001541415610ddf576040805162461bcd60e51b815260206004820152601f60248201527f5265656e7472616e637947756172643a207265656e7472616e742063616c6c00604482015290519081900360640190fd5b6002600155610dec61126f565b6001600160a01b0316610dfd6109e1565b6001600160a01b031614610e58576040805162461bcd60e51b815260206004820181905260248201527f4f776e61626c653a2063616c6c6572206973206e6f7420746865206f776e6572604482015290519081900360640190fd5b8060005b81811015610ef5576000848483818110610e7257fe5b905060200201356001600160a01b03166001600160a01b03161415610ec85760405162461bcd60e51b8152600401808060200182810382526021815260200180611a336021913960400191505060405180910390fd5b610eec848483818110610ed757fe5b905060200201356001600160a01b0316611273565b50600101610e5c565b5050600180555050565b610f0761126f565b6001600160a01b0316610f186109e1565b6001600160a01b031614610f73576040805162461bcd60e51b815260206004820181905260248201527f4f776e61626c653a2063616c6c6572206973206e6f7420746865206f776e6572604482015290519081900360640190fd5b8a8914610fb8576040805162461bcd60e51b815260206004820152600e60248201526d496e76616c696420706172616d7360901b604482015290519081900360640190fd5b8a8714610ffd576040805162461bcd60e51b815260206004820152600e60248201526d496e76616c696420706172616d7360901b604482015290519081900360640190fd5b8a8514611042576040805162461bcd60e51b815260206004820152600e60248201526d496e76616c696420706172616d7360901b604482015290519081900360640190fd5b8a8314611087576040805162461bcd60e51b815260206004820152600e60248201526d496e76616c696420706172616d7360901b604482015290519081900360640190fd5b8a81146110cc576040805162461bcd60e51b815260206004820152600e60248201526d496e76616c696420706172616d7360901b604482015290519081900360640190fd5b8a60005b818110156111635761115b8e8e838181106110e757fe5b905060200201356001600160a01b03168d8d8481811061110357fe5b905060200201358c8c8581811061111657fe5b905060200201358b8b8681811061112957fe5b905060200201358a8a8781811061113c57fe5b9050602002013589898881811061114f57fe5b9050602002013561157b565b6001016110d0565b5050505050505050505050505050565b6002546001600160a01b031681565b61118a61126f565b6001600160a01b031661119b6109e1565b6001600160a01b0316146111f6576040805162461bcd60e51b815260206004820181905260248201527f4f776e61626c653a2063616c6c6572206973206e6f7420746865206f776e6572604482015290519081900360640190fd5b61120486868686868661157b565b505050505050565b600082820183811015611266576040805162461bcd60e51b815260206004820152601b60248201527f536166654d6174683a206164646974696f6e206f766572666c6f770000000000604482015290519081900360640190fd5b90505b92915050565b3390565b6001600160a01b0381166000908152600560205260408120548190806112ca5760405162461bcd60e51b815260040180806020018281038252602a815260200180611acc602a913960400191505060405180910390fd5b60005b818110156113cd576001600160a01b03851660009081526005602052604081208054839081106112f957fe5b90600052602060002001549050600061131182610bcd565b905080156113c357611323858261120c565b9450611356816004848154811061133657fe5b90600052602060002090600602016005015461120c90919063ffffffff16565b6004838154811061136357fe5b600091825260209182902060056006909202010191909155604080516001600160a01b038a168152918201839052818101849052517f881a2e1bf4f161e12580159a60513a536736d190d8f1264819ef4f1b260921d09181900360600190a15b50506001016112cd565b508115611457576002546040805163a9059cbb60e01b81526001600160a01b038781166004830152602482018690529151919092169163a9059cbb9160448083019260209291908290030181600087803b15801561142a57600080fd5b505af115801561143e573d6000803e3d6000fd5b505050506040513d602081101561145457600080fd5b50505b5092915050565b6000828211156114b5576040805162461bcd60e51b815260206004820152601e60248201527f536166654d6174683a207375627472616374696f6e206f766572666c6f770000604482015290519081900360640190fd5b50900390565b6000808211611511576040805162461bcd60e51b815260206004820152601a60248201527f536166654d6174683a206469766973696f6e206279207a65726f000000000000604482015290519081900360640190fd5b81838161151a57fe5b049392505050565b60008261153157506000611269565b8282028284828161153e57fe5b04146112665760405162461bcd60e51b8152600401808060200182810382526021815260200180611b4c6021913960400191505060405180910390fd5b4282116115b95760405162461bcd60e51b815260040180806020018281038252602d815260200180611ba3602d913960400191505060405180910390fd5b600084116115f85760405162461bcd60e51b8152600401808060200182810382526027815260200180611aa56027913960400191505060405180910390fd5b838510156116375760405162461bcd60e51b815260040180806020018281038252602b815260200180611a7a602b913960400191505060405180910390fd5b61165561164e8561164888826114bb565b90611522565b869061145e565b156116915760405162461bcd60e51b8152600401808060200182810382526034815260200180611b186034913960400191505060405180910390fd5b600083116116d05760405162461bcd60e51b8152600401808060200182810382526022815260200180611af66022913960400191505060405180910390fd5b6001600160a01b0386166117155760405162461bcd60e51b8152600401808060200182810382526021815260200180611a336021913960400191505060405180910390fd5b6103e881106117555760405162461bcd60e51b8152600401808060200182810382526036815260200180611b6d6036913960400191505060405180910390fd5b600061176d6103e86117678685611522565b906114bb565b9050600061177b858361145e565b90506000600480549050905060046040518060c001604052808b6001600160a01b031681526020018a81526020018981526020018481526020018781526020016000815250908060018154018082558091505060019003906000526020600020906006020160009091909190915060008201518160000160006101000a8154816001600160a01b0302191690836001600160a01b031602179055506020820151816001015560408201518160020155606082015181600301556080820151816004015560a082015181600501555050600560008a6001600160a01b03166001600160a01b031681526020019081526020016000208190806001815401808255809150506001900390600052602060002001600090919091909150556003546001016003819055507fbd8673a022003b0255029d17db46f8b1e5f698745fefbe79d09a758b0e14217d8989898989868860405180886001600160a01b0316815260200187815260200186815260200185815260200184815260200183815260200182815260200197505050505050505060405180910390a1600254604080516323b872dd60e01b81523360048201523060248201526044810185905290516001600160a01b03909216916323b872dd916064808201926020929091908290030181600087803b15801561196c57600080fd5b505af1158015611980573d6000803e3d6000fd5b505050506040513d602081101561199657600080fd5b50508215611a2757600254604080516323b872dd60e01b81523360048201526001600160a01b038c8116602483015260448201879052915191909216916323b872dd9160648083019260209291908290030181600087803b1580156119fa57600080fd5b505af1158015611a0e573d6000803e3d6000fd5b505050506040513d6020811015611a2457600080fd5b50505b50505050505050505056fe42656e65666963696172792063616e2774206265207a65726f20616464726573734f776e61626c653a206e6577206f776e657220697320746865207a65726f20616464726573734475726174696f6e2073686f756c642062652067726561746572207468616e20706572696f646963697479506572696f6469636974792073686f756c642062652067726561746572207468616e207a65726f596f7520646f6e2774206861766520616e79206c6f636b656420746f6b656e20746f2072656c65617365416d6f756e742073686f756c642062652067726561746572207468616e207a65726f4475726174696f6e2073686f756c64206265206469766964656420627920706572696f64696369747920636f6d706c6574656c79536166654d6174683a206d756c7469706c69636174696f6e206f766572666c6f775065726d696c6c6552656c6561736564417453746172742073686f756c64206265206c657373207468616e2031303025283130303029436c69666654696d652073686f756c642062652067726561746572207468616e2063757272656e742074696d65596f7520646f6e2774206861766520616e792072656c65617361626c6520616d6f756e7420796574a2646970667358221220771247655d4fa125dfcd99487c5605988cdc18214c2da54600701b2882ab888464736f6c63430007060033",
  "immutableReferences": {},
  "source": "// SPDX-License-Identifier: MIT\r\n\r\npragma solidity 0.7.6;\r\n\r\n\r\n/**\r\n * @dev Interface of the ERC20 standard as defined in the EIP.\r\n */\r\ninterface IERC20 {\r\n    /**\r\n     * @dev Returns the amount of tokens in existence.\r\n     */\r\n    function totalSupply() external view returns (uint256);\r\n\r\n    /**\r\n     * @dev Returns the amount of tokens owned by `account`.\r\n     */\r\n    function balanceOf(address account) external view returns (uint256);\r\n\r\n    /**\r\n     * @dev Moves `amount` tokens from the caller's account to `recipient`.\r\n     *\r\n     * Returns a boolean value indicating whether the operation succeeded.\r\n     *\r\n     * Emits a {Transfer} event.\r\n     */\r\n    function transfer(address recipient, uint256 amount) external returns (bool);\r\n\r\n    /**\r\n     * @dev Returns the remaining number of tokens that `spender` will be\r\n     * allowed to spend on behalf of `owner` through {transferFrom}. This is\r\n     * zero by default.\r\n     *\r\n     * This value changes when {approve} or {transferFrom} are called.\r\n     */\r\n    function allowance(address owner, address spender) external view returns (uint256);\r\n\r\n    /**\r\n     * @dev Sets `amount` as the allowance of `spender` over the caller's tokens.\r\n     *\r\n     * Returns a boolean value indicating whether the operation succeeded.\r\n     *\r\n     * IMPORTANT: Beware that changing an allowance with this method brings the risk\r\n     * that someone may use both the old and the new allowance by unfortunate\r\n     * transaction ordering. One possible solution to mitigate this race\r\n     * condition is to first reduce the spender's allowance to 0 and set the\r\n     * desired value afterwards:\r\n     * https://github.com/ethereum/EIPs/issues/20#issuecomment-263524729\r\n     *\r\n     * Emits an {Approval} event.\r\n     */\r\n    function approve(address spender, uint256 amount) external returns (bool);\r\n\r\n    /**\r\n     * @dev Moves `amount` tokens from `sender` to `recipient` using the\r\n     * allowance mechanism. `amount` is then deducted from the caller's\r\n     * allowance.\r\n     *\r\n     * Returns a boolean value indicating whether the operation succeeded.\r\n     *\r\n     * Emits a {Transfer} event.\r\n     */\r\n    function transferFrom(address sender, address recipient, uint256 amount) external returns (bool);\r\n\r\n    /**\r\n     * @dev Emitted when `value` tokens are moved from one account (`from`) to\r\n     * another (`to`).\r\n     *\r\n     * Note that `value` may be zero.\r\n     */\r\n    event Transfer(address indexed from, address indexed to, uint256 value);\r\n\r\n    /**\r\n     * @dev Emitted when the allowance of a `spender` for an `owner` is set by\r\n     * a call to {approve}. `value` is the new allowance.\r\n     */\r\n    event Approval(address indexed owner, address indexed spender, uint256 value);\r\n}\r\n\r\n\r\n/**\r\n * @dev Wrappers over Solidity's arithmetic operations with added overflow\r\n * checks.\r\n *\r\n * Arithmetic operations in Solidity wrap on overflow. This can easily result\r\n * in bugs, because programmers usually assume that an overflow raises an\r\n * error, which is the standard behavior in high level programming languages.\r\n * `SafeMath` restores this intuition by reverting the transaction when an\r\n * operation overflows.\r\n *\r\n * Using this library instead of the unchecked operations eliminates an entire\r\n * class of bugs, so it's recommended to use it always.\r\n */\r\nlibrary SafeMath {\r\n    /**\r\n     * @dev Returns the addition of two unsigned integers, with an overflow flag.\r\n     *\r\n     * _Available since v3.4._\r\n     */\r\n    function tryAdd(uint256 a, uint256 b) internal pure returns (bool, uint256) {\r\n        uint256 c = a + b;\r\n        if (c < a) return (false, 0);\r\n        return (true, c);\r\n    }\r\n\r\n    /**\r\n     * @dev Returns the substraction of two unsigned integers, with an overflow flag.\r\n     *\r\n     * _Available since v3.4._\r\n     */\r\n    function trySub(uint256 a, uint256 b) internal pure returns (bool, uint256) {\r\n        if (b > a) return (false, 0);\r\n        return (true, a - b);\r\n    }\r\n\r\n    /**\r\n     * @dev Returns the multiplication of two unsigned integers, with an overflow flag.\r\n     *\r\n     * _Available since v3.4._\r\n     */\r\n    function tryMul(uint256 a, uint256 b) internal pure returns (bool, uint256) {\r\n        // Gas optimization: this is cheaper than requiring 'a' not being zero, but the\r\n        // benefit is lost if 'b' is also tested.\r\n        // See: https://github.com/OpenZeppelin/openzeppelin-contracts/pull/522\r\n        if (a == 0) return (true, 0);\r\n        uint256 c = a * b;\r\n        if (c / a != b) return (false, 0);\r\n        return (true, c);\r\n    }\r\n\r\n    /**\r\n     * @dev Returns the division of two unsigned integers, with a division by zero flag.\r\n     *\r\n     * _Available since v3.4._\r\n     */\r\n    function tryDiv(uint256 a, uint256 b) internal pure returns (bool, uint256) {\r\n        if (b == 0) return (false, 0);\r\n        return (true, a / b);\r\n    }\r\n\r\n    /**\r\n     * @dev Returns the remainder of dividing two unsigned integers, with a division by zero flag.\r\n     *\r\n     * _Available since v3.4._\r\n     */\r\n    function tryMod(uint256 a, uint256 b) internal pure returns (bool, uint256) {\r\n        if (b == 0) return (false, 0);\r\n        return (true, a % b);\r\n    }\r\n\r\n    /**\r\n     * @dev Returns the addition of two unsigned integers, reverting on\r\n     * overflow.\r\n     *\r\n     * Counterpart to Solidity's `+` operator.\r\n     *\r\n     * Requirements:\r\n     *\r\n     * - Addition cannot overflow.\r\n     */\r\n    function add(uint256 a, uint256 b) internal pure returns (uint256) {\r\n        uint256 c = a + b;\r\n        require(c >= a, \"SafeMath: addition overflow\");\r\n        return c;\r\n    }\r\n\r\n    /**\r\n     * @dev Returns the subtraction of two unsigned integers, reverting on\r\n     * overflow (when the result is negative).\r\n     *\r\n     * Counterpart to Solidity's `-` operator.\r\n     *\r\n     * Requirements:\r\n     *\r\n     * - Subtraction cannot overflow.\r\n     */\r\n    function sub(uint256 a, uint256 b) internal pure returns (uint256) {\r\n        require(b <= a, \"SafeMath: subtraction overflow\");\r\n        return a - b;\r\n    }\r\n\r\n    /**\r\n     * @dev Returns the multiplication of two unsigned integers, reverting on\r\n     * overflow.\r\n     *\r\n     * Counterpart to Solidity's `*` operator.\r\n     *\r\n     * Requirements:\r\n     *\r\n     * - Multiplication cannot overflow.\r\n     */\r\n    function mul(uint256 a, uint256 b) internal pure returns (uint256) {\r\n        if (a == 0) return 0;\r\n        uint256 c = a * b;\r\n        require(c / a == b, \"SafeMath: multiplication overflow\");\r\n        return c;\r\n    }\r\n\r\n    /**\r\n     * @dev Returns the integer division of two unsigned integers, reverting on\r\n     * division by zero. The result is rounded towards zero.\r\n     *\r\n     * Counterpart to Solidity's `/` operator. Note: this function uses a\r\n     * `revert` opcode (which leaves remaining gas untouched) while Solidity\r\n     * uses an invalid opcode to revert (consuming all remaining gas).\r\n     *\r\n     * Requirements:\r\n     *\r\n     * - The divisor cannot be zero.\r\n     */\r\n    function div(uint256 a, uint256 b) internal pure returns (uint256) {\r\n        require(b > 0, \"SafeMath: division by zero\");\r\n        return a / b;\r\n    }\r\n\r\n    /**\r\n     * @dev Returns the remainder of dividing two unsigned integers. (unsigned integer modulo),\r\n     * reverting when dividing by zero.\r\n     *\r\n     * Counterpart to Solidity's `%` operator. This function uses a `revert`\r\n     * opcode (which leaves remaining gas untouched) while Solidity uses an\r\n     * invalid opcode to revert (consuming all remaining gas).\r\n     *\r\n     * Requirements:\r\n     *\r\n     * - The divisor cannot be zero.\r\n     */\r\n    function mod(uint256 a, uint256 b) internal pure returns (uint256) {\r\n        require(b > 0, \"SafeMath: modulo by zero\");\r\n        return a % b;\r\n    }\r\n\r\n    /**\r\n     * @dev Returns the subtraction of two unsigned integers, reverting with custom message on\r\n     * overflow (when the result is negative).\r\n     *\r\n     * CAUTION: This function is deprecated because it requires allocating memory for the error\r\n     * message unnecessarily. For custom revert reasons use {trySub}.\r\n     *\r\n     * Counterpart to Solidity's `-` operator.\r\n     *\r\n     * Requirements:\r\n     *\r\n     * - Subtraction cannot overflow.\r\n     */\r\n    function sub(uint256 a, uint256 b, string memory errorMessage) internal pure returns (uint256) {\r\n        require(b <= a, errorMessage);\r\n        return a - b;\r\n    }\r\n\r\n    /**\r\n     * @dev Returns the integer division of two unsigned integers, reverting with custom message on\r\n     * division by zero. The result is rounded towards zero.\r\n     *\r\n     * CAUTION: This function is deprecated because it requires allocating memory for the error\r\n     * message unnecessarily. For custom revert reasons use {tryDiv}.\r\n     *\r\n     * Counterpart to Solidity's `/` operator. Note: this function uses a\r\n     * `revert` opcode (which leaves remaining gas untouched) while Solidity\r\n     * uses an invalid opcode to revert (consuming all remaining gas).\r\n     *\r\n     * Requirements:\r\n     *\r\n     * - The divisor cannot be zero.\r\n     */\r\n    function div(uint256 a, uint256 b, string memory errorMessage) internal pure returns (uint256) {\r\n        require(b > 0, errorMessage);\r\n        return a / b;\r\n    }\r\n\r\n    /**\r\n     * @dev Returns the remainder of dividing two unsigned integers. (unsigned integer modulo),\r\n     * reverting with custom message when dividing by zero.\r\n     *\r\n     * CAUTION: This function is deprecated because it requires allocating memory for the error\r\n     * message unnecessarily. For custom revert reasons use {tryMod}.\r\n     *\r\n     * Counterpart to Solidity's `%` operator. This function uses a `revert`\r\n     * opcode (which leaves remaining gas untouched) while Solidity uses an\r\n     * invalid opcode to revert (consuming all remaining gas).\r\n     *\r\n     * Requirements:\r\n     *\r\n     * - The divisor cannot be zero.\r\n     */\r\n    function mod(uint256 a, uint256 b, string memory errorMessage) internal pure returns (uint256) {\r\n        require(b > 0, errorMessage);\r\n        return a % b;\r\n    }\r\n}\r\n\r\n\r\n/**\r\n * @dev Collection of functions related to the address type\r\n */\r\nlibrary Address {\r\n    /**\r\n     * @dev Returns true if `account` is a contract.\r\n     *\r\n     * [IMPORTANT]\r\n     * ====\r\n     * It is unsafe to assume that an address for which this function returns\r\n     * false is an externally-owned account (EOA) and not a contract.\r\n     *\r\n     * Among others, `isContract` will return false for the following\r\n     * types of addresses:\r\n     *\r\n     *  - an externally-owned account\r\n     *  - a contract in construction\r\n     *  - an address where a contract will be created\r\n     *  - an address where a contract lived, but was destroyed\r\n     * ====\r\n     */\r\n    function isContract(address account) internal view returns (bool) {\r\n        // This method relies on extcodesize, which returns 0 for contracts in\r\n        // construction, since the code is only stored at the end of the\r\n        // constructor execution.\r\n\r\n        uint256 size;\r\n        // solhint-disable-next-line no-inline-assembly\r\n        assembly { size := extcodesize(account) }\r\n        return size > 0;\r\n    }\r\n\r\n    /**\r\n     * @dev Replacement for Solidity's `transfer`: sends `amount` wei to\r\n     * `recipient`, forwarding all available gas and reverting on errors.\r\n     *\r\n     * https://eips.ethereum.org/EIPS/eip-1884[EIP1884] increases the gas cost\r\n     * of certain opcodes, possibly making contracts go over the 2300 gas limit\r\n     * imposed by `transfer`, making them unable to receive funds via\r\n     * `transfer`. {sendValue} removes this limitation.\r\n     *\r\n     * https://diligence.consensys.net/posts/2019/09/stop-using-soliditys-transfer-now/[Learn more].\r\n     *\r\n     * IMPORTANT: because control is transferred to `recipient`, care must be\r\n     * taken to not create reentrancy vulnerabilities. Consider using\r\n     * {ReentrancyGuard} or the\r\n     * https://solidity.readthedocs.io/en/v0.5.11/security-considerations.html#use-the-checks-effects-interactions-pattern[checks-effects-interactions pattern].\r\n     */\r\n    function sendValue(address payable recipient, uint256 amount) internal {\r\n        require(address(this).balance >= amount, \"Address: insufficient balance\");\r\n\r\n        // solhint-disable-next-line avoid-low-level-calls, avoid-call-value\r\n        (bool success, ) = recipient.call{ value: amount }(\"\");\r\n        require(success, \"Address: unable to send value, recipient may have reverted\");\r\n    }\r\n\r\n    /**\r\n     * @dev Performs a Solidity function call using a low level `call`. A\r\n     * plain`call` is an unsafe replacement for a function call: use this\r\n     * function instead.\r\n     *\r\n     * If `target` reverts with a revert reason, it is bubbled up by this\r\n     * function (like regular Solidity function calls).\r\n     *\r\n     * Returns the raw returned data. To convert to the expected return value,\r\n     * use https://solidity.readthedocs.io/en/latest/units-and-global-variables.html?highlight=abi.decode#abi-encoding-and-decoding-functions[`abi.decode`].\r\n     *\r\n     * Requirements:\r\n     *\r\n     * - `target` must be a contract.\r\n     * - calling `target` with `data` must not revert.\r\n     *\r\n     * _Available since v3.1._\r\n     */\r\n    function functionCall(address target, bytes memory data) internal returns (bytes memory) {\r\n      return functionCall(target, data, \"Address: low-level call failed\");\r\n    }\r\n\r\n    /**\r\n     * @dev Same as {xref-Address-functionCall-address-bytes-}[`functionCall`], but with\r\n     * `errorMessage` as a fallback revert reason when `target` reverts.\r\n     *\r\n     * _Available since v3.1._\r\n     */\r\n    function functionCall(address target, bytes memory data, string memory errorMessage) internal returns (bytes memory) {\r\n        return functionCallWithValue(target, data, 0, errorMessage);\r\n    }\r\n\r\n    /**\r\n     * @dev Same as {xref-Address-functionCall-address-bytes-}[`functionCall`],\r\n     * but also transferring `value` wei to `target`.\r\n     *\r\n     * Requirements:\r\n     *\r\n     * - the calling contract must have an ETH balance of at least `value`.\r\n     * - the called Solidity function must be `payable`.\r\n     *\r\n     * _Available since v3.1._\r\n     */\r\n    function functionCallWithValue(address target, bytes memory data, uint256 value) internal returns (bytes memory) {\r\n        return functionCallWithValue(target, data, value, \"Address: low-level call with value failed\");\r\n    }\r\n\r\n    /**\r\n     * @dev Same as {xref-Address-functionCallWithValue-address-bytes-uint256-}[`functionCallWithValue`], but\r\n     * with `errorMessage` as a fallback revert reason when `target` reverts.\r\n     *\r\n     * _Available since v3.1._\r\n     */\r\n    function functionCallWithValue(address target, bytes memory data, uint256 value, string memory errorMessage) internal returns (bytes memory) {\r\n        require(address(this).balance >= value, \"Address: insufficient balance for call\");\r\n        require(isContract(target), \"Address: call to non-contract\");\r\n\r\n        // solhint-disable-next-line avoid-low-level-calls\r\n        (bool success, bytes memory returndata) = target.call{ value: value }(data);\r\n        return _verifyCallResult(success, returndata, errorMessage);\r\n    }\r\n\r\n    /**\r\n     * @dev Same as {xref-Address-functionCall-address-bytes-}[`functionCall`],\r\n     * but performing a static call.\r\n     *\r\n     * _Available since v3.3._\r\n     */\r\n    function functionStaticCall(address target, bytes memory data) internal view returns (bytes memory) {\r\n        return functionStaticCall(target, data, \"Address: low-level static call failed\");\r\n    }\r\n\r\n    /**\r\n     * @dev Same as {xref-Address-functionCall-address-bytes-string-}[`functionCall`],\r\n     * but performing a static call.\r\n     *\r\n     * _Available since v3.3._\r\n     */\r\n    function functionStaticCall(address target, bytes memory data, string memory errorMessage) internal view returns (bytes memory) {\r\n        require(isContract(target), \"Address: static call to non-contract\");\r\n\r\n        // solhint-disable-next-line avoid-low-level-calls\r\n        (bool success, bytes memory returndata) = target.staticcall(data);\r\n        return _verifyCallResult(success, returndata, errorMessage);\r\n    }\r\n\r\n    /**\r\n     * @dev Same as {xref-Address-functionCall-address-bytes-}[`functionCall`],\r\n     * but performing a delegate call.\r\n     *\r\n     * _Available since v3.4._\r\n     */\r\n    function functionDelegateCall(address target, bytes memory data) internal returns (bytes memory) {\r\n        return functionDelegateCall(target, data, \"Address: low-level delegate call failed\");\r\n    }\r\n\r\n    /**\r\n     * @dev Same as {xref-Address-functionCall-address-bytes-string-}[`functionCall`],\r\n     * but performing a delegate call.\r\n     *\r\n     * _Available since v3.4._\r\n     */\r\n    function functionDelegateCall(address target, bytes memory data, string memory errorMessage) internal returns (bytes memory) {\r\n        require(isContract(target), \"Address: delegate call to non-contract\");\r\n\r\n        // solhint-disable-next-line avoid-low-level-calls\r\n        (bool success, bytes memory returndata) = target.delegatecall(data);\r\n        return _verifyCallResult(success, returndata, errorMessage);\r\n    }\r\n\r\n    function _verifyCallResult(bool success, bytes memory returndata, string memory errorMessage) private pure returns(bytes memory) {\r\n        if (success) {\r\n            return returndata;\r\n        } else {\r\n            // Look for revert reason and bubble it up if present\r\n            if (returndata.length > 0) {\r\n                // The easiest way to bubble the revert reason is using memory via assembly\r\n\r\n                // solhint-disable-next-line no-inline-assembly\r\n                assembly {\r\n                    let returndata_size := mload(returndata)\r\n                    revert(add(32, returndata), returndata_size)\r\n                }\r\n            } else {\r\n                revert(errorMessage);\r\n            }\r\n        }\r\n    }\r\n}\r\n\r\n\r\n/*\r\n * @dev Provides information about the current execution context, including the\r\n * sender of the transaction and its data. While these are generally available\r\n * via msg.sender and msg.data, they should not be accessed in such a direct\r\n * manner, since when dealing with GSN meta-transactions the account sending and\r\n * paying for execution may not be the actual sender (as far as an application\r\n * is concerned).\r\n *\r\n * This contract is only required for intermediate, library-like contracts.\r\n */\r\nabstract contract Context {\r\n    function _msgSender() internal view virtual returns (address payable) {\r\n        return msg.sender;\r\n    }\r\n\r\n    function _msgData() internal view virtual returns (bytes memory) {\r\n        this; // silence state mutability warning without generating bytecode - see https://github.com/ethereum/solidity/issues/2691\r\n        return msg.data;\r\n    }\r\n}\r\n\r\n\r\n/**\r\n * @dev Contract module which provides a basic access control mechanism, where\r\n * there is an account (an owner) that can be granted exclusive access to\r\n * specific functions.\r\n *\r\n * By default, the owner account will be the one that deploys the contract. This\r\n * can later be changed with {GAdminTransferOwnership}.\r\n *\r\n * This module is used through inheritance. It will make available the modifier\r\n * `onlyOwner`, which can be applied to your functions to restrict their use to\r\n * the owner.\r\n */\r\nabstract contract Ownable is Context {\r\n    address private _owner;\r\n\r\n    event OwnershipTransferred(address indexed previousOwner, address indexed newOwner);\r\n\r\n    /**\r\n     * @dev Initializes the contract setting the deployer as the initial owner.\r\n     */\r\n    constructor () internal {\r\n        address msgSender = _msgSender();\r\n        _owner = msgSender;\r\n        emit OwnershipTransferred(address(0), msgSender);\r\n    }\r\n\r\n    /**\r\n     * @dev Returns the address of the current owner.\r\n     */\r\n    function owner() public view virtual returns (address) {\r\n        return _owner;\r\n    }\r\n\r\n    /**\r\n     * @dev Throws if called by any account other than the owner.\r\n     */\r\n    modifier onlyOwner() {\r\n        require(owner() == _msgSender(), \"Ownable: caller is not the owner\");\r\n        _;\r\n    }\r\n\r\n    /**\r\n     * @dev Leaves the contract without owner. It will not be possible to call\r\n     * `onlyOwner` functions anymore. Can only be called by the current owner.\r\n     *\r\n     * NOTE: Renouncing ownership will leave the contract without an owner,\r\n     * thereby removing any functionality that is only available to the owner.\r\n     */\r\n    function FAdminRenounceOwnership() public virtual onlyOwner {\r\n        emit OwnershipTransferred(_owner, address(0));\r\n        _owner = address(0);\r\n    }\r\n\r\n    /**\r\n     * @dev Transfers ownership of the contract to a new account (`newOwner`).\r\n     * Can only be called by the current owner.\r\n     */\r\n    function GAdminTransferOwnership(address newOwner) public virtual onlyOwner {\r\n        require(newOwner != address(0), \"Ownable: new owner is the zero address\");\r\n        emit OwnershipTransferred(_owner, newOwner);\r\n        _owner = newOwner;\r\n    }\r\n}\r\n\r\n\r\n/**\r\n * @dev Contract module that helps prevent reentrant calls to a function.\r\n *\r\n * Inheriting from `ReentrancyGuard` will make the {nonReentrant} modifier\r\n * available, which can be applied to functions to make sure there are no nested\r\n * (reentrant) calls to them.\r\n *\r\n * Note that because there is a single `nonReentrant` guard, functions marked as\r\n * `nonReentrant` may not call one another. This can be worked around by making\r\n * those functions `private`, and then adding `external` `nonReentrant` entry\r\n * points to them.\r\n *\r\n * TIP: If you would like to learn more about reentrancy and alternative ways\r\n * to protect against it, check out our blog post\r\n * https://blog.openzeppelin.com/reentrancy-after-istanbul/[Reentrancy After Istanbul].\r\n */\r\nabstract contract ReentrancyGuard {\r\n    // Booleans are more expensive than uint256 or any type that takes up a full\r\n    // word because each write operation emits an extra SLOAD to first read the\r\n    // slot's contents, replace the bits taken up by the boolean, and then write\r\n    // back. This is the compiler's defense against contract upgrades and\r\n    // pointer aliasing, and it cannot be disabled.\r\n\r\n    // The values being non-zero value makes deployment a bit more expensive,\r\n    // but in exchange the refund on every call to nonReentrant will be lower in\r\n    // amount. Since refunds are capped to a percentage of the total\r\n    // transaction's gas, it is best to keep them low in cases like this one, to\r\n    // increase the likelihood of the full refund coming into effect.\r\n    uint256 private constant _NOT_ENTERED = 1;\r\n    uint256 private constant _ENTERED = 2;\r\n\r\n    uint256 private _status;\r\n\r\n    constructor () internal {\r\n        _status = _NOT_ENTERED;\r\n    }\r\n\r\n    /**\r\n     * @dev Prevents a contract from calling itself, directly or indirectly.\r\n     * Calling a `nonReentrant` function from another `nonReentrant`\r\n     * function is not supported. It is possible to prevent this from happening\r\n     * by making the `nonReentrant` function external, and make it call a\r\n     * `private` function that does the actual work.\r\n     */\r\n    modifier nonReentrant() {\r\n        // On the first call to nonReentrant, _notEntered will be true\r\n        require(_status != _ENTERED, \"ReentrancyGuard: reentrant call\");\r\n\r\n        // Any calls to nonReentrant after this point will fail\r\n        _status = _ENTERED;\r\n\r\n        _;\r\n\r\n        // By storing the original value once again, a refund is triggered (see\r\n        // https://eips.ethereum.org/EIPS/eip-2200)\r\n        _status = _NOT_ENTERED;\r\n    }\r\n}\r\n\r\n\r\ncontract DREEMlaunchpadVesting is Ownable, ReentrancyGuard {\r\n    using SafeMath for uint256;\r\n    using Address for address;\r\n\r\n    struct LockInfo {\r\n        address beneficiary;\r\n        uint256 duration;\r\n        uint256 periodicity;\r\n        uint256 amount;\r\n        uint256 cliffTime;\r\n        uint256 released;\r\n    }\r\n\r\n    event TokenLocked(\r\n        address beneficiary,\r\n        uint256 duration,\r\n        uint256 periodicity,\r\n        uint256 amount,\r\n        uint256 cliffTime,\r\n        uint256 lockId,\r\n        uint256 amountLocked\r\n    );\r\n\r\n    event TokenReleased(address beneficiary, uint256 amount, uint256 lockId);\r\n\r\n    IERC20 public token;\r\n\r\n    uint256 public lockCount;\r\n    LockInfo[] public lockInfos;\r\n    mapping(address => uint256[]) public lockIds;\r\n\r\n    constructor(IERC20 _token) {\r\n        require(address(_token) != address(0), \"Token address can't be zero!\");\r\n        token = _token;\r\n    }\r\n\r\n    modifier validateLockId(uint256 lockId) {\r\n        require(lockId < lockInfos.length, \"Invalid lockId\");\r\n        _;\r\n    }\r\n\r\n    /**\r\n     * get available amount of a certain lock\r\n     */\r\n    function getAvailableAmount(uint256 lockId)\r\n        public\r\n        view\r\n        validateLockId(lockId)\r\n        returns (uint256)\r\n    {\r\n        uint256 amount = lockInfos[lockId].amount;\r\n        uint256 periodicity = lockInfos[lockId].periodicity;\r\n        uint256 cliffTime = lockInfos[lockId].cliffTime;\r\n        uint256 duration = lockInfos[lockId].duration;\r\n        uint256 released = lockInfos[lockId].released;\r\n        uint256 finalTime = cliffTime.add(duration).sub(periodicity);\r\n        if (finalTime < block.timestamp) {\r\n            return amount.sub(released);\r\n        } else if (cliffTime > block.timestamp) {\r\n            return uint256(0);\r\n        } else {\r\n            uint256 totalPeridicities = duration.div(periodicity);\r\n            uint256 periodicityAmount = amount.div(totalPeridicities);\r\n            uint256 currentperiodicityCount = (block.timestamp - cliffTime)\r\n            .div(periodicity)\r\n            .add(1);\r\n            uint256 availableAmount = periodicityAmount.mul(\r\n                currentperiodicityCount\r\n            );\r\n            return availableAmount.sub(released);\r\n        }\r\n    }\r\n\r\n    function getLockIds(address beneficiary)\r\n        external\r\n        view\r\n        returns (uint256[] memory)\r\n    {\r\n        require(beneficiary != address(0), \"Invalid address!\");\r\n        return lockIds[beneficiary];\r\n    }\r\n\r\n    function getReleasableAmount(address beneficiary)\r\n        external\r\n        view\r\n        returns (uint256)\r\n    {\r\n        require(beneficiary != address(0), \"Invalid address!\");\r\n\r\n        uint256 available = uint256(0);\r\n        uint256 length = lockIds[beneficiary].length;\r\n        require(length > 0, \"No locked token for this address\");\r\n        for (uint256 index = 0; index < length; ++index) {\r\n            uint256 subAvailable = getAvailableAmount(\r\n                lockIds[beneficiary][index]\r\n            );\r\n            available = available.add(subAvailable);\r\n        }\r\n        return available;\r\n    }\r\n\r\n    function _releaseAllAvailableTokens(address beneficiary)\r\n        private\r\n        returns (uint256)\r\n    {\r\n        uint256 available = uint256(0);\r\n        uint256 length = lockIds[beneficiary].length;\r\n        require(length > 0, \"You don't have any locked token to release\");\r\n        for (uint256 index = 0; index < length; ++index) {\r\n            uint256 lockId = lockIds[beneficiary][index];\r\n            uint256 subAvailable = getAvailableAmount(lockId);\r\n            if (subAvailable > 0) {\r\n                available = available.add(subAvailable);\r\n                lockInfos[lockId].released = lockInfos[lockId].released.add(\r\n                    subAvailable\r\n                );\r\n                emit TokenReleased(beneficiary, subAvailable, lockId);\r\n            }\r\n        }\r\n        if (available > 0) {\r\n            token.transfer(beneficiary, available);\r\n        }\r\n        return available;\r\n    }\r\n\r\n    function ASelfClaimToMyWallet() external nonReentrant {\r\n        uint256 releasedAmount = _releaseAllAvailableTokens(msg.sender);\r\n        require(releasedAmount > 0, \"You don't have any releasable amount yet\");\r\n    }\r\n\r\n    function BAdminReleaseAllVestedTokensToSingleBeneficiary(address beneficiary)\r\n        external\r\n        nonReentrant\r\n        onlyOwner\r\n    {\r\n        require(beneficiary != address(0), \"Beneficiary can't be zero address\");\r\n        _releaseAllAvailableTokens(beneficiary);\r\n    }\r\n\r\n    function CAdminReleaseAllVestedTokensToSingleBeneficiary(\r\n        address[] calldata beneficiaries\r\n    ) external nonReentrant onlyOwner {\r\n        uint256 total = beneficiaries.length;\r\n\r\n        for (uint256 index = 0; index < total; index++) {\r\n            require(\r\n                beneficiaries[index] != address(0),\r\n                \"Beneficiary can't be zero address\"\r\n            );\r\n            _releaseAllAvailableTokens(beneficiaries[index]);\r\n        }\r\n    }\r\n\r\n    function EAdminBatchLockTokens(\r\n        address[] calldata beneficiaries,\r\n        uint256[] calldata durations,\r\n        uint256[] calldata peridicities,\r\n        uint256[] calldata amounts,\r\n        uint256[] calldata cliffTimes,\r\n        uint256[] calldata permilleReleasedAtStarts\r\n    ) external onlyOwner {\r\n        require(beneficiaries.length == durations.length, \"Invalid params\");\r\n        require(beneficiaries.length == peridicities.length, \"Invalid params\");\r\n        require(beneficiaries.length == amounts.length, \"Invalid params\");\r\n        require(beneficiaries.length == cliffTimes.length, \"Invalid params\");\r\n        require(\r\n            beneficiaries.length == permilleReleasedAtStarts.length,\r\n            \"Invalid params\"\r\n        );\r\n        uint256 total = beneficiaries.length;\r\n\r\n        for (uint256 index = 0; index < total; index++) {\r\n            _lockTokens(\r\n                beneficiaries[index],\r\n                durations[index],\r\n                peridicities[index],\r\n                amounts[index],\r\n                cliffTimes[index],\r\n                permilleReleasedAtStarts[index]\r\n            );\r\n        }\r\n    }\r\n\r\n    /**\r\n     * Lock Tokens\r\n     *\r\n     * @param beneficiary               address of beneficiary\r\n     * @param duration                  total duration\r\n     * @param periodicity                periodicity\r\n     * @param amount                    total amount of token\r\n     * @param cliffTime                 timestamp of cliffTime\r\n     * @param permilleReleasedAtStart    1000: 100%, 15: 1.5%\r\n     */\r\n    function DAdminLockTokens(\r\n        address beneficiary,\r\n        uint256 duration,\r\n        uint256 periodicity,\r\n        uint256 amount,\r\n        uint256 cliffTime,\r\n        uint256 permilleReleasedAtStart\r\n    ) external onlyOwner {\r\n        _lockTokens(\r\n            beneficiary,\r\n            duration,\r\n            periodicity,\r\n            amount,\r\n            cliffTime,\r\n            permilleReleasedAtStart\r\n        );\r\n    }\r\n\r\n    function _lockTokens(\r\n        address beneficiary,\r\n        uint256 duration,\r\n        uint256 periodicity,\r\n        uint256 amount,\r\n        uint256 cliffTime,\r\n        uint256 permilleReleasedAtStart\r\n    ) private {\r\n        require(\r\n            cliffTime > block.timestamp,\r\n            \"CliffTime should be greater than current time\"\r\n        );\r\n        require(periodicity > 0, \"Periodicity should be greater than zero\");\r\n        require(\r\n            duration >= periodicity,\r\n            \"Duration should be greater than periodicity\"\r\n        );\r\n        require(\r\n            duration.sub(duration.div(periodicity).mul(periodicity)) == 0,\r\n            \"Duration should be divided by periodicity completely\"\r\n        );\r\n        require(amount > 0, \"Amount should be greater than zero\");\r\n        require(beneficiary != address(0), \"Beneficiary can't be zero address\");\r\n        require(\r\n            permilleReleasedAtStart < 1000,\r\n            \"PermilleReleasedAtStart should be less than 100%(1000)\"\r\n        );\r\n\r\n        uint256 amountToReleaseAtStart = amount\r\n        .mul(permilleReleasedAtStart)\r\n        .div(1000);\r\n        uint256 amountToLock = amount.sub(amountToReleaseAtStart);\r\n\r\n        uint256 lockLength = lockInfos.length;\r\n        lockInfos.push(\r\n            LockInfo({\r\n                beneficiary: beneficiary,\r\n                duration: duration,\r\n                periodicity: periodicity,\r\n                amount: amountToLock,\r\n                cliffTime: cliffTime,\r\n                released: uint256(0)\r\n            })\r\n        );\r\n        lockIds[beneficiary].push(lockLength);\r\n        lockCount = lockCount + 1;\r\n\r\n        emit TokenLocked(\r\n            beneficiary,\r\n            duration,\r\n            periodicity,\r\n            amount,\r\n            cliffTime,\r\n            lockLength,\r\n            amountToLock\r\n        );\r\n        token.transferFrom(msg.sender, address(this), amountToLock);\r\n        if (amountToReleaseAtStart > 0) {\r\n            token.transferFrom(msg.sender, beneficiary, amountToReleaseAtStart);\r\n        }\r\n    }\r\n}",
  "sourcePath": "/Users/angelsatorresalmenara/Desktop/DREEM/DREEM_LOCKER/contracts/DREEMlaunchpadVesting.sol",
  "compiler": {
    "name": "solc",
    "version": "0.7.6+commit.7338295f.Emscripten.clang"
  },
  "schemaVersion": "3.4.3",
  "updatedAt": "2021-12-11T18:20:34.606Z",
  "networkType": "ethereum",
  "devdoc": {
    "kind": "dev",
    "methods": {
      "DAdminLockTokens(address,uint256,uint256,uint256,uint256,uint256)": {
        "params": {
          "amount": "total amount of token",
          "beneficiary": "address of beneficiary",
          "cliffTime": "timestamp of cliffTime",
          "duration": "total duration",
          "periodicity": "periodicity",
          "permilleReleasedAtStart": "1000: 100%, 15: 1.5%"
        }
      },
      "FAdminRenounceOwnership()": {
        "details": "Leaves the contract without owner. It will not be possible to call `onlyOwner` functions anymore. Can only be called by the current owner. NOTE: Renouncing ownership will leave the contract without an owner, thereby removing any functionality that is only available to the owner."
      },
      "GAdminTransferOwnership(address)": {
        "details": "Transfers ownership of the contract to a new account (`newOwner`). Can only be called by the current owner."
      },
      "owner()": {
        "details": "Returns the address of the current owner."
      }
    },
    "version": 1
  },
  "userdoc": {
    "kind": "user",
    "methods": {
      "DAdminLockTokens(address,uint256,uint256,uint256,uint256,uint256)": {
        "notice": "Lock Tokens"
      },
      "getAvailableAmount(uint256)": {
        "notice": "get available amount of a certain lock"
      }
    },
    "version": 1
  }
}