{
  "_format": "hh-sol-artifact-1",
  "contractName": "OpenSalesManager",
  "sourceName": "contracts/OpenSalesManager.sol",
  "abi": [
    {
      "inputs": [
        {
          "internalType": "address",
          "name": "feeCollector_",
          "type": "address"
        },
        {
          "internalType": "address",
          "name": "protocol_",
          "type": "address"
        }
      ],
      "stateMutability": "nonpayable",
      "type": "constructor"
    },
    {
      "anonymous": false,
      "inputs": [
        {
          "indexed": false,
          "internalType": "address",
          "name": "previousAdmin",
          "type": "address"
        },
        {
          "indexed": false,
          "internalType": "address",
          "name": "newAdmin",
          "type": "address"
        }
      ],
      "name": "AdminChanged",
      "type": "event"
    },
    {
      "anonymous": false,
      "inputs": [
        {
          "indexed": true,
          "internalType": "address",
          "name": "beacon",
          "type": "address"
        }
      ],
      "name": "BeaconUpgraded",
      "type": "event"
    },
    {
      "anonymous": false,
      "inputs": [
        {
          "indexed": true,
          "internalType": "address",
          "name": "token",
          "type": "address"
        }
      ],
      "name": "Blacklist",
      "type": "event"
    },
    {
      "anonymous": false,
      "inputs": [
        {
          "indexed": true,
          "internalType": "address",
          "name": "previousOwner",
          "type": "address"
        },
        {
          "indexed": true,
          "internalType": "address",
          "name": "newOwner",
          "type": "address"
        }
      ],
      "name": "OwnershipTransferred",
      "type": "event"
    },
    {
      "anonymous": false,
      "inputs": [
        {
          "indexed": false,
          "internalType": "address",
          "name": "fromBuyer",
          "type": "address"
        },
        {
          "indexed": false,
          "internalType": "address",
          "name": "collection",
          "type": "address"
        },
        {
          "indexed": false,
          "internalType": "uint256",
          "name": "tokenId",
          "type": "uint256"
        },
        {
          "indexed": false,
          "internalType": "address",
          "name": "paymentToken",
          "type": "address"
        }
      ],
      "name": "PurchaseCanceled",
      "type": "event"
    },
    {
      "anonymous": false,
      "inputs": [
        {
          "indexed": false,
          "internalType": "address",
          "name": "fromBuyer",
          "type": "address"
        },
        {
          "indexed": false,
          "internalType": "address",
          "name": "toSeller",
          "type": "address"
        },
        {
          "indexed": false,
          "internalType": "address",
          "name": "collection",
          "type": "address"
        },
        {
          "indexed": false,
          "internalType": "uint256",
          "name": "tokenId",
          "type": "uint256"
        },
        {
          "indexed": false,
          "internalType": "address",
          "name": "paymentToken",
          "type": "address"
        },
        {
          "indexed": false,
          "internalType": "uint256",
          "name": "price",
          "type": "uint256"
        }
      ],
      "name": "PurchaseCompleted",
      "type": "event"
    },
    {
      "anonymous": false,
      "inputs": [
        {
          "indexed": false,
          "internalType": "address",
          "name": "fromBuyer",
          "type": "address"
        },
        {
          "indexed": false,
          "internalType": "address",
          "name": "collection",
          "type": "address"
        },
        {
          "indexed": false,
          "internalType": "uint256",
          "name": "tokenId",
          "type": "uint256"
        },
        {
          "indexed": false,
          "internalType": "address",
          "name": "paymentToken",
          "type": "address"
        },
        {
          "indexed": false,
          "internalType": "uint256",
          "name": "price",
          "type": "uint256"
        },
        {
          "indexed": false,
          "internalType": "uint256",
          "name": "expiration",
          "type": "uint256"
        }
      ],
      "name": "PurchaseProposed",
      "type": "event"
    },
    {
      "anonymous": false,
      "inputs": [
        {
          "indexed": false,
          "internalType": "address",
          "name": "fromSeller",
          "type": "address"
        },
        {
          "indexed": false,
          "internalType": "address",
          "name": "collection",
          "type": "address"
        },
        {
          "indexed": false,
          "internalType": "uint256",
          "name": "tokenId",
          "type": "uint256"
        },
        {
          "indexed": false,
          "internalType": "address",
          "name": "paymentToken",
          "type": "address"
        }
      ],
      "name": "SaleCanceled",
      "type": "event"
    },
    {
      "anonymous": false,
      "inputs": [
        {
          "indexed": false,
          "internalType": "address",
          "name": "fromSeller",
          "type": "address"
        },
        {
          "indexed": false,
          "internalType": "address",
          "name": "toBuyer",
          "type": "address"
        },
        {
          "indexed": false,
          "internalType": "address",
          "name": "collection",
          "type": "address"
        },
        {
          "indexed": false,
          "internalType": "uint256",
          "name": "tokenId",
          "type": "uint256"
        },
        {
          "indexed": false,
          "internalType": "address",
          "name": "paymentToken",
          "type": "address"
        },
        {
          "indexed": false,
          "internalType": "uint256",
          "name": "price",
          "type": "uint256"
        }
      ],
      "name": "SaleCompleted",
      "type": "event"
    },
    {
      "anonymous": false,
      "inputs": [
        {
          "indexed": false,
          "internalType": "address",
          "name": "fromSeller",
          "type": "address"
        },
        {
          "indexed": false,
          "internalType": "address",
          "name": "collection",
          "type": "address"
        },
        {
          "indexed": false,
          "internalType": "uint256",
          "name": "tokenId",
          "type": "uint256"
        },
        {
          "indexed": false,
          "internalType": "address",
          "name": "paymentToken",
          "type": "address"
        },
        {
          "indexed": false,
          "internalType": "uint256",
          "name": "price",
          "type": "uint256"
        },
        {
          "indexed": false,
          "internalType": "uint256",
          "name": "expiration",
          "type": "uint256"
        }
      ],
      "name": "SaleProposed",
      "type": "event"
    },
    {
      "anonymous": false,
      "inputs": [
        {
          "indexed": true,
          "internalType": "address",
          "name": "implementation",
          "type": "address"
        }
      ],
      "name": "Upgraded",
      "type": "event"
    },
    {
      "anonymous": false,
      "inputs": [
        {
          "indexed": true,
          "internalType": "address",
          "name": "token",
          "type": "address"
        }
      ],
      "name": "Whitelist",
      "type": "event"
    },
    {
      "inputs": [
        {
          "internalType": "address",
          "name": "collection_",
          "type": "address"
        },
        {
          "internalType": "uint256",
          "name": "tokenId_",
          "type": "uint256"
        },
        {
          "internalType": "address",
          "name": "paymentToken_",
          "type": "address"
        },
        {
          "internalType": "uint256",
          "name": "price_",
          "type": "uint256"
        },
        {
          "internalType": "address",
          "name": "beneficiary_",
          "type": "address"
        },
        {
          "internalType": "address",
          "name": "sellerToMatch_",
          "type": "address"
        },
        {
          "internalType": "uint256",
          "name": "validityPeriod_",
          "type": "uint256"
        }
      ],
      "name": "approvePurchase",
      "outputs": [],
      "stateMutability": "nonpayable",
      "type": "function"
    },
    {
      "inputs": [
        {
          "internalType": "address",
          "name": "collection_",
          "type": "address"
        },
        {
          "internalType": "uint256",
          "name": "tokenId_",
          "type": "uint256"
        },
        {
          "internalType": "address",
          "name": "paymentToken_",
          "type": "address"
        },
        {
          "internalType": "uint256",
          "name": "price_",
          "type": "uint256"
        },
        {
          "internalType": "address",
          "name": "beneficiary_",
          "type": "address"
        },
        {
          "internalType": "address",
          "name": "buyerToMatch_",
          "type": "address"
        },
        {
          "internalType": "uint256",
          "name": "validityPeriod_",
          "type": "uint256"
        }
      ],
      "name": "approveSale",
      "outputs": [],
      "stateMutability": "nonpayable",
      "type": "function"
    },
    {
      "inputs": [
        {
          "internalType": "address",
          "name": "token_",
          "type": "address"
        }
      ],
      "name": "blacklistToken",
      "outputs": [],
      "stateMutability": "nonpayable",
      "type": "function"
    },
    {
      "inputs": [
        {
          "internalType": "address",
          "name": "collection_",
          "type": "address"
        },
        {
          "internalType": "uint256",
          "name": "tokenId_",
          "type": "uint256"
        },
        {
          "internalType": "address",
          "name": "paymentToken_",
          "type": "address"
        },
        {
          "internalType": "uint256",
          "name": "price_",
          "type": "uint256"
        },
        {
          "internalType": "address",
          "name": "buyer_",
          "type": "address"
        }
      ],
      "name": "cancelPurchaseProposal",
      "outputs": [],
      "stateMutability": "nonpayable",
      "type": "function"
    },
    {
      "inputs": [
        {
          "internalType": "address",
          "name": "collection_",
          "type": "address"
        },
        {
          "internalType": "uint256",
          "name": "tokenId_",
          "type": "uint256"
        },
        {
          "internalType": "address",
          "name": "paymentToken_",
          "type": "address"
        },
        {
          "internalType": "uint256",
          "name": "price_",
          "type": "uint256"
        },
        {
          "internalType": "address",
          "name": "owner_",
          "type": "address"
        }
      ],
      "name": "cancelSaleProposal",
      "outputs": [],
      "stateMutability": "nonpayable",
      "type": "function"
    },
    {
      "inputs": [],
      "name": "feeCollector",
      "outputs": [
        {
          "internalType": "address",
          "name": "",
          "type": "address"
        }
      ],
      "stateMutability": "view",
      "type": "function"
    },
    {
      "inputs": [
        {
          "internalType": "address",
          "name": "collection_",
          "type": "address"
        },
        {
          "internalType": "uint256",
          "name": "tokenId_",
          "type": "uint256"
        },
        {
          "internalType": "address",
          "name": "paymentToken_",
          "type": "address"
        },
        {
          "internalType": "uint256",
          "name": "price_",
          "type": "uint256"
        },
        {
          "internalType": "address",
          "name": "buyer_",
          "type": "address"
        }
      ],
      "name": "getOpenPurchaseProposal",
      "outputs": [
        {
          "components": [
            {
              "internalType": "address",
              "name": "collection",
              "type": "address"
            },
            {
              "internalType": "uint256",
              "name": "tokenId",
              "type": "uint256"
            },
            {
              "internalType": "address",
              "name": "paymentToken",
              "type": "address"
            },
            {
              "internalType": "uint256",
              "name": "price",
              "type": "uint256"
            },
            {
              "internalType": "address",
              "name": "buyer",
              "type": "address"
            },
            {
              "internalType": "address",
              "name": "beneficiary",
              "type": "address"
            }
          ],
          "internalType": "struct OpenPurchaseProposal",
          "name": "proposal",
          "type": "tuple"
        },
        {
          "internalType": "bytes32",
          "name": "id",
          "type": "bytes32"
        }
      ],
      "stateMutability": "view",
      "type": "function"
    },
    {
      "inputs": [
        {
          "internalType": "bytes32",
          "name": "id_",
          "type": "bytes32"
        }
      ],
      "name": "getOpenPurchaseProposalById",
      "outputs": [
        {
          "components": [
            {
              "internalType": "address",
              "name": "collection",
              "type": "address"
            },
            {
              "internalType": "uint256",
              "name": "tokenId",
              "type": "uint256"
            },
            {
              "internalType": "address",
              "name": "paymentToken",
              "type": "address"
            },
            {
              "internalType": "uint256",
              "name": "price",
              "type": "uint256"
            },
            {
              "internalType": "address",
              "name": "buyer",
              "type": "address"
            },
            {
              "internalType": "address",
              "name": "beneficiary",
              "type": "address"
            }
          ],
          "internalType": "struct OpenPurchaseProposal",
          "name": "proposal",
          "type": "tuple"
        }
      ],
      "stateMutability": "view",
      "type": "function"
    },
    {
      "inputs": [
        {
          "internalType": "address",
          "name": "collection_",
          "type": "address"
        },
        {
          "internalType": "uint256",
          "name": "tokenId_",
          "type": "uint256"
        },
        {
          "internalType": "address",
          "name": "paymentToken_",
          "type": "address"
        },
        {
          "internalType": "uint256",
          "name": "price_",
          "type": "uint256"
        },
        {
          "internalType": "address",
          "name": "owner_",
          "type": "address"
        }
      ],
      "name": "getOpenSaleProposal",
      "outputs": [
        {
          "components": [
            {
              "internalType": "address",
              "name": "collection",
              "type": "address"
            },
            {
              "internalType": "uint256",
              "name": "tokenId",
              "type": "uint256"
            },
            {
              "internalType": "address",
              "name": "paymentToken",
              "type": "address"
            },
            {
              "internalType": "uint256",
              "name": "price",
              "type": "uint256"
            },
            {
              "internalType": "address",
              "name": "owner",
              "type": "address"
            },
            {
              "internalType": "address",
              "name": "beneficiary",
              "type": "address"
            }
          ],
          "internalType": "struct OpenSaleProposal",
          "name": "proposal",
          "type": "tuple"
        },
        {
          "internalType": "bytes32",
          "name": "id",
          "type": "bytes32"
        }
      ],
      "stateMutability": "view",
      "type": "function"
    },
    {
      "inputs": [
        {
          "internalType": "bytes32",
          "name": "id_",
          "type": "bytes32"
        }
      ],
      "name": "getOpenSaleProposalById",
      "outputs": [
        {
          "components": [
            {
              "internalType": "address",
              "name": "collection",
              "type": "address"
            },
            {
              "internalType": "uint256",
              "name": "tokenId",
              "type": "uint256"
            },
            {
              "internalType": "address",
              "name": "paymentToken",
              "type": "address"
            },
            {
              "internalType": "uint256",
              "name": "price",
              "type": "uint256"
            },
            {
              "internalType": "address",
              "name": "owner",
              "type": "address"
            },
            {
              "internalType": "address",
              "name": "beneficiary",
              "type": "address"
            }
          ],
          "internalType": "struct OpenSaleProposal",
          "name": "proposal",
          "type": "tuple"
        }
      ],
      "stateMutability": "view",
      "type": "function"
    },
    {
      "inputs": [],
      "name": "initialize",
      "outputs": [],
      "stateMutability": "nonpayable",
      "type": "function"
    },
    {
      "inputs": [],
      "name": "owner",
      "outputs": [
        {
          "internalType": "address",
          "name": "",
          "type": "address"
        }
      ],
      "stateMutability": "view",
      "type": "function"
    },
    {
      "inputs": [],
      "name": "protocol",
      "outputs": [
        {
          "internalType": "address",
          "name": "",
          "type": "address"
        }
      ],
      "stateMutability": "view",
      "type": "function"
    },
    {
      "inputs": [],
      "name": "renounceOwnership",
      "outputs": [],
      "stateMutability": "nonpayable",
      "type": "function"
    },
    {
      "inputs": [
        {
          "internalType": "address",
          "name": "newOwner",
          "type": "address"
        }
      ],
      "name": "transferOwnership",
      "outputs": [],
      "stateMutability": "nonpayable",
      "type": "function"
    },
    {
      "inputs": [
        {
          "internalType": "address",
          "name": "newImplementation",
          "type": "address"
        }
      ],
      "name": "upgradeTo",
      "outputs": [],
      "stateMutability": "nonpayable",
      "type": "function"
    },
    {
      "inputs": [
        {
          "internalType": "address",
          "name": "newImplementation",
          "type": "address"
        },
        {
          "internalType": "bytes",
          "name": "data",
          "type": "bytes"
        }
      ],
      "name": "upgradeToAndCall",
      "outputs": [],
      "stateMutability": "payable",
      "type": "function"
    },
    {
      "inputs": [
        {
          "internalType": "address",
          "name": "token_",
          "type": "address"
        }
      ],
      "name": "whitelistToken",
      "outputs": [],
      "stateMutability": "nonpayable",
      "type": "function"
    },
    {
      "inputs": [
        {
          "internalType": "address",
          "name": "",
          "type": "address"
        }
      ],
      "name": "whitelistedTokens",
      "outputs": [
        {
          "internalType": "bool",
          "name": "",
          "type": "bool"
        }
      ],
      "stateMutability": "view",
      "type": "function"
    }
  ],
  "bytecode": "0x60e06040523060601b6080523480156200001857600080fd5b5060405162002a1538038062002a158339810160408190526200003b9162000164565b600154610100900460ff16620000585760015460ff161562000062565b6200006262000123565b620000ca5760405162461bcd60e51b815260206004820152602e60248201527f496e697469616c697a61626c653a20636f6e747261637420697320616c72656160448201526d191e481a5b9a5d1a585b1a5e995960921b606482015260840160405180910390fd5b600154610100900460ff16158015620000ed576001805461ffff19166101011790555b6001600160601b0319606084811b821660a05283901b1660c05280156200011a576001805461ff00191690555b5050506200019b565b60006200013b306200014160201b620015b51760201c565b15905090565b3b151590565b80516001600160a01b03811681146200015f57600080fd5b919050565b6000806040838503121562000177578182fd5b620001828362000147565b9150620001926020840162000147565b90509250929050565b60805160601c60a05160601c60c05160601c612817620001fe600039600081816102210152611fe30152600081816102ab0152818161195b0152611d200152600081816103e50152818161042e01528181610a5a0152610a9a01526128176000f3fe6080604052600436106101145760003560e01c80638da5cb5b116100a0578063e4a9e81011610064578063e4a9e8101461032d578063ebaef4ec1461034d578063f181fb721461037a578063f26369361461039a578063f2fde38b146103ba57600080fd5b80638da5cb5b1461025b578063b97cfb3d14610279578063c415b95c14610299578063daf9c210146102cd578063e12545591461030d57600080fd5b80635dd9abe4116100e75780635dd9abe4146101a55780636247f6f2146101c5578063715018a6146101e55780638129fc1c146101fa5780638ce744261461020f57600080fd5b80633659cfe614610119578063409d255d1461013b57806341bec8371461015b5780634f1ef28614610192575b600080fd5b34801561012557600080fd5b5061013961013436600461216b565b6103da565b005b34801561014757600080fd5b506101396101563660046122c0565b6104ac565b34801561016757600080fd5b5061017b610176366004612262565b6109ff565b6040516101899291906125d5565b60405180910390f35b6101396101a03660046121a3565b610a4f565b3480156101b157600080fd5b506101396101c0366004612262565b610b09565b3480156101d157600080fd5b506101396101e036600461216b565b610c27565b3480156101f157600080fd5b50610139610c5a565b34801561020657600080fd5b50610139610c90565b34801561021b57600080fd5b506102437f000000000000000000000000000000000000000000000000000000000000000081565b6040516001600160a01b039091168152602001610189565b34801561026757600080fd5b5060ca546001600160a01b0316610243565b34801561028557600080fd5b50610139610294366004612262565b610d58565b3480156102a557600080fd5b506102437f000000000000000000000000000000000000000000000000000000000000000081565b3480156102d957600080fd5b506102fd6102e836600461216b565b60006020819052908152604090205460ff1681565b6040519015158152602001610189565b34801561031957600080fd5b5061013961032836600461216b565b610e69565b34801561033957600080fd5b506101396103483660046122c0565b610e9c565b34801561035957600080fd5b5061036d61036836600461235a565b61134f565b60405161018991906125c7565b34801561038657600080fd5b5061036d61039536600461235a565b611414565b3480156103a657600080fd5b5061017b6103b5366004612262565b6114d9565b3480156103c657600080fd5b506101396103d536600461216b565b61151d565b306001600160a01b037f000000000000000000000000000000000000000000000000000000000000000016141561042c5760405162461bcd60e51b8152600401610423906124af565b60405180910390fd5b7f00000000000000000000000000000000000000000000000000000000000000006001600160a01b031661045e6115bb565b6001600160a01b0316146104845760405162461bcd60e51b8152600401610423906124fb565b61048d816115e9565b604080516000808252602082019092526104a991839190611613565b50565b6002805414156104fe5760405162461bcd60e51b815260206004820152601f60248201527f5265656e7472616e637947756172643a207265656e7472616e742063616c6c006044820152606401610423565b600280556001600160a01b03851660009081526020819052604090205460ff1661055f5760405162461bcd60e51b81526020600482015260126024820152712737b716b0b8383937bb32b2103a37b5b2b760711b6044820152606401610423565b6040516331a9108f60e11b81526004810187905233906001600160a01b03891690636352211e9060240160206040518083038186803b1580156105a157600080fd5b505afa1580156105b5573d6000803e3d6000fd5b505050506040513d601f19601f820116820180604052508101906105d99190612187565b6001600160a01b0316146106285760405162461bcd60e51b81526020600482015260166024820152754f6e6c79206f776e65722063616e20617070726f766560501b6044820152606401610423565b6000878787873360405160200161064395949392919061244c565b60408051601f19818403018152919052805160209091012090506001600160a01b038316156108b9576000888888888760405160200161068795949392919061244c565b60408051601f198184030181529181528151602092830120600081815260fd909352912060030154909150156108b757600081815260fd6020908152604091829020825160c08101845281546001600160a01b039081168252600183015493820193909352600282015483169381019390935260038101546060840181905260048201548316608085015260059091015490911660a083015287116108b557600082815260ff6020526040902054610742908290888a61175e565b1561085a57600082815260fd6020908152604080832080546001600160a01b031990811682556001820185905560028201805482169055600382018590556004820180548216905560059091018054909116905560ff825280832083905585835260fc9091529020546001600160a01b03161561081157600083815260fc6020908152604080832080546001600160a01b031990811682556001820185905560028201805482169055600382018590556004820180548216905560059091018054909116905560fe9091528120555b7f3959dfa16ba45a84bd4fe6edc9e37e2773163d9d059d2def9c7b4a90debbe00a33868c8c8c8c60405161084a969594939291906123ed565b60405180910390a15050506109f1565b600083815260fd6020908152604080832080546001600160a01b031990811682556001820185905560028201805482169055600382018590556004820180548216905560059091018054909116905584835260ff9091528120555b505b505b6040805160c0810182526001600160a01b038a8116825260208083018b81528a8316848601908152606085018b815233608087019081528b861660a0880190815260008a815260fc90965297909420955186546001600160a01b0319908116918716919091178755925160018701559051600286018054841691861691909117905551600385015590516004840180548316918416919091179055925160059092018054909316911617905561096f82426125f0565b600082815260fe60205260409020557f070f09923d64e100ad99608e2af60d7f7191227e891dd1b6d5c9d61d9b0cae9933898989896109ae88426125f0565b604080516001600160a01b039788168152958716602087015285019390935293166060830152608082019290925260a081019190915260c00160405180910390a1505b505060016002555050505050565b610a07612136565b60008686868686604051602001610a2295949392919061244c565b604051602081830303815290604052805190602001209050610a4381611414565b91509550959350505050565b306001600160a01b037f0000000000000000000000000000000000000000000000000000000000000000161415610a985760405162461bcd60e51b8152600401610423906124af565b7f00000000000000000000000000000000000000000000000000000000000000006001600160a01b0316610aca6115bb565b6001600160a01b031614610af05760405162461bcd60e51b8152600401610423906124fb565b610af9826115e9565b610b0582826001611613565b5050565b600080610b1987878787876109ff565b608082015191935091506001600160a01b03163314610b725760405162461bcd60e51b815260206004820152601560248201527413db9b1e48189d5e595c8818d85b8818d85b98d95b605a1b6044820152606401610423565b600081815260fd6020908152604080832080546001600160a01b031990811682556001820185905560028201805482169055600382018590556004820180548216905560059091018054909116905560ff82528083209290925581513381526001600160a01b03808b1692820192909252918201889052861660608201527f281f1f5ca7fc0a1512116115d989698208820236a6395666502a472d9cd62980906080015b60405180910390a150505050505050565b60ca546001600160a01b03163314610c515760405162461bcd60e51b815260040161042390612547565b6104a981611a48565b60ca546001600160a01b03163314610c845760405162461bcd60e51b815260040161042390612547565b610c8e6000611a94565b565b600154610100900460ff16610cab5760015460ff1615610caf565b303b155b610d125760405162461bcd60e51b815260206004820152602e60248201527f496e697469616c697a61626c653a20636f6e747261637420697320616c72656160448201526d191e481a5b9a5d1a585b1a5e995960921b6064820152608401610423565b600154610100900460ff16158015610d34576001805461ffff19166101011790555b610d3c611ae6565b610d44611b1d565b80156104a9576001805461ff001916905550565b600080610d6887878787876114d9565b608082015191935091506001600160a01b03163314610dc15760405162461bcd60e51b815260206004820152601560248201527413db9b1e481bdddb995c8818d85b8818d85b98d95b605a1b6044820152606401610423565b600081815260fc6020908152604080832080546001600160a01b031990811682556001820185905560028201805482169055600382018590556004820180548216905560059091018054909116905560fe82528083209290925581513381526001600160a01b03808b1692820192909252918201889052861660608201527ffb6e65910f0811fe7aff693844640571ca7e71936c1adf8203f8c14a9d7a1c3c90608001610c16565b60ca546001600160a01b03163314610e935760405162461bcd60e51b815260040161042390612547565b6104a981611b54565b600280541415610eee5760405162461bcd60e51b815260206004820152601f60248201527f5265656e7472616e637947756172643a207265656e7472616e742063616c6c006044820152606401610423565b600280556001600160a01b03851660009081526020819052604090205460ff16610f4f5760405162461bcd60e51b81526020600482015260126024820152712737b716b0b8383937bb32b2103a37b5b2b760711b6044820152606401610423565b6040516370a0823160e01b815233600482015284906001600160a01b038716906370a082319060240160206040518083038186803b158015610f9057600080fd5b505afa158015610fa4573d6000803e3d6000fd5b505050506040513d601f19601f82011682018060405250810190610fc89190612372565b101561100b5760405162461bcd60e51b81526020600482015260126024820152714e6f7420656e6f7567682062616c616e636560701b6044820152606401610423565b6000878787873360405160200161102695949392919061244c565b604051602081830303815290604052805190602001209050600085116110815760405162461bcd60e51b815260206004820152601060248201526f050726963652063616e277420626520360841b6044820152606401610423565b6001600160a01b0383161561125a57600088888888876040516020016110ab95949392919061244c565b60408051601f198184030181529181528151602092830120600081815260fc9093529120600301549091501561125857600081815260fc6020908152604091829020825160c08101845281546001600160a01b039081168252600183015493820193909352600282015483169381019390935260038101546060840181905260048201548316608085015260059091015490911660a0830152871061125657600082815260fe6020526040902054611166908290888a611b9d565b156111fe57600082815260fc6020908152604080832080546001600160a01b031990811682556001820185905560028201805482169055600382018590556004820180548216905560059091018054909116905560fe90915280822091909155517fee02277bfba3b2d67692c79305782c19b5c743868ba23b21788b88941e047ba49061084a90339088908e908e908e908e906123ed565b600082815260fc6020908152604080832080546001600160a01b031990811682556001820185905560028201805482169055600382018590556004820180548216905560059091018054909116905560fe9091528120555b505b505b6040805160c0810182526001600160a01b038a8116825260208083018b81528a8316848601908152606085018b815233608087019081528b861660a0880190815260008a815260fd90965297909420955186546001600160a01b0319908116918716919091178755925160018701559051600286018054841691861691909117905551600385015590516004840180548316918416919091179055925160059092018054909316911617905561131082426125f0565b600082815260ff60205260409020557f669e333a3c2d81b6f65c72f248f06960793ee04fb152916ed956d5ee8250f5ca33898989896109ae88426125f0565b611357612136565b600082815260fc60205260409020600301546113ad5760405162461bcd60e51b8152602060048201526015602482015274139bdb8b595e1a5cdd195b9d081c1c9bdc1bdcd85b605a1b6044820152606401610423565b50600090815260fc6020908152604091829020825160c08101845281546001600160a01b039081168252600183015493820193909352600282015483169381019390935260038101546060840152600481015482166080840152600501541660a082015290565b61141c612136565b600082815260fd60205260409020600301546114725760405162461bcd60e51b8152602060048201526015602482015274139bdb8b595e1a5cdd195b9d081c1c9bdc1bdcd85b605a1b6044820152606401610423565b50600090815260fd6020908152604091829020825160c08101845281546001600160a01b039081168252600183015493820193909352600282015483169381019390935260038101546060840152600481015482166080840152600501541660a082015290565b6114e1612136565b600086868686866040516020016114fc95949392919061244c565b604051602081830303815290604052805190602001209050610a438161134f565b60ca546001600160a01b031633146115475760405162461bcd60e51b815260040161042390612547565b6001600160a01b0381166115ac5760405162461bcd60e51b815260206004820152602660248201527f4f776e61626c653a206e6577206f776e657220697320746865207a65726f206160448201526564647265737360d01b6064820152608401610423565b6104a981611a94565b3b151590565b7f360894a13ba1a3210667c828492db98dca3e2076cc3735a920a3ca505d382bbc546001600160a01b031690565b60ca546001600160a01b031633146104a95760405162461bcd60e51b815260040161042390612547565b600061161d6115bb565b905061162884611e0c565b6000835111806116355750815b15611646576116448484611eb1565b505b7f4910fdfa16fed3260ed0e7147f7cc6da11a60208b5b9406d12a635614ffd9143805460ff1661175757805460ff191660011781556040516001600160a01b03831660248201526116c590869060440160408051601f198184030181529190526020810180516001600160e01b0316631b2ce7f360e11b179052611eb1565b50805460ff191681556116d66115bb565b6001600160a01b0316826001600160a01b03161461174e5760405162461bcd60e51b815260206004820152602f60248201527f45524331393637557067726164653a207570677261646520627265616b73206660448201526e75727468657220757067726164657360881b6064820152608401610423565b61175785611f9e565b5050505050565b60008342111561177057506000611a40565b600061177b83611fde565b60408088015160808901519151636eb1769f60e11b81526001600160a01b03928316600482015230602482015292935060009291169063dd62ed3e9060440160206040518083038186803b1580156117d257600080fd5b505afa1580156117e6573d6000803e3d6000fd5b505050506040513d601f19601f8201168201806040525081019061180a9190612372565b905061181682856125f0565b81101561182857600092505050611a40565b86604001516001600160a01b03166323b872dd886080015187858861184d9190612732565b6040518463ffffffff1660e01b815260040161186b93929190612428565b602060405180830381600087803b15801561188557600080fd5b505af19250505080156118b5575060408051601f3d908101601f191682019092526118b29181019061233a565b60015b6118c457600092505050611a40565b806118d55760009350505050611a40565b50865160a088015160208901516040516323b872dd60e01b81526001600160a01b03909316926323b872dd9261190f923392600401612428565b600060405180830381600087803b15801561192957600080fd5b505af115801561193d573d6000803e3d6000fd5b5050505086604001516001600160a01b03166323b872dd88608001517f00000000000000000000000000000000000000000000000000000000000000008560026119879190612713565b6040518463ffffffff1660e01b81526004016119a593929190612428565b602060405180830381600087803b1580156119bf57600080fd5b505af11580156119d3573d6000803e3d6000fd5b505050506040513d601f19601f820116820180604052508101906119f7919061233a565b611a395760405162461bcd60e51b81526020600482015260136024820152724661696c20746f20706179207468652066656560681b6044820152606401610423565b6001925050505b949350505050565b6001600160a01b038116600081815260208190526040808220805460ff19166001179055517feb73900b98b6a3e2b8b01708fe544760cf570d21e7fbe5225f24e48b5b2b432e9190a250565b60ca80546001600160a01b038381166001600160a01b0319831681179093556040519116919082907f8be0079c531659141344cd1fd0a4f28419497f9722a3daafe3b4186f6b6457e090600090a35050565b600154610100900460ff16611b0d5760405162461bcd60e51b81526004016104239061257c565b611b156120a6565b610c8e6120cd565b600154610100900460ff16611b445760405162461bcd60e51b81526004016104239061257c565b611b4c6120a6565b610c8e6120a6565b6001600160a01b038116600081815260208190526040808220805460ff19169055517f7811ed4e4b787e4f0f046ffb4a5ec1e064b0eb6d191ffabb66270ed8be89b3259190a250565b600083421115611baf57506000611a40565b8451608086015160208701516040516323b872dd60e01b81526001600160a01b03909316926323b872dd92611beb929091889190600401612428565b600060405180830381600087803b158015611c0557600080fd5b505af1925050508015611c16575060015b611c2257506000611a40565b6000611c2d83611fde565b905085604001516001600160a01b03166323b872dd338860a001518487611c549190612732565b6040518463ffffffff1660e01b8152600401611c7293929190612428565b602060405180830381600087803b158015611c8c57600080fd5b505af1158015611ca0573d6000803e3d6000fd5b505050506040513d601f19601f82011682018060405250810190611cc4919061233a565b611d0a5760405162461bcd60e51b815260206004820152601760248201527611985a5b081d1bc81d1c985b9cd9995c88185b5bdd5b9d604a1b6044820152606401610423565b60408601516001600160a01b03166323b872dd337f0000000000000000000000000000000000000000000000000000000000000000611d4a856002612713565b6040518463ffffffff1660e01b8152600401611d6893929190612428565b602060405180830381600087803b158015611d8257600080fd5b505af1158015611d96573d6000803e3d6000fd5b505050506040513d601f19601f82011682018060405250810190611dba919061233a565b611e005760405162461bcd60e51b815260206004820152601760248201527611985a5b081d1bc81d1c985b9cd9995c88185b5bdd5b9d604a1b6044820152606401610423565b50506001949350505050565b803b611e705760405162461bcd60e51b815260206004820152602d60248201527f455243313936373a206e657720696d706c656d656e746174696f6e206973206e60448201526c1bdd08184818dbdb9d1c9858dd609a1b6064820152608401610423565b7f360894a13ba1a3210667c828492db98dca3e2076cc3735a920a3ca505d382bbc80546001600160a01b0319166001600160a01b0392909216919091179055565b6060823b611f105760405162461bcd60e51b815260206004820152602660248201527f416464726573733a2064656c65676174652063616c6c20746f206e6f6e2d636f6044820152651b9d1c9858dd60d21b6064820152608401610423565b600080846001600160a01b031684604051611f2b91906123d1565b600060405180830381855af49150503d8060008114611f66576040519150601f19603f3d011682016040523d82523d6000602084013e611f6b565b606091505b5091509150611f9382826040518060600160405280602781526020016127bb602791396120fd565b925050505b92915050565b611fa781611e0c565b6040516001600160a01b038216907fbc7cd75a20ee27fd9adebab32041f755214dbc6bffa90cc0225b39da2e5c2d3b90600090a250565b6000807f00000000000000000000000000000000000000000000000000000000000000006001600160a01b031663b0e21e8a6040518163ffffffff1660e01b815260040160206040518083038186803b15801561203a57600080fd5b505afa15801561204e573d6000803e3d6000fd5b505050506040513d601f19601f820116820180604052508101906120729190612372565b90506120806002600a61266b565b61208b906064612713565b6120958285612713565b61209f9190612608565b9392505050565b600154610100900460ff16610c8e5760405162461bcd60e51b81526004016104239061257c565b600154610100900460ff166120f45760405162461bcd60e51b81526004016104239061257c565b610c8e33611a94565b6060831561210c57508161209f565b82511561211c5782518084602001fd5b8160405162461bcd60e51b8152600401610423919061247c565b6040805160c081018252600080825260208201819052918101829052606081018290526080810182905260a081019190915290565b60006020828403121561217c578081fd5b813561209f816127a5565b600060208284031215612198578081fd5b815161209f816127a5565b600080604083850312156121b5578081fd5b82356121c0816127a5565b9150602083013567ffffffffffffffff808211156121dc578283fd5b818501915085601f8301126121ef578283fd5b8135818111156122015761220161278f565b604051601f8201601f19908116603f011681019083821181831017156122295761222961278f565b81604052828152886020848701011115612241578586fd5b82602086016020830137856020848301015280955050505050509250929050565b600080600080600060a08688031215612279578081fd5b8535612284816127a5565b945060208601359350604086013561229b816127a5565b92506060860135915060808601356122b2816127a5565b809150509295509295909350565b600080600080600080600060e0888a0312156122da578182fd5b87356122e5816127a5565b96506020880135955060408801356122fc816127a5565b9450606088013593506080880135612313816127a5565b925060a0880135612323816127a5565b8092505060c0880135905092959891949750929550565b60006020828403121561234b578081fd5b8151801515811461209f578182fd5b60006020828403121561236b578081fd5b5035919050565b600060208284031215612383578081fd5b5051919050565b80516001600160a01b039081168352602080830151908401526040808301518216908401526060808301519084015260808083015182169084015260a09182015116910152565b600082516123e3818460208701612749565b9190910192915050565b6001600160a01b039687168152948616602086015292851660408501526060840191909152909216608082015260a081019190915260c00190565b6001600160a01b039384168152919092166020820152604081019190915260600190565b6001600160a01b039586168152602081019490945291841660408401526060830152909116608082015260a00190565b602081526000825180602084015261249b816040850160208701612749565b601f01601f19169190910160400192915050565b6020808252602c908201527f46756e6374696f6e206d7573742062652063616c6c6564207468726f7567682060408201526b19195b1959d85d1958d85b1b60a21b606082015260800190565b6020808252602c908201527f46756e6374696f6e206d7573742062652063616c6c6564207468726f7567682060408201526b6163746976652070726f787960a01b606082015260800190565b6020808252818101527f4f776e61626c653a2063616c6c6572206973206e6f7420746865206f776e6572604082015260600190565b6020808252602b908201527f496e697469616c697a61626c653a20636f6e7472616374206973206e6f74206960408201526a6e697469616c697a696e6760a81b606082015260800190565b60c08101611f98828461238a565b60e081016125e3828561238a565b8260c08301529392505050565b6000821982111561260357612603612779565b500190565b60008261262357634e487b7160e01b81526012600452602481fd5b500490565b600181815b8085111561266357816000190482111561264957612649612779565b8085161561265657918102915b93841c939080029061262d565b509250929050565b600061209f838360008261268157506001611f98565b8161268e57506000611f98565b81600181146126a457600281146126ae576126ca565b6001915050611f98565b60ff8411156126bf576126bf612779565b50506001821b611f98565b5060208310610133831016604e8410600b84101617156126ed575081810a611f98565b6126f78383612628565b806000190482111561270b5761270b612779565b029392505050565b600081600019048311821515161561272d5761272d612779565b500290565b60008282101561274457612744612779565b500390565b60005b8381101561276457818101518382015260200161274c565b83811115612773576000848401525b50505050565b634e487b7160e01b600052601160045260246000fd5b634e487b7160e01b600052604160045260246000fd5b6001600160a01b03811681146104a957600080fdfe416464726573733a206c6f772d6c6576656c2064656c65676174652063616c6c206661696c6564a2646970667358221220e51a4fb48140cbeb1c6148ab888690ca1f5394f133e1d92e80fb09f6a954808a64736f6c63430008040033",
  "linkReferences": {},
  "deployedLinkReferences": {}
}