{
  "contractName": "StakingERC721",
  "abi": [
    {
      "inputs": [],
      "stateMutability": "nonpayable",
      "type": "constructor"
    },
    {
      "anonymous": false,
      "inputs": [
        {
          "indexed": true,
          "internalType": "address",
          "name": "owner",
          "type": "address"
        },
        {
          "indexed": true,
          "internalType": "address",
          "name": "approved",
          "type": "address"
        },
        {
          "indexed": true,
          "internalType": "uint256",
          "name": "tokenId",
          "type": "uint256"
        }
      ],
      "name": "Approval",
      "type": "event"
    },
    {
      "anonymous": false,
      "inputs": [
        {
          "indexed": true,
          "internalType": "address",
          "name": "owner",
          "type": "address"
        },
        {
          "indexed": true,
          "internalType": "address",
          "name": "operator",
          "type": "address"
        },
        {
          "indexed": false,
          "internalType": "bool",
          "name": "approved",
          "type": "bool"
        }
      ],
      "name": "ApprovalForAll",
      "type": "event"
    },
    {
      "anonymous": false,
      "inputs": [
        {
          "indexed": true,
          "internalType": "address",
          "name": "from",
          "type": "address"
        },
        {
          "indexed": true,
          "internalType": "address",
          "name": "to",
          "type": "address"
        },
        {
          "indexed": true,
          "internalType": "uint256",
          "name": "tokenId",
          "type": "uint256"
        }
      ],
      "name": "Transfer",
      "type": "event"
    },
    {
      "inputs": [
        {
          "internalType": "address",
          "name": "to",
          "type": "address"
        },
        {
          "internalType": "uint256",
          "name": "tokenId",
          "type": "uint256"
        }
      ],
      "name": "approve",
      "outputs": [],
      "stateMutability": "nonpayable",
      "type": "function"
    },
    {
      "inputs": [
        {
          "internalType": "address",
          "name": "owner",
          "type": "address"
        }
      ],
      "name": "balanceOf",
      "outputs": [
        {
          "internalType": "uint256",
          "name": "",
          "type": "uint256"
        }
      ],
      "stateMutability": "view",
      "type": "function",
      "constant": true
    },
    {
      "inputs": [
        {
          "internalType": "uint256",
          "name": "tokenId",
          "type": "uint256"
        }
      ],
      "name": "getApproved",
      "outputs": [
        {
          "internalType": "address",
          "name": "",
          "type": "address"
        }
      ],
      "stateMutability": "view",
      "type": "function",
      "constant": true
    },
    {
      "inputs": [
        {
          "internalType": "address",
          "name": "owner",
          "type": "address"
        },
        {
          "internalType": "address",
          "name": "operator",
          "type": "address"
        }
      ],
      "name": "isApprovedForAll",
      "outputs": [
        {
          "internalType": "bool",
          "name": "",
          "type": "bool"
        }
      ],
      "stateMutability": "view",
      "type": "function",
      "constant": true
    },
    {
      "inputs": [
        {
          "internalType": "uint256",
          "name": "tokenId",
          "type": "uint256"
        }
      ],
      "name": "ownerOf",
      "outputs": [
        {
          "internalType": "address",
          "name": "",
          "type": "address"
        }
      ],
      "stateMutability": "view",
      "type": "function",
      "constant": true
    },
    {
      "inputs": [
        {
          "internalType": "address",
          "name": "from",
          "type": "address"
        },
        {
          "internalType": "address",
          "name": "to",
          "type": "address"
        },
        {
          "internalType": "uint256",
          "name": "tokenId",
          "type": "uint256"
        }
      ],
      "name": "safeTransferFrom",
      "outputs": [],
      "stateMutability": "nonpayable",
      "type": "function"
    },
    {
      "inputs": [
        {
          "internalType": "address",
          "name": "from",
          "type": "address"
        },
        {
          "internalType": "address",
          "name": "to",
          "type": "address"
        },
        {
          "internalType": "uint256",
          "name": "tokenId",
          "type": "uint256"
        },
        {
          "internalType": "bytes",
          "name": "_data",
          "type": "bytes"
        }
      ],
      "name": "safeTransferFrom",
      "outputs": [],
      "stateMutability": "nonpayable",
      "type": "function"
    },
    {
      "inputs": [
        {
          "internalType": "address",
          "name": "operator",
          "type": "address"
        },
        {
          "internalType": "bool",
          "name": "approved",
          "type": "bool"
        }
      ],
      "name": "setApprovalForAll",
      "outputs": [],
      "stateMutability": "nonpayable",
      "type": "function"
    },
    {
      "inputs": [
        {
          "internalType": "bytes4",
          "name": "interfaceId",
          "type": "bytes4"
        }
      ],
      "name": "supportsInterface",
      "outputs": [
        {
          "internalType": "bool",
          "name": "",
          "type": "bool"
        }
      ],
      "stateMutability": "view",
      "type": "function",
      "constant": true
    },
    {
      "inputs": [
        {
          "internalType": "uint256",
          "name": "tokenId",
          "type": "uint256"
        }
      ],
      "name": "tokenURI",
      "outputs": [
        {
          "internalType": "string",
          "name": "",
          "type": "string"
        }
      ],
      "stateMutability": "view",
      "type": "function",
      "constant": true
    },
    {
      "inputs": [
        {
          "internalType": "address",
          "name": "from",
          "type": "address"
        },
        {
          "internalType": "address",
          "name": "to",
          "type": "address"
        },
        {
          "internalType": "uint256",
          "name": "tokenId",
          "type": "uint256"
        }
      ],
      "name": "transferFrom",
      "outputs": [],
      "stateMutability": "nonpayable",
      "type": "function"
    },
    {
      "inputs": [
        {
          "internalType": "string",
          "name": "_name",
          "type": "string"
        },
        {
          "internalType": "string",
          "name": "_symbol",
          "type": "string"
        }
      ],
      "name": "initialize",
      "outputs": [],
      "stateMutability": "nonpayable",
      "type": "function"
    },
    {
      "inputs": [],
      "name": "name",
      "outputs": [
        {
          "internalType": "string",
          "name": "",
          "type": "string"
        }
      ],
      "stateMutability": "view",
      "type": "function",
      "constant": true
    },
    {
      "inputs": [],
      "name": "symbol",
      "outputs": [
        {
          "internalType": "string",
          "name": "",
          "type": "string"
        }
      ],
      "stateMutability": "view",
      "type": "function",
      "constant": true
    },
    {
      "inputs": [
        {
          "internalType": "address",
          "name": "to",
          "type": "address"
        },
        {
          "internalType": "uint256",
          "name": "stakeAmount",
          "type": "uint256"
        },
        {
          "internalType": "uint256",
          "name": "totalShares",
          "type": "uint256"
        }
      ],
      "name": "createPosition",
      "outputs": [
        {
          "internalType": "uint256",
          "name": "id",
          "type": "uint256"
        }
      ],
      "stateMutability": "nonpayable",
      "type": "function"
    },
    {
      "inputs": [
        {
          "internalType": "address",
          "name": "owner",
          "type": "address"
        }
      ],
      "name": "getPositions",
      "outputs": [
        {
          "internalType": "uint256[]",
          "name": "",
          "type": "uint256[]"
        }
      ],
      "stateMutability": "view",
      "type": "function",
      "constant": true
    },
    {
      "inputs": [
        {
          "internalType": "uint256",
          "name": "id",
          "type": "uint256"
        }
      ],
      "name": "getPosition",
      "outputs": [
        {
          "internalType": "uint256",
          "name": "stake",
          "type": "uint256"
        },
        {
          "internalType": "uint256",
          "name": "totalShares",
          "type": "uint256"
        }
      ],
      "stateMutability": "view",
      "type": "function",
      "constant": true
    },
    {
      "inputs": [
        {
          "internalType": "uint256",
          "name": "id",
          "type": "uint256"
        },
        {
          "internalType": "address",
          "name": "owner",
          "type": "address"
        },
        {
          "internalType": "uint256",
          "name": "amount",
          "type": "uint256"
        },
        {
          "internalType": "uint256",
          "name": "totalShares",
          "type": "uint256"
        }
      ],
      "name": "decreasePosition",
      "outputs": [],
      "stateMutability": "nonpayable",
      "type": "function"
    },
    {
      "inputs": [
        {
          "internalType": "uint256",
          "name": "id",
          "type": "uint256"
        },
        {
          "internalType": "address",
          "name": "owner",
          "type": "address"
        },
        {
          "internalType": "uint256",
          "name": "totalShares",
          "type": "uint256"
        }
      ],
      "name": "setPositionTotalShares",
      "outputs": [],
      "stateMutability": "nonpayable",
      "type": "function"
    },
    {
      "inputs": [
        {
          "internalType": "uint256",
          "name": "id",
          "type": "uint256"
        },
        {
          "internalType": "uint256",
          "name": "totalAccumulatedShares",
          "type": "uint256"
        }
      ],
      "name": "calculateReward",
      "outputs": [
        {
          "internalType": "uint256",
          "name": "reward",
          "type": "uint256"
        }
      ],
      "stateMutability": "view",
      "type": "function",
      "constant": true
    }
  ],
  "bytecode": "0x60806040523480156200001157600080fd5b50604051806020016040528060008152506040518060200160405280600081525081600090805190602001906200004a9291906200006c565b508060019080519060200190620000639291906200006c565b50505062000181565b8280546200007a906200011c565b90600052602060002090601f0160209004810192826200009e5760008555620000ea565b82601f10620000b957805160ff1916838001178555620000ea565b82800160010185558215620000ea579182015b82811115620000e9578251825591602001919060010190620000cc565b5b509050620000f99190620000fd565b5090565b5b8082111562000118576000816000905550600101620000fe565b5090565b600060028204905060018216806200013557607f821691505b602082108114156200014c576200014b62000152565b5b50919050565b7f4e487b7100000000000000000000000000000000000000000000000000000000600052602260045260246000fd5b61352180620001916000396000f3fe608060405234801561001057600080fd5b506004361061012c5760003560e01c80636352211e116100ad578063a22cb46511610071578063a22cb46514610365578063b88d4fde14610381578063c87b56dd1461039d578063e985e9c5146103cd578063eb02c301146103fd5761012c565b80636352211e1461029b57806370a08231146102cb57806375a08cce146102fb57806395d89b411461032b578063a0d96435146103495761012c565b806323b872dd116100f457806323b872dd146101fb57806336043462146102175780633eeb530e1461023357806342842e0e146102635780634cd88b761461027f5761012c565b806301ffc9a71461013157806306fdde0314610161578063081812fc1461017f578063095ea7b3146101af57806313ed0846146101cb575b600080fd5b61014b600480360381019061014691906122aa565b61042e565b60405161015891906128d5565b60405180910390f35b610169610510565b60405161017691906128f0565b60405180910390f35b6101996004803603810190610194919061237c565b6105a2565b6040516101a6919061284c565b60405180910390f35b6101c960048036038101906101c49190612217565b610627565b005b6101e560048036038101906101e09190612463565b61073f565b6040516101f29190612b12565b60405180910390f35b61021560048036038101906102109190612101565b61079f565b005b610231600480360381019061022c91906123fc565b6107ff565b005b61024d60048036038101906102489190612094565b610add565b60405161025a91906128b3565b60405180910390f35b61027d60048036038101906102789190612101565b610b74565b005b61029960048036038101906102949190612304565b610b94565b005b6102b560048036038101906102b0919061237c565b610ca2565b6040516102c2919061284c565b60405180910390f35b6102e560048036038101906102e09190612094565b610d54565b6040516102f29190612b12565b60405180910390f35b61031560048036038101906103109190612257565b610e0c565b6040516103229190612b12565b60405180910390f35b610333610ed1565b60405161034091906128f0565b60405180910390f35b610363600480360381019061035e91906123a9565b610f63565b005b61037f600480360381019061037a91906121d7565b610ff9565b005b61039b60048036038101906103969190612154565b61117a565b005b6103b760048036038101906103b2919061237c565b6111dc565b6040516103c491906128f0565b60405180910390f35b6103e760048036038101906103e291906120c1565b611283565b6040516103f491906128d5565b60405180910390f35b6104176004803603810190610412919061237c565b611317565b604051610425929190612b2d565b60405180910390f35b60007f80ac58cd000000000000000000000000000000000000000000000000000000007bffffffffffffffffffffffffffffffffffffffffffffffffffffffff1916827bffffffffffffffffffffffffffffffffffffffffffffffffffffffff191614806104f957507f5b5e139f000000000000000000000000000000000000000000000000000000007bffffffffffffffffffffffffffffffffffffffffffffffffffffffff1916827bffffffffffffffffffffffffffffffffffffffffffffffffffffffff1916145b80610509575061050882611351565b5b9050919050565b60606007805461051f90612e24565b80601f016020809104026020016040519081016040528092919081815260200182805461054b90612e24565b80156105985780601f1061056d57610100808354040283529160200191610598565b820191906000526020600020905b81548152906001019060200180831161057b57829003601f168201915b5050505050905090565b60006105ad826113bb565b6105ec576040517f08c379a00000000000000000000000000000000000000000000000000000000081526004016105e390612a72565b60405180910390fd5b6004600083815260200190815260200160002060009054906101000a900473ffffffffffffffffffffffffffffffffffffffff169050919050565b600061063282610ca2565b90508073ffffffffffffffffffffffffffffffffffffffff168373ffffffffffffffffffffffffffffffffffffffff1614156106a3576040517f08c379a000000000000000000000000000000000000000000000000000000000815260040161069a90612ad2565b60405180910390fd5b8073ffffffffffffffffffffffffffffffffffffffff166106c2611427565b73ffffffffffffffffffffffffffffffffffffffff1614806106f157506106f0816106eb611427565b611283565b5b610730576040517f08c379a0000000000000000000000000000000000000000000000000000000008152600401610727906129d2565b60405180910390fd5b61073a838361142f565b505050565b6000670de0b6b3a7640000600a600085815260200190815260200160002060000154600a600086815260200190815260200160002060010154846107839190612d3a565b61078d9190612ce0565b6107979190612caf565b905092915050565b6107b06107aa611427565b826114e8565b6107ef576040517f08c379a00000000000000000000000000000000000000000000000000000000081526004016107e690612af2565b60405180910390fd5b6107fa8383836115c6565b505050565b8273ffffffffffffffffffffffffffffffffffffffff1661081f85610ca2565b73ffffffffffffffffffffffffffffffffffffffff1614610875576040517f08c379a000000000000000000000000000000000000000000000000000000000815260040161086c90612912565b60405180910390fd5b600a600085815260200190815260200160002060000154821415610a8e5761089c84611822565b60005b600b60008573ffffffffffffffffffffffffffffffffffffffff1673ffffffffffffffffffffffffffffffffffffffff16815260200190815260200160002080549050811015610a62576000600b60008673ffffffffffffffffffffffffffffffffffffffff1673ffffffffffffffffffffffffffffffffffffffff1681526020019081526020016000209050858183815481106109405761093f612f8e565b5b90600052602060002001541415610a4e5780600182805490506109639190612d3a565b8154811061097457610973612f8e565b5b9060005260206000200154600b60008773ffffffffffffffffffffffffffffffffffffffff1673ffffffffffffffffffffffffffffffffffffffff16815260200190815260200160002083815481106109d0576109cf612f8e565b5b9060005260206000200181905550600b60008673ffffffffffffffffffffffffffffffffffffffff1673ffffffffffffffffffffffffffffffffffffffff16815260200190815260200160002060018280549050610a2e9190612d3a565b81548110610a3f57610a3e612f8e565b5b90600052602060002001600090555b508080610a5a90612e87565b91505061089f565b50600a600085815260200190815260200160002060008082016000905560018201600090555050610ad7565b81600a60008681526020019081526020016000206000016000828254610ab49190612d3a565b9250508190555080600a6000868152602001908152602001600020600101819055505b50505050565b6060600b60008373ffffffffffffffffffffffffffffffffffffffff1673ffffffffffffffffffffffffffffffffffffffff168152602001908152602001600020805480602002602001604051908101604052809291908181526020018280548015610b6857602002820191906000526020600020905b815481526020019060010190808311610b54575b50505050509050919050565b610b8f8383836040518060200160405280600081525061117a565b505050565b600660019054906101000a900460ff1680610bbc5750600660009054906101000a900460ff16155b610bfb576040517f08c379a0000000000000000000000000000000000000000000000000000000008152600401610bf290612a32565b60405180910390fd5b6000600660019054906101000a900460ff161590508015610c4d576001600660016101000a81548160ff0219169083151502179055506001600660006101000a81548160ff0219169083151502179055505b8260079080519060200190610c63929190611ea8565b508160089080519060200190610c7a929190611ea8565b508015610c9d576000600660016101000a81548160ff0219169083151502179055505b505050565b6000806002600084815260200190815260200160002060009054906101000a900473ffffffffffffffffffffffffffffffffffffffff169050600073ffffffffffffffffffffffffffffffffffffffff168173ffffffffffffffffffffffffffffffffffffffff161415610d4b576040517f08c379a0000000000000000000000000000000000000000000000000000000008152600401610d4290612a12565b60405180910390fd5b80915050919050565b60008073ffffffffffffffffffffffffffffffffffffffff168273ffffffffffffffffffffffffffffffffffffffff161415610dc5576040517f08c379a0000000000000000000000000000000000000000000000000000000008152600401610dbc906129f2565b60405180910390fd5b600360008373ffffffffffffffffffffffffffffffffffffffff1673ffffffffffffffffffffffffffffffffffffffff168152602001908152602001600020549050919050565b6000610e186009611933565b610e226009611949565b9050610e2e8482611957565b82600a60008381526020019081526020016000206000018190555081600a600083815260200190815260200160002060010181905550600b60008573ffffffffffffffffffffffffffffffffffffffff1673ffffffffffffffffffffffffffffffffffffffff1681526020019081526020016000208190806001815401808255809150506001900390600052602060002001600090919091909150559392505050565b606060088054610ee090612e24565b80601f0160208091040260200160405190810160405280929190818152602001828054610f0c90612e24565b8015610f595780601f10610f2e57610100808354040283529160200191610f59565b820191906000526020600020905b815481529060010190602001808311610f3c57829003601f168201915b5050505050905090565b8173ffffffffffffffffffffffffffffffffffffffff16610f8384610ca2565b73ffffffffffffffffffffffffffffffffffffffff1614610fd9576040517f08c379a0000000000000000000000000000000000000000000000000000000008152600401610fd090612912565b60405180910390fd5b80600a600085815260200190815260200160002060010181905550505050565b611001611427565b73ffffffffffffffffffffffffffffffffffffffff168273ffffffffffffffffffffffffffffffffffffffff16141561106f576040517f08c379a000000000000000000000000000000000000000000000000000000000815260040161106690612992565b60405180910390fd5b806005600061107c611427565b73ffffffffffffffffffffffffffffffffffffffff1673ffffffffffffffffffffffffffffffffffffffff16815260200190815260200160002060008473ffffffffffffffffffffffffffffffffffffffff1673ffffffffffffffffffffffffffffffffffffffff16815260200190815260200160002060006101000a81548160ff0219169083151502179055508173ffffffffffffffffffffffffffffffffffffffff16611129611427565b73ffffffffffffffffffffffffffffffffffffffff167f17307eab39ab6107e8899845ad3d59bd9653f200f220920489ca2b5937696c318360405161116e91906128d5565b60405180910390a35050565b61118b611185611427565b836114e8565b6111ca576040517f08c379a00000000000000000000000000000000000000000000000000000000081526004016111c190612af2565b60405180910390fd5b6111d684848484611b25565b50505050565b60606111e7826113bb565b611226576040517f08c379a000000000000000000000000000000000000000000000000000000000815260040161121d90612ab2565b60405180910390fd5b6000611230611b81565b90506000815111611250576040518060200160405280600081525061127b565b8061125a84611b98565b60405160200161126b929190612828565b6040516020818303038152906040525b915050919050565b6000600560008473ffffffffffffffffffffffffffffffffffffffff1673ffffffffffffffffffffffffffffffffffffffff16815260200190815260200160002060008373ffffffffffffffffffffffffffffffffffffffff1673ffffffffffffffffffffffffffffffffffffffff16815260200190815260200160002060009054906101000a900460ff16905092915050565b600080600a6000848152602001908152602001600020600001549150600a6000848152602001908152602001600020600101549050915091565b60007f01ffc9a7000000000000000000000000000000000000000000000000000000007bffffffffffffffffffffffffffffffffffffffffffffffffffffffff1916827bffffffffffffffffffffffffffffffffffffffffffffffffffffffff1916149050919050565b60008073ffffffffffffffffffffffffffffffffffffffff166002600084815260200190815260200160002060009054906101000a900473ffffffffffffffffffffffffffffffffffffffff1673ffffffffffffffffffffffffffffffffffffffff1614159050919050565b600033905090565b816004600083815260200190815260200160002060006101000a81548173ffffffffffffffffffffffffffffffffffffffff021916908373ffffffffffffffffffffffffffffffffffffffff160217905550808273ffffffffffffffffffffffffffffffffffffffff166114a283610ca2565b73ffffffffffffffffffffffffffffffffffffffff167f8c5be1e5ebec7d5bd14f71427d1e84f3dd0314c0f7b2291e5b200ac8c7c3b92560405160405180910390a45050565b60006114f3826113bb565b611532576040517f08c379a0000000000000000000000000000000000000000000000000000000008152600401611529906129b2565b60405180910390fd5b600061153d83610ca2565b90508073ffffffffffffffffffffffffffffffffffffffff168473ffffffffffffffffffffffffffffffffffffffff1614806115ac57508373ffffffffffffffffffffffffffffffffffffffff16611594846105a2565b73ffffffffffffffffffffffffffffffffffffffff16145b806115bd57506115bc8185611283565b5b91505092915050565b8273ffffffffffffffffffffffffffffffffffffffff166115e682610ca2565b73ffffffffffffffffffffffffffffffffffffffff161461163c576040517f08c379a000000000000000000000000000000000000000000000000000000000815260040161163390612a92565b60405180910390fd5b600073ffffffffffffffffffffffffffffffffffffffff168273ffffffffffffffffffffffffffffffffffffffff1614156116ac576040517f08c379a00000000000000000000000000000000000000000000000000000000081526004016116a390612972565b60405180910390fd5b6116b7838383611cf9565b6116c260008261142f565b6001600360008573ffffffffffffffffffffffffffffffffffffffff1673ffffffffffffffffffffffffffffffffffffffff16815260200190815260200160002060008282546117129190612d3a565b925050819055506001600360008473ffffffffffffffffffffffffffffffffffffffff1673ffffffffffffffffffffffffffffffffffffffff16815260200190815260200160002060008282546117699190612c59565b92505081905550816002600083815260200190815260200160002060006101000a81548173ffffffffffffffffffffffffffffffffffffffff021916908373ffffffffffffffffffffffffffffffffffffffff160217905550808273ffffffffffffffffffffffffffffffffffffffff168473ffffffffffffffffffffffffffffffffffffffff167fddf252ad1be2c89b69c2b068fc378daa952ba7f163c4a11628f55a4df523b3ef60405160405180910390a4505050565b600061182d82610ca2565b905061183b81600084611cf9565b61184660008361142f565b6001600360008373ffffffffffffffffffffffffffffffffffffffff1673ffffffffffffffffffffffffffffffffffffffff16815260200190815260200160002060008282546118969190612d3a565b925050819055506002600083815260200190815260200160002060006101000a81549073ffffffffffffffffffffffffffffffffffffffff021916905581600073ffffffffffffffffffffffffffffffffffffffff168273ffffffffffffffffffffffffffffffffffffffff167fddf252ad1be2c89b69c2b068fc378daa952ba7f163c4a11628f55a4df523b3ef60405160405180910390a45050565b6001816000016000828254019250508190555050565b600081600001549050919050565b600073ffffffffffffffffffffffffffffffffffffffff168273ffffffffffffffffffffffffffffffffffffffff1614156119c7576040517f08c379a00000000000000000000000000000000000000000000000000000000081526004016119be90612a52565b60405180910390fd5b6119d0816113bb565b15611a10576040517f08c379a0000000000000000000000000000000000000000000000000000000008152600401611a0790612952565b60405180910390fd5b611a1c60008383611cf9565b6001600360008473ffffffffffffffffffffffffffffffffffffffff1673ffffffffffffffffffffffffffffffffffffffff1681526020019081526020016000206000828254611a6c9190612c59565b92505081905550816002600083815260200190815260200160002060006101000a81548173ffffffffffffffffffffffffffffffffffffffff021916908373ffffffffffffffffffffffffffffffffffffffff160217905550808273ffffffffffffffffffffffffffffffffffffffff16600073ffffffffffffffffffffffffffffffffffffffff167fddf252ad1be2c89b69c2b068fc378daa952ba7f163c4a11628f55a4df523b3ef60405160405180910390a45050565b611b308484846115c6565b611b3c84848484611cfe565b611b7b576040517f08c379a0000000000000000000000000000000000000000000000000000000008152600401611b7290612932565b60405180910390fd5b50505050565b606060405180602001604052806000815250905090565b60606000821415611be0576040518060400160405280600181526020017f30000000000000000000000000000000000000000000000000000000000000008152509050611cf4565b600082905060005b60008214611c12578080611bfb90612e87565b915050600a82611c0b9190612caf565b9150611be8565b60008167ffffffffffffffff811115611c2e57611c2d612fbd565b5b6040519080825280601f01601f191660200182016040528015611c605781602001600182028036833780820191505090505b5090505b60008514611ced57600182611c799190612d3a565b9150600a85611c889190612ed0565b6030611c949190612c59565b60f81b818381518110611caa57611ca9612f8e565b5b60200101907effffffffffffffffffffffffffffffffffffffffffffffffffffffffffffff1916908160001a905350600a85611ce69190612caf565b9450611c64565b8093505050505b919050565b505050565b6000611d1f8473ffffffffffffffffffffffffffffffffffffffff16611e95565b15611e88578373ffffffffffffffffffffffffffffffffffffffff1663150b7a02611d48611427565b8786866040518563ffffffff1660e01b8152600401611d6a9493929190612867565b602060405180830381600087803b158015611d8457600080fd5b505af1925050508015611db557506040513d601f19601f82011682018060405250810190611db291906122d7565b60015b611e38573d8060008114611de5576040519150601f19603f3d011682016040523d82523d6000602084013e611dea565b606091505b50600081511415611e30576040517f08c379a0000000000000000000000000000000000000000000000000000000008152600401611e2790612932565b60405180910390fd5b805181602001fd5b63150b7a0260e01b7bffffffffffffffffffffffffffffffffffffffffffffffffffffffff1916817bffffffffffffffffffffffffffffffffffffffffffffffffffffffff191614915050611e8d565b600190505b949350505050565b600080823b905060008111915050919050565b828054611eb490612e24565b90600052602060002090601f016020900481019282611ed65760008555611f1d565b82601f10611eef57805160ff1916838001178555611f1d565b82800160010185558215611f1d579182015b82811115611f1c578251825591602001919060010190611f01565b5b509050611f2a9190611f2e565b5090565b5b80821115611f47576000816000905550600101611f2f565b5090565b6000611f5e611f5984612b7b565b612b56565b905082815260208101848484011115611f7a57611f79612ff1565b5b611f85848285612de2565b509392505050565b6000611fa0611f9b84612bac565b612b56565b905082815260208101848484011115611fbc57611fbb612ff1565b5b611fc7848285612de2565b509392505050565b600081359050611fde8161348f565b92915050565b600081359050611ff3816134a6565b92915050565b600081359050612008816134bd565b92915050565b60008151905061201d816134bd565b92915050565b600082601f83011261203857612037612fec565b5b8135612048848260208601611f4b565b91505092915050565b600082601f83011261206657612065612fec565b5b8135612076848260208601611f8d565b91505092915050565b60008135905061208e816134d4565b92915050565b6000602082840312156120aa576120a9612ffb565b5b60006120b884828501611fcf565b91505092915050565b600080604083850312156120d8576120d7612ffb565b5b60006120e685828601611fcf565b92505060206120f785828601611fcf565b9150509250929050565b60008060006060848603121561211a57612119612ffb565b5b600061212886828701611fcf565b935050602061213986828701611fcf565b925050604061214a8682870161207f565b9150509250925092565b6000806000806080858703121561216e5761216d612ffb565b5b600061217c87828801611fcf565b945050602061218d87828801611fcf565b935050604061219e8782880161207f565b925050606085013567ffffffffffffffff8111156121bf576121be612ff6565b5b6121cb87828801612023565b91505092959194509250565b600080604083850312156121ee576121ed612ffb565b5b60006121fc85828601611fcf565b925050602061220d85828601611fe4565b9150509250929050565b6000806040838503121561222e5761222d612ffb565b5b600061223c85828601611fcf565b925050602061224d8582860161207f565b9150509250929050565b6000806000606084860312156122705761226f612ffb565b5b600061227e86828701611fcf565b935050602061228f8682870161207f565b92505060406122a08682870161207f565b9150509250925092565b6000602082840312156122c0576122bf612ffb565b5b60006122ce84828501611ff9565b91505092915050565b6000602082840312156122ed576122ec612ffb565b5b60006122fb8482850161200e565b91505092915050565b6000806040838503121561231b5761231a612ffb565b5b600083013567ffffffffffffffff81111561233957612338612ff6565b5b61234585828601612051565b925050602083013567ffffffffffffffff81111561236657612365612ff6565b5b61237285828601612051565b9150509250929050565b60006020828403121561239257612391612ffb565b5b60006123a08482850161207f565b91505092915050565b6000806000606084860312156123c2576123c1612ffb565b5b60006123d08682870161207f565b93505060206123e186828701611fcf565b92505060406123f28682870161207f565b9150509250925092565b6000806000806080858703121561241657612415612ffb565b5b60006124248782880161207f565b945050602061243587828801611fcf565b93505060406124468782880161207f565b92505060606124578782880161207f565b91505092959194509250565b6000806040838503121561247a57612479612ffb565b5b60006124888582860161207f565b92505060206124998582860161207f565b9150509250929050565b60006124af838361280a565b60208301905092915050565b6124c481612d6e565b82525050565b60006124d582612bed565b6124df8185612c1b565b93506124ea83612bdd565b8060005b8381101561251b57815161250288826124a3565b975061250d83612c0e565b9250506001810190506124ee565b5085935050505092915050565b61253181612d80565b82525050565b600061254282612bf8565b61254c8185612c2c565b935061255c818560208601612df1565b61256581613000565b840191505092915050565b600061257b82612c03565b6125858185612c3d565b9350612595818560208601612df1565b61259e81613000565b840191505092915050565b60006125b482612c03565b6125be8185612c4e565b93506125ce818560208601612df1565b80840191505092915050565b60006125e7602383612c3d565b91506125f282613011565b604082019050919050565b600061260a603283612c3d565b915061261582613060565b604082019050919050565b600061262d601c83612c3d565b9150612638826130af565b602082019050919050565b6000612650602483612c3d565b915061265b826130d8565b604082019050919050565b6000612673601983612c3d565b915061267e82613127565b602082019050919050565b6000612696602c83612c3d565b91506126a182613150565b604082019050919050565b60006126b9603883612c3d565b91506126c48261319f565b604082019050919050565b60006126dc602a83612c3d565b91506126e7826131ee565b604082019050919050565b60006126ff602983612c3d565b915061270a8261323d565b604082019050919050565b6000612722602e83612c3d565b915061272d8261328c565b604082019050919050565b6000612745602083612c3d565b9150612750826132db565b602082019050919050565b6000612768602c83612c3d565b915061277382613304565b604082019050919050565b600061278b602983612c3d565b915061279682613353565b604082019050919050565b60006127ae602f83612c3d565b91506127b9826133a2565b604082019050919050565b60006127d1602183612c3d565b91506127dc826133f1565b604082019050919050565b60006127f4603183612c3d565b91506127ff82613440565b604082019050919050565b61281381612dd8565b82525050565b61282281612dd8565b82525050565b600061283482856125a9565b915061284082846125a9565b91508190509392505050565b600060208201905061286160008301846124bb565b92915050565b600060808201905061287c60008301876124bb565b61288960208301866124bb565b6128966040830185612819565b81810360608301526128a88184612537565b905095945050505050565b600060208201905081810360008301526128cd81846124ca565b905092915050565b60006020820190506128ea6000830184612528565b92915050565b6000602082019050818103600083015261290a8184612570565b905092915050565b6000602082019050818103600083015261292b816125da565b9050919050565b6000602082019050818103600083015261294b816125fd565b9050919050565b6000602082019050818103600083015261296b81612620565b9050919050565b6000602082019050818103600083015261298b81612643565b9050919050565b600060208201905081810360008301526129ab81612666565b9050919050565b600060208201905081810360008301526129cb81612689565b9050919050565b600060208201905081810360008301526129eb816126ac565b9050919050565b60006020820190508181036000830152612a0b816126cf565b9050919050565b60006020820190508181036000830152612a2b816126f2565b9050919050565b60006020820190508181036000830152612a4b81612715565b9050919050565b60006020820190508181036000830152612a6b81612738565b9050919050565b60006020820190508181036000830152612a8b8161275b565b9050919050565b60006020820190508181036000830152612aab8161277e565b9050919050565b60006020820190508181036000830152612acb816127a1565b9050919050565b60006020820190508181036000830152612aeb816127c4565b9050919050565b60006020820190508181036000830152612b0b816127e7565b9050919050565b6000602082019050612b276000830184612819565b92915050565b6000604082019050612b426000830185612819565b612b4f6020830184612819565b9392505050565b6000612b60612b71565b9050612b6c8282612e56565b919050565b6000604051905090565b600067ffffffffffffffff821115612b9657612b95612fbd565b5b612b9f82613000565b9050602081019050919050565b600067ffffffffffffffff821115612bc757612bc6612fbd565b5b612bd082613000565b9050602081019050919050565b6000819050602082019050919050565b600081519050919050565b600081519050919050565b600081519050919050565b6000602082019050919050565b600082825260208201905092915050565b600082825260208201905092915050565b600082825260208201905092915050565b600081905092915050565b6000612c6482612dd8565b9150612c6f83612dd8565b9250827fffffffffffffffffffffffffffffffffffffffffffffffffffffffffffffffff03821115612ca457612ca3612f01565b5b828201905092915050565b6000612cba82612dd8565b9150612cc583612dd8565b925082612cd557612cd4612f30565b5b828204905092915050565b6000612ceb82612dd8565b9150612cf683612dd8565b9250817fffffffffffffffffffffffffffffffffffffffffffffffffffffffffffffffff0483118215151615612d2f57612d2e612f01565b5b828202905092915050565b6000612d4582612dd8565b9150612d5083612dd8565b925082821015612d6357612d62612f01565b5b828203905092915050565b6000612d7982612db8565b9050919050565b60008115159050919050565b60007fffffffff0000000000000000000000000000000000000000000000000000000082169050919050565b600073ffffffffffffffffffffffffffffffffffffffff82169050919050565b6000819050919050565b82818337600083830152505050565b60005b83811015612e0f578082015181840152602081019050612df4565b83811115612e1e576000848401525b50505050565b60006002820490506001821680612e3c57607f821691505b60208210811415612e5057612e4f612f5f565b5b50919050565b612e5f82613000565b810181811067ffffffffffffffff82111715612e7e57612e7d612fbd565b5b80604052505050565b6000612e9282612dd8565b91507fffffffffffffffffffffffffffffffffffffffffffffffffffffffffffffffff821415612ec557612ec4612f01565b5b600182019050919050565b6000612edb82612dd8565b9150612ee683612dd8565b925082612ef657612ef5612f30565b5b828206905092915050565b7f4e487b7100000000000000000000000000000000000000000000000000000000600052601160045260246000fd5b7f4e487b7100000000000000000000000000000000000000000000000000000000600052601260045260246000fd5b7f4e487b7100000000000000000000000000000000000000000000000000000000600052602260045260246000fd5b7f4e487b7100000000000000000000000000000000000000000000000000000000600052603260045260246000fd5b7f4e487b7100000000000000000000000000000000000000000000000000000000600052604160045260246000fd5b600080fd5b600080fd5b600080fd5b600080fd5b6000601f19601f8301169050919050565b7f43616e6e6f742075706461746520706f736974696f6e206966206e6f74206f7760008201527f6e65720000000000000000000000000000000000000000000000000000000000602082015250565b7f4552433732313a207472616e7366657220746f206e6f6e20455243373231526560008201527f63656976657220696d706c656d656e7465720000000000000000000000000000602082015250565b7f4552433732313a20746f6b656e20616c7265616479206d696e74656400000000600082015250565b7f4552433732313a207472616e7366657220746f20746865207a65726f2061646460008201527f7265737300000000000000000000000000000000000000000000000000000000602082015250565b7f4552433732313a20617070726f766520746f2063616c6c657200000000000000600082015250565b7f4552433732313a206f70657261746f7220717565727920666f72206e6f6e657860008201527f697374656e7420746f6b656e0000000000000000000000000000000000000000602082015250565b7f4552433732313a20617070726f76652063616c6c6572206973206e6f74206f7760008201527f6e6572206e6f7220617070726f76656420666f7220616c6c0000000000000000602082015250565b7f4552433732313a2062616c616e636520717565727920666f7220746865207a6560008201527f726f206164647265737300000000000000000000000000000000000000000000602082015250565b7f4552433732313a206f776e657220717565727920666f72206e6f6e657869737460008201527f656e7420746f6b656e0000000000000000000000000000000000000000000000602082015250565b7f496e697469616c697a61626c653a20636f6e747261637420697320616c72656160008201527f647920696e697469616c697a6564000000000000000000000000000000000000602082015250565b7f4552433732313a206d696e7420746f20746865207a65726f2061646472657373600082015250565b7f4552433732313a20617070726f76656420717565727920666f72206e6f6e657860008201527f697374656e7420746f6b656e0000000000000000000000000000000000000000602082015250565b7f4552433732313a207472616e73666572206f6620746f6b656e2074686174206960008201527f73206e6f74206f776e0000000000000000000000000000000000000000000000602082015250565b7f4552433732314d657461646174613a2055524920717565727920666f72206e6f60008201527f6e6578697374656e7420746f6b656e0000000000000000000000000000000000602082015250565b7f4552433732313a20617070726f76616c20746f2063757272656e74206f776e6560008201527f7200000000000000000000000000000000000000000000000000000000000000602082015250565b7f4552433732313a207472616e736665722063616c6c6572206973206e6f74206f60008201527f776e6572206e6f7220617070726f766564000000000000000000000000000000602082015250565b61349881612d6e565b81146134a357600080fd5b50565b6134af81612d80565b81146134ba57600080fd5b50565b6134c681612d8c565b81146134d157600080fd5b50565b6134dd81612dd8565b81146134e857600080fd5b5056fea2646970667358221220a9766aece573e50089a650bd2a65922e8c08e4e43f304bac1a878bd9937132c464736f6c63430008060033",
  "immutableReferences": {},
  "source": "// SPDX-License-Identifier: MIT\npragma solidity ^0.8.0;\n\nimport \"@openzeppelin/contracts/token/ERC721/ERC721.sol\";\nimport \"@openzeppelin/contracts/utils/Counters.sol\";\nimport \"@openzeppelin/contracts/proxy/utils/Initializable.sol\";\n\ncontract StakingERC721 is ERC721, Initializable {\n    using Counters for Counters.Counter;\n\n    struct Position {\n        uint256 stake;\n        uint256 totalShares;\n    }\n\n    string private _proxyName;\n\n    string private _proxySymbol;\n\n    Counters.Counter private idGen;\n\n    mapping(uint256 => Position) private positions;\n\n    mapping(address => uint256[]) private positionOwnership;\n\n    // solhint-disable-next-line\n    constructor() ERC721(\"\", \"\") {}\n\n    function initialize(string memory _name, string memory _symbol) external initializer {\n        _proxyName = _name;\n        _proxySymbol = _symbol;\n    }\n\n    function name() public view virtual override returns (string memory) {\n        return _proxyName;\n    }\n\n    function symbol() public view virtual override returns (string memory) {\n        return _proxySymbol;\n    }\n\n    function createPosition(\n        address to,\n        uint256 stakeAmount,\n        uint256 totalShares\n    ) external returns (uint256 id) {\n        idGen.increment();\n        id = idGen.current();\n        _mint(to, id);\n        positions[id].stake = stakeAmount;\n        positions[id].totalShares = totalShares;\n        positionOwnership[to].push(id);\n    }\n\n    function getPositions(address owner) external view returns (uint256[] memory) {\n        return positionOwnership[owner];\n    }\n\n    function getPosition(uint256 id) external view returns (uint256 stake, uint256 totalShares) {\n        stake = positions[id].stake;\n        totalShares = positions[id].totalShares;\n    }\n\n    function decreasePosition(\n        uint256 id,\n        address owner,\n        uint256 amount,\n        uint256 totalShares\n    ) external {\n        require(ownerOf(id) == owner, \"Cannot update position if not owner\");\n        if (amount == positions[id].stake) {\n            _burn(id);\n            for (uint256 i = 0; i < positionOwnership[owner].length; i++) {\n                uint256[] storage ids = positionOwnership[owner];\n                if (ids[i] == id) {\n                    positionOwnership[owner][i] = ids[ids.length - 1];\n                    delete positionOwnership[owner][ids.length - 1];\n                }\n            }\n            delete positions[id];\n        } else {\n            positions[id].stake -= amount;\n            positions[id].totalShares = totalShares;\n        }\n    }\n\n    function setPositionTotalShares(\n        uint256 id,\n        address owner,\n        uint256 totalShares\n    ) external {\n        require(ownerOf(id) == owner, \"Cannot update position if not owner\");\n        positions[id].totalShares = totalShares;\n    }\n\n    function calculateReward(uint256 id, uint256 totalAccumulatedShares)\n        external\n        view\n        returns (uint256 reward)\n    {\n        reward = ((totalAccumulatedShares - positions[id].totalShares) * positions[id].stake) / 10**18;\n    }\n}\n",
  "sourcePath": "/Users/angelsatorresalmenara/Desktop/privi-pods-smart-contract/contracts/implementations/StakingERC721.sol",
  "compiler": {
    "name": "solc",
    "version": "0.8.6+commit.11564f7e.Emscripten.clang"
  },
  "schemaVersion": "3.4.3",
  "updatedAt": "2021-10-08T21:02:31.027Z",
  "networkType": "ethereum",
  "devdoc": {
    "kind": "dev",
    "methods": {
      "approve(address,uint256)": {
        "details": "See {IERC721-approve}."
      },
      "balanceOf(address)": {
        "details": "See {IERC721-balanceOf}."
      },
      "getApproved(uint256)": {
        "details": "See {IERC721-getApproved}."
      },
      "isApprovedForAll(address,address)": {
        "details": "See {IERC721-isApprovedForAll}."
      },
      "name()": {
        "details": "See {IERC721Metadata-name}."
      },
      "ownerOf(uint256)": {
        "details": "See {IERC721-ownerOf}."
      },
      "safeTransferFrom(address,address,uint256)": {
        "details": "See {IERC721-safeTransferFrom}."
      },
      "safeTransferFrom(address,address,uint256,bytes)": {
        "details": "See {IERC721-safeTransferFrom}."
      },
      "setApprovalForAll(address,bool)": {
        "details": "See {IERC721-setApprovalForAll}."
      },
      "supportsInterface(bytes4)": {
        "details": "See {IERC165-supportsInterface}."
      },
      "symbol()": {
        "details": "See {IERC721Metadata-symbol}."
      },
      "tokenURI(uint256)": {
        "details": "See {IERC721Metadata-tokenURI}."
      },
      "transferFrom(address,address,uint256)": {
        "details": "See {IERC721-transferFrom}."
      }
    },
    "version": 1
  },
  "userdoc": {
    "kind": "user",
    "methods": {},
    "version": 1
  }
}