{
  "_format": "hh-sol-artifact-1",
  "contractName": "FeeCollector",
  "sourceName": "contracts/FeeCollector.sol",
  "abi": [
    {
      "inputs": [
        {
          "internalType": "address",
          "name": "protocol_",
          "type": "address"
        }
      ],
      "stateMutability": "nonpayable",
      "type": "constructor"
    },
    {
      "anonymous": false,
      "inputs": [
        {
          "indexed": false,
          "internalType": "address",
          "name": "previousAdmin",
          "type": "address"
        },
        {
          "indexed": false,
          "internalType": "address",
          "name": "newAdmin",
          "type": "address"
        }
      ],
      "name": "AdminChanged",
      "type": "event"
    },
    {
      "anonymous": false,
      "inputs": [
        {
          "indexed": true,
          "internalType": "address",
          "name": "beacon",
          "type": "address"
        }
      ],
      "name": "BeaconUpgraded",
      "type": "event"
    },
    {
      "anonymous": false,
      "inputs": [
        {
          "indexed": true,
          "internalType": "bytes32",
          "name": "role",
          "type": "bytes32"
        },
        {
          "indexed": true,
          "internalType": "bytes32",
          "name": "previousAdminRole",
          "type": "bytes32"
        },
        {
          "indexed": true,
          "internalType": "bytes32",
          "name": "newAdminRole",
          "type": "bytes32"
        }
      ],
      "name": "RoleAdminChanged",
      "type": "event"
    },
    {
      "anonymous": false,
      "inputs": [
        {
          "indexed": true,
          "internalType": "bytes32",
          "name": "role",
          "type": "bytes32"
        },
        {
          "indexed": true,
          "internalType": "address",
          "name": "account",
          "type": "address"
        },
        {
          "indexed": true,
          "internalType": "address",
          "name": "sender",
          "type": "address"
        }
      ],
      "name": "RoleGranted",
      "type": "event"
    },
    {
      "anonymous": false,
      "inputs": [
        {
          "indexed": true,
          "internalType": "bytes32",
          "name": "role",
          "type": "bytes32"
        },
        {
          "indexed": true,
          "internalType": "address",
          "name": "account",
          "type": "address"
        },
        {
          "indexed": true,
          "internalType": "address",
          "name": "sender",
          "type": "address"
        }
      ],
      "name": "RoleRevoked",
      "type": "event"
    },
    {
      "anonymous": false,
      "inputs": [
        {
          "indexed": true,
          "internalType": "address",
          "name": "implementation",
          "type": "address"
        }
      ],
      "name": "Upgraded",
      "type": "event"
    },
    {
      "inputs": [],
      "name": "DEFAULT_ADMIN_ROLE",
      "outputs": [
        {
          "internalType": "bytes32",
          "name": "",
          "type": "bytes32"
        }
      ],
      "stateMutability": "view",
      "type": "function"
    },
    {
      "inputs": [],
      "name": "UPGRADER",
      "outputs": [
        {
          "internalType": "bytes32",
          "name": "",
          "type": "bytes32"
        }
      ],
      "stateMutability": "view",
      "type": "function"
    },
    {
      "inputs": [],
      "name": "WITHDRAWER",
      "outputs": [
        {
          "internalType": "bytes32",
          "name": "",
          "type": "bytes32"
        }
      ],
      "stateMutability": "view",
      "type": "function"
    },
    {
      "inputs": [
        {
          "internalType": "bytes32",
          "name": "role",
          "type": "bytes32"
        }
      ],
      "name": "getRoleAdmin",
      "outputs": [
        {
          "internalType": "bytes32",
          "name": "",
          "type": "bytes32"
        }
      ],
      "stateMutability": "view",
      "type": "function"
    },
    {
      "inputs": [
        {
          "internalType": "bytes32",
          "name": "role",
          "type": "bytes32"
        },
        {
          "internalType": "address",
          "name": "account",
          "type": "address"
        }
      ],
      "name": "grantRole",
      "outputs": [],
      "stateMutability": "nonpayable",
      "type": "function"
    },
    {
      "inputs": [
        {
          "internalType": "bytes32",
          "name": "role",
          "type": "bytes32"
        },
        {
          "internalType": "address",
          "name": "account",
          "type": "address"
        }
      ],
      "name": "hasRole",
      "outputs": [
        {
          "internalType": "bool",
          "name": "",
          "type": "bool"
        }
      ],
      "stateMutability": "view",
      "type": "function"
    },
    {
      "inputs": [],
      "name": "initialize",
      "outputs": [],
      "stateMutability": "nonpayable",
      "type": "function"
    },
    {
      "inputs": [],
      "name": "protocol",
      "outputs": [
        {
          "internalType": "address",
          "name": "",
          "type": "address"
        }
      ],
      "stateMutability": "view",
      "type": "function"
    },
    {
      "inputs": [
        {
          "internalType": "bytes32",
          "name": "role",
          "type": "bytes32"
        },
        {
          "internalType": "address",
          "name": "account",
          "type": "address"
        }
      ],
      "name": "renounceRole",
      "outputs": [],
      "stateMutability": "nonpayable",
      "type": "function"
    },
    {
      "inputs": [
        {
          "internalType": "bytes32",
          "name": "role",
          "type": "bytes32"
        },
        {
          "internalType": "address",
          "name": "account",
          "type": "address"
        }
      ],
      "name": "revokeRole",
      "outputs": [],
      "stateMutability": "nonpayable",
      "type": "function"
    },
    {
      "inputs": [
        {
          "internalType": "bytes4",
          "name": "interfaceId",
          "type": "bytes4"
        }
      ],
      "name": "supportsInterface",
      "outputs": [
        {
          "internalType": "bool",
          "name": "",
          "type": "bool"
        }
      ],
      "stateMutability": "view",
      "type": "function"
    },
    {
      "inputs": [
        {
          "internalType": "address",
          "name": "newImplementation",
          "type": "address"
        }
      ],
      "name": "upgradeTo",
      "outputs": [],
      "stateMutability": "nonpayable",
      "type": "function"
    },
    {
      "inputs": [
        {
          "internalType": "address",
          "name": "newImplementation",
          "type": "address"
        },
        {
          "internalType": "bytes",
          "name": "data",
          "type": "bytes"
        }
      ],
      "name": "upgradeToAndCall",
      "outputs": [],
      "stateMutability": "payable",
      "type": "function"
    },
    {
      "inputs": [
        {
          "internalType": "address",
          "name": "account_",
          "type": "address"
        },
        {
          "internalType": "address",
          "name": "token_",
          "type": "address"
        },
        {
          "internalType": "uint256",
          "name": "amount_",
          "type": "uint256"
        }
      ],
      "name": "withdrawTo",
      "outputs": [],
      "stateMutability": "nonpayable",
      "type": "function"
    }
  ],
  "bytecode": "0x60c06040523060601b6080523480156200001857600080fd5b5060405162001743380380620017438339810160408190526200003b9162000159565b600054610100900460ff168062000055575060005460ff16155b620000be5760405162461bcd60e51b815260206004820152602e60248201527f496e697469616c697a61626c653a20636f6e747261637420697320616c72656160448201526d191e481a5b9a5d1a585b1a5e995960921b60648201526084015b60405180910390fd5b600054610100900460ff16158015620000e1576000805461ffff19166101011790555b6001600160a01b0382166200012c5760405162461bcd60e51b815260206004820152601060248201526f1253959053125117d41493d513d0d3d360821b6044820152606401620000b5565b6001600160601b0319606083901b1660a052801562000151576000805461ff00191690555b505062000189565b6000602082840312156200016b578081fd5b81516001600160a01b038116811462000182578182fd5b9392505050565b60805160601c60a05160601c611579620001ca60003960006102250152600081816103f801528181610438015281816104c1015261050101526115796000f3fe6080604052600436106100dd5760003560e01c80638129fc1c1161007f578063930c83d511610059578063930c83d51461027f578063a217fddf146102b3578063c3b35a7e146102c8578063d547741f146102e857600080fd5b80638129fc1c146101fe5780638ce744261461021357806391d148541461025f57600080fd5b806336568abe116100bb57806336568abe146101775780633659cfe6146101975780634f1ef286146101b757806366941984146101ca57600080fd5b806301ffc9a7146100e2578063248a9ca3146101175780632f2ff15d14610155575b600080fd5b3480156100ee57600080fd5b506101026100fd3660046112a4565b610308565b60405190151581526020015b60405180910390f35b34801561012357600080fd5b50610147610132366004611261565b600090815260c9602052604090206001015490565b60405190815260200161010e565b34801561016157600080fd5b50610175610170366004611279565b61033f565b005b34801561018357600080fd5b50610175610192366004611279565b61036a565b3480156101a357600080fd5b506101756101b236600461112f565b6103ed565b6101756101c5366004611184565b6104b6565b3480156101d657600080fd5b506101477f779b9d7b1cefd23059ce3e2b194efb3183a6685dd830e8cbb723b0cbeb982b2881565b34801561020a57600080fd5b5061017561056c565b34801561021f57600080fd5b506102477f000000000000000000000000000000000000000000000000000000000000000081565b6040516001600160a01b03909116815260200161010e565b34801561026b57600080fd5b5061010261027a366004611279565b6105f2565b34801561028b57600080fd5b506101477fa615a8afb6fffcb8c6809ac0997b5c9c12b8cc97651150f14c8f6203168cff4c81565b3480156102bf57600080fd5b50610147600081565b3480156102d457600080fd5b506101756102e3366004611149565b61061d565b3480156102f457600080fd5b50610175610303366004611279565b610662565b60006001600160e01b03198216637965db0b60e01b148061033957506301ffc9a760e01b6001600160e01b03198316145b92915050565b600082815260c9602052604090206001015461035b8133610688565b61036583836106ec565b505050565b6001600160a01b03811633146103df5760405162461bcd60e51b815260206004820152602f60248201527f416363657373436f6e74726f6c3a2063616e206f6e6c792072656e6f756e636560448201526e103937b632b9903337b91039b2b63360891b60648201526084015b60405180910390fd5b6103e98282610772565b5050565b306001600160a01b037f00000000000000000000000000000000000000000000000000000000000000001614156104365760405162461bcd60e51b81526004016103d690611390565b7f00000000000000000000000000000000000000000000000000000000000000006001600160a01b03166104686107d9565b6001600160a01b03161461048e5760405162461bcd60e51b81526004016103d6906113dc565b61049781610807565b604080516000808252602082019092526104b391839190610832565b50565b306001600160a01b037f00000000000000000000000000000000000000000000000000000000000000001614156104ff5760405162461bcd60e51b81526004016103d690611390565b7f00000000000000000000000000000000000000000000000000000000000000006001600160a01b03166105316107d9565b6001600160a01b0316146105575760405162461bcd60e51b81526004016103d6906113dc565b61056082610807565b6103e982826001610832565b600054610100900460ff1680610585575060005460ff16155b6105a15760405162461bcd60e51b81526004016103d690611428565b600054610100900460ff161580156105c3576000805461ffff19166101011790555b6105cb61097d565b6105d36109ec565b6105de600033610a4a565b80156104b3576000805461ff001916905550565b600091825260c9602090815260408084206001600160a01b0393909316845291905290205460ff1690565b7f779b9d7b1cefd23059ce3e2b194efb3183a6685dd830e8cbb723b0cbeb982b286106488133610688565b61065c6001600160a01b0384168584610a54565b50505050565b600082815260c9602052604090206001015461067e8133610688565b6103658383610772565b61069282826105f2565b6103e9576106aa816001600160a01b03166014610aa6565b6106b5836020610aa6565b6040516020016106c69291906112e8565b60408051601f198184030181529082905262461bcd60e51b82526103d69160040161135d565b6106f682826105f2565b6103e957600082815260c9602090815260408083206001600160a01b03851684529091529020805460ff1916600117905561072e3390565b6001600160a01b0316816001600160a01b0316837f2f8788117e7eff1d82e926ec794901d17c78024a50270940304540a733656f0d60405160405180910390a45050565b61077c82826105f2565b156103e957600082815260c9602090815260408083206001600160a01b0385168085529252808320805460ff1916905551339285917ff6391f5c32d9c69d2a47ea670b442974b53935d1edc7fd64eb21e047a839171b9190a45050565b7f360894a13ba1a3210667c828492db98dca3e2076cc3735a920a3ca505d382bbc546001600160a01b031690565b7fa615a8afb6fffcb8c6809ac0997b5c9c12b8cc97651150f14c8f6203168cff4c6103e98133610688565b600061083c6107d9565b905061084784610c8f565b6000835111806108545750815b15610865576108638484610d34565b505b7f4910fdfa16fed3260ed0e7147f7cc6da11a60208b5b9406d12a635614ffd9143805460ff1661097657805460ff191660011781556040516001600160a01b03831660248201526108e490869060440160408051601f198184030181529190526020810180516001600160e01b0316631b2ce7f360e11b179052610d34565b50805460ff191681556108f56107d9565b6001600160a01b0316826001600160a01b03161461096d5760405162461bcd60e51b815260206004820152602f60248201527f45524331393637557067726164653a207570677261646520627265616b73206660448201526e75727468657220757067726164657360881b60648201526084016103d6565b61097685610e1f565b5050505050565b600054610100900460ff1680610996575060005460ff16155b6109b25760405162461bcd60e51b81526004016103d690611428565b600054610100900460ff161580156109d4576000805461ffff19166101011790555b6109dc610e5f565b6109e4610e5f565b6105de610e5f565b600054610100900460ff1680610a05575060005460ff16155b610a215760405162461bcd60e51b81526004016103d690611428565b600054610100900460ff161580156109dc576000805461ffff19166101011790556109e4610e5f565b6103e982826106ec565b604080516001600160a01b038416602482015260448082018490528251808303909101815260649091019091526020810180516001600160e01b031663a9059cbb60e01b179052610365908490610ec9565b60606000610ab583600261148e565b610ac0906002611476565b67ffffffffffffffff811115610ae657634e487b7160e01b600052604160045260246000fd5b6040519080825280601f01601f191660200182016040528015610b10576020820181803683370190505b509050600360fc1b81600081518110610b3957634e487b7160e01b600052603260045260246000fd5b60200101906001600160f81b031916908160001a905350600f60fb1b81600181518110610b7657634e487b7160e01b600052603260045260246000fd5b60200101906001600160f81b031916908160001a9053506000610b9a84600261148e565b610ba5906001611476565b90505b6001811115610c39576f181899199a1a9b1b9c1cb0b131b232b360811b85600f1660108110610be757634e487b7160e01b600052603260045260246000fd5b1a60f81b828281518110610c0b57634e487b7160e01b600052603260045260246000fd5b60200101906001600160f81b031916908160001a90535060049490941c93610c32816114d9565b9050610ba8565b508315610c885760405162461bcd60e51b815260206004820181905260248201527f537472696e67733a20686578206c656e67746820696e73756666696369656e7460448201526064016103d6565b9392505050565b803b610cf35760405162461bcd60e51b815260206004820152602d60248201527f455243313936373a206e657720696d706c656d656e746174696f6e206973206e60448201526c1bdd08184818dbdb9d1c9858dd609a1b60648201526084016103d6565b7f360894a13ba1a3210667c828492db98dca3e2076cc3735a920a3ca505d382bbc80546001600160a01b0319166001600160a01b0392909216919091179055565b6060823b610d935760405162461bcd60e51b815260206004820152602660248201527f416464726573733a2064656c65676174652063616c6c20746f206e6f6e2d636f6044820152651b9d1c9858dd60d21b60648201526084016103d6565b600080846001600160a01b031684604051610dae91906112cc565b600060405180830381855af49150503d8060008114610de9576040519150601f19603f3d011682016040523d82523d6000602084013e610dee565b606091505b5091509150610e16828260405180606001604052806027815260200161151d60279139610f9b565b95945050505050565b610e2881610c8f565b6040516001600160a01b038216907fbc7cd75a20ee27fd9adebab32041f755214dbc6bffa90cc0225b39da2e5c2d3b90600090a250565b600054610100900460ff1680610e78575060005460ff16155b610e945760405162461bcd60e51b81526004016103d690611428565b600054610100900460ff161580156105de576000805461ffff191661010117905580156104b3576000805461ff001916905550565b6000610f1e826040518060400160405280602081526020017f5361666545524332303a206c6f772d6c6576656c2063616c6c206661696c6564815250856001600160a01b0316610fd49092919063ffffffff16565b8051909150156103655780806020019051810190610f3c9190611241565b6103655760405162461bcd60e51b815260206004820152602a60248201527f5361666545524332303a204552433230206f7065726174696f6e20646964206e6044820152691bdd081cdd58d8d9595960b21b60648201526084016103d6565b60608315610faa575081610c88565b825115610fba5782518084602001fd5b8160405162461bcd60e51b81526004016103d6919061135d565b6060610fe38484600085610feb565b949350505050565b60608247101561104c5760405162461bcd60e51b815260206004820152602660248201527f416464726573733a20696e73756666696369656e742062616c616e636520666f6044820152651c8818d85b1b60d21b60648201526084016103d6565b843b61109a5760405162461bcd60e51b815260206004820152601d60248201527f416464726573733a2063616c6c20746f206e6f6e2d636f6e747261637400000060448201526064016103d6565b600080866001600160a01b031685876040516110b691906112cc565b60006040518083038185875af1925050503d80600081146110f3576040519150601f19603f3d011682016040523d82523d6000602084013e6110f8565b606091505b5091509150611108828286610f9b565b979650505050505050565b80356001600160a01b038116811461112a57600080fd5b919050565b600060208284031215611140578081fd5b610c8882611113565b60008060006060848603121561115d578182fd5b61116684611113565b925061117460208501611113565b9150604084013590509250925092565b60008060408385031215611196578182fd5b61119f83611113565b9150602083013567ffffffffffffffff808211156111bb578283fd5b818501915085601f8301126111ce578283fd5b8135818111156111e0576111e0611506565b604051601f8201601f19908116603f0116810190838211818310171561120857611208611506565b81604052828152886020848701011115611220578586fd5b82602086016020830137856020848301015280955050505050509250929050565b600060208284031215611252578081fd5b81518015158114610c88578182fd5b600060208284031215611272578081fd5b5035919050565b6000806040838503121561128b578182fd5b8235915061129b60208401611113565b90509250929050565b6000602082840312156112b5578081fd5b81356001600160e01b031981168114610c88578182fd5b600082516112de8184602087016114ad565b9190910192915050565b7f416363657373436f6e74726f6c3a206163636f756e74200000000000000000008152600083516113208160178501602088016114ad565b7001034b99036b4b9b9b4b733903937b6329607d1b60179184019182015283516113518160288401602088016114ad565b01602801949350505050565b602081526000825180602084015261137c8160408501602087016114ad565b601f01601f19169190910160400192915050565b6020808252602c908201527f46756e6374696f6e206d7573742062652063616c6c6564207468726f7567682060408201526b19195b1959d85d1958d85b1b60a21b606082015260800190565b6020808252602c908201527f46756e6374696f6e206d7573742062652063616c6c6564207468726f7567682060408201526b6163746976652070726f787960a01b606082015260800190565b6020808252602e908201527f496e697469616c697a61626c653a20636f6e747261637420697320616c72656160408201526d191e481a5b9a5d1a585b1a5e995960921b606082015260800190565b60008219821115611489576114896114f0565b500190565b60008160001904831182151516156114a8576114a86114f0565b500290565b60005b838110156114c85781810151838201526020016114b0565b8381111561065c5750506000910152565b6000816114e8576114e86114f0565b506000190190565b634e487b7160e01b600052601160045260246000fd5b634e487b7160e01b600052604160045260246000fdfe416464726573733a206c6f772d6c6576656c2064656c65676174652063616c6c206661696c6564a26469706673582212201a3ee4f770cda24a8bc5f0ccb9772abe2352069b76a2dbed7e4996ad1ccad32c64736f6c63430008040033",
  "linkReferences": {},
  "deployedLinkReferences": {}
}