{
  "address": "0x0F94FaB8db8c66B597Ce5d27b2FF0962c9f16435",
  "abi": [
    {
      "inputs": [
        {
          "internalType": "address",
          "name": "",
          "type": "address"
        }
      ],
      "name": "price",
      "outputs": [
        {
          "internalType": "uint256",
          "name": "currentPrice",
          "type": "uint256"
        }
      ],
      "stateMutability": "pure",
      "type": "function"
    }
  ],
  "transactionHash": "0x4bfc44a4521b7ff0f078d0fd2d0d203568cfe23e125ac7e64dfa6988cd90678a",
  "args": [],
  "solcInputHash": "5f09e85700ea7f64d8c269aef506ebf5",
  "bytecode": "0x608060405234801561001057600080fd5b5060b28061001f6000396000f3fe6080604052348015600f57600080fd5b506004361060285760003560e01c8063aea9107814602d575b600080fd5b603e60383660046050565b50600190565b60405190815260200160405180910390f35b6000602082840312156060578081fd5b81356001600160a01b03811681146075578182fd5b939250505056fea2646970667358221220fc8a9c45b64f5c9c9dcf5756b4ae865916e4fe5c2cec03ac7603c6a71f8a03a264736f6c63430008040033",
  "devdoc": {
    "kind": "dev",
    "methods": {
      "price(address)": {
        "returns": {
          "currentPrice": "Price denominated in USD, with 6 decimals, for the given token address"
        }
      }
    },
    "version": 1
  },
  "userdoc": {
    "kind": "user",
    "methods": {
      "price(address)": {
        "notice": "get the price of a token"
      }
    },
    "version": 1
  },
  "storageLayout": {
    "storage": [],
    "types": null
  }
}