{
  "_format": "hh-sol-artifact-1",
  "contractName": "PriceOracleMock",
  "sourceName": "contracts/oracles/mocks/PriceOracleMock.sol",
  "abi": [
    {
      "inputs": [
        {
          "internalType": "address",
          "name": "token_",
          "type": "address"
        }
      ],
      "name": "price",
      "outputs": [
        {
          "internalType": "uint256",
          "name": "currentPrice",
          "type": "uint256"
        }
      ],
      "stateMutability": "view",
      "type": "function"
    },
    {
      "inputs": [
        {
          "internalType": "address",
          "name": "token_",
          "type": "address"
        },
        {
          "internalType": "uint256",
          "name": "value_",
          "type": "uint256"
        }
      ],
      "name": "setPrice",
      "outputs": [],
      "stateMutability": "nonpayable",
      "type": "function"
    }
  ],
  "bytecode": "0x608060405234801561001057600080fd5b5061016d806100206000396000f3fe608060405234801561001057600080fd5b50600436106100355760003560e01c8062e4768b1461003a578063aea9107814610066575b600080fd5b61006461004836600461010e565b6001600160a01b03909116600090815260208190526040902055565b005b6100796100743660046100ed565b61008b565b60405190815260200160405180910390f35b6001600160a01b0381166000908152602081905260408120546100b157620f42406100cb565b6001600160a01b0382166000908152602081905260409020545b92915050565b80356001600160a01b03811681146100e857600080fd5b919050565b6000602082840312156100fe578081fd5b610107826100d1565b9392505050565b60008060408385031215610120578081fd5b610129836100d1565b94602093909301359350505056fea26469706673582212201648a1747c1f18a93b909eee4ec2b95fdd7f67d446bd65c2aae4779c34b7c7db64736f6c63430008040033",
  "linkReferences": {},
  "deployedLinkReferences": {}
}