{
  "address": "0xa9E501bFCD0B3C2a160512F1cEaf17c9822CEC36",
  "abi": [
    {
      "inputs": [
        {
          "internalType": "uint256",
          "name": "buyerFee_",
          "type": "uint256"
        },
        {
          "internalType": "uint256",
          "name": "sellerFee_",
          "type": "uint256"
        },
        {
          "internalType": "address",
          "name": "feesRecipient_",
          "type": "address"
        }
      ],
      "stateMutability": "nonpayable",
      "type": "constructor"
    },
    {
      "anonymous": false,
      "inputs": [
        {
          "indexed": false,
          "internalType": "uint256",
          "name": "from",
          "type": "uint256"
        },
        {
          "indexed": false,
          "internalType": "uint256",
          "name": "to",
          "type": "uint256"
        }
      ],
      "name": "BuyerFeeUpdated",
      "type": "event"
    },
    {
      "anonymous": false,
      "inputs": [
        {
          "indexed": false,
          "internalType": "address",
          "name": "from",
          "type": "address"
        },
        {
          "indexed": false,
          "internalType": "address",
          "name": "to",
          "type": "address"
        }
      ],
      "name": "FeesRecipientUpdated",
      "type": "event"
    },
    {
      "anonymous": false,
      "inputs": [
        {
          "indexed": true,
          "internalType": "address",
          "name": "previousOwner",
          "type": "address"
        },
        {
          "indexed": true,
          "internalType": "address",
          "name": "newOwner",
          "type": "address"
        }
      ],
      "name": "OwnershipTransferred",
      "type": "event"
    },
    {
      "anonymous": false,
      "inputs": [
        {
          "indexed": false,
          "internalType": "uint256",
          "name": "from",
          "type": "uint256"
        },
        {
          "indexed": false,
          "internalType": "uint256",
          "name": "to",
          "type": "uint256"
        }
      ],
      "name": "SellerFeeUpdated",
      "type": "event"
    },
    {
      "inputs": [],
      "name": "buyerFee",
      "outputs": [
        {
          "internalType": "uint256",
          "name": "",
          "type": "uint256"
        }
      ],
      "stateMutability": "view",
      "type": "function"
    },
    {
      "inputs": [],
      "name": "feesRecipient",
      "outputs": [
        {
          "internalType": "address",
          "name": "",
          "type": "address"
        }
      ],
      "stateMutability": "view",
      "type": "function"
    },
    {
      "inputs": [],
      "name": "owner",
      "outputs": [
        {
          "internalType": "address",
          "name": "",
          "type": "address"
        }
      ],
      "stateMutability": "view",
      "type": "function"
    },
    {
      "inputs": [],
      "name": "renounceOwnership",
      "outputs": [],
      "stateMutability": "nonpayable",
      "type": "function"
    },
    {
      "inputs": [],
      "name": "sellerFee",
      "outputs": [
        {
          "internalType": "uint256",
          "name": "",
          "type": "uint256"
        }
      ],
      "stateMutability": "view",
      "type": "function"
    },
    {
      "inputs": [
        {
          "internalType": "uint256",
          "name": "buyerFee_",
          "type": "uint256"
        }
      ],
      "name": "setBuyerFee",
      "outputs": [],
      "stateMutability": "nonpayable",
      "type": "function"
    },
    {
      "inputs": [
        {
          "internalType": "address",
          "name": "feesRecipient_",
          "type": "address"
        }
      ],
      "name": "setFeesRecipient",
      "outputs": [],
      "stateMutability": "nonpayable",
      "type": "function"
    },
    {
      "inputs": [
        {
          "internalType": "uint256",
          "name": "sellerFee_",
          "type": "uint256"
        }
      ],
      "name": "setSellerFee",
      "outputs": [],
      "stateMutability": "nonpayable",
      "type": "function"
    },
    {
      "inputs": [
        {
          "internalType": "address",
          "name": "newOwner",
          "type": "address"
        }
      ],
      "name": "transferOwnership",
      "outputs": [],
      "stateMutability": "nonpayable",
      "type": "function"
    }
  ],
  "transactionHash": "0x163505536a8c489835dda96418adce03408e1e0c836d0078242deb5b4df21d41",
  "args": [
    250,
    250,
    "0xBB33d358fe4BEB58d9f5697348322440935a3E2d"
  ],
  "solcInputHash": "edce919926861449af0282524d57abec",
  "bytecode": "0x608060405234801561001057600080fd5b5060405161075538038061075583398101604081905261002f91610197565b61003833610147565b600083116100815760405162461bcd60e51b8152602060048201526011602482015270496e76616c69642062757965722066656560781b60448201526064015b60405180910390fd5b600082116100c65760405162461bcd60e51b8152602060048201526012602482015271496e76616c69642073656c6c65722066656560701b6044820152606401610078565b6001600160a01b03811661011c5760405162461bcd60e51b815260206004820152601e60248201527f496e76616c6964206665657320726563697069656e74206164647265737300006044820152606401610078565b60019290925550600380546001600160a01b0319166001600160a01b039092169190911790556101db565b600080546001600160a01b038381166001600160a01b0319831681178455604051919092169283917f8be0079c531659141344cd1fd0a4f28419497f9722a3daafe3b4186f6b6457e09190a35050565b6000806000606084860312156101ab578283fd5b83516020850151604086015191945092506001600160a01b03811681146101d0578182fd5b809150509250925092565b61056b806101ea6000396000f3fe608060405234801561001057600080fd5b50600436106100935760003560e01c806384b7719a1161006657806384b7719a146100fc5780638da5cb5b1461010f578063e1f3d55a14610120578063f2fde38b14610129578063fa7da19d1461013c57600080fd5b80631bfee121146100985780635de6c42f146100ad578063702acfa8146100c9578063715018a6146100f4575b600080fd5b6100ab6100a63660046104e8565b61014f565b005b6100b660015481565b6040519081526020015b60405180910390f35b6003546100dc906001600160a01b031681565b6040516001600160a01b0390911681526020016100c0565b6100ab610208565b6100ab61010a3660046104ba565b61023e565b6000546001600160a01b03166100dc565b6100b660025481565b6100ab6101373660046104ba565b610320565b6100ab61014a3660046104e8565b6103bb565b6000546001600160a01b031633146101825760405162461bcd60e51b815260040161017990610500565b60405180910390fd5b600081116101c75760405162461bcd60e51b8152602060048201526012602482015271496e76616c69642073656c6c65722066656560701b6044820152606401610179565b60025460408051918252602082018390527ff2fa1ff91b0ffaf6d492ed74f32086aae9c9c1233d56c56497aec243d8b4b5e4910160405180910390a1600255565b6000546001600160a01b031633146102325760405162461bcd60e51b815260040161017990610500565b61023c600061046a565b565b6000546001600160a01b031633146102685760405162461bcd60e51b815260040161017990610500565b6001600160a01b0381166102b75760405162461bcd60e51b8152602060048201526016602482015275125b9d985b1a59081999595cc81c9958da5c1a595b9d60521b6044820152606401610179565b600354604080516001600160a01b03928316815291831660208301527fa7c80f289ec8f470d129a2f3f924e8dbfc725b7f7c4ae36c55221e29a5151ae6910160405180910390a1600380546001600160a01b0319166001600160a01b0392909216919091179055565b6000546001600160a01b0316331461034a5760405162461bcd60e51b815260040161017990610500565b6001600160a01b0381166103af5760405162461bcd60e51b815260206004820152602660248201527f4f776e61626c653a206e6577206f776e657220697320746865207a65726f206160448201526564647265737360d01b6064820152608401610179565b6103b88161046a565b50565b6000546001600160a01b031633146103e55760405162461bcd60e51b815260040161017990610500565b600081116104295760405162461bcd60e51b8152602060048201526011602482015270496e76616c69642062757965722066656560781b6044820152606401610179565b60015460408051918252602082018390527f932a7530d3f92e227dcf4faabfbd54cfb848c11d218a32a3597460c693c19d3f910160405180910390a1600155565b600080546001600160a01b038381166001600160a01b0319831681178455604051919092169283917f8be0079c531659141344cd1fd0a4f28419497f9722a3daafe3b4186f6b6457e09190a35050565b6000602082840312156104cb578081fd5b81356001600160a01b03811681146104e1578182fd5b9392505050565b6000602082840312156104f9578081fd5b5035919050565b6020808252818101527f4f776e61626c653a2063616c6c6572206973206e6f7420746865206f776e657260408201526060019056fea2646970667358221220edfc0d8a9303b45eb33d72b28dd87c452e68a94d2173dfc29a020f7360ada32d64736f6c63430008040033",
  "devdoc": {
    "kind": "dev",
    "methods": {
      "owner()": {
        "details": "Returns the address of the current owner."
      },
      "renounceOwnership()": {
        "details": "Leaves the contract without owner. It will not be possible to call `onlyOwner` functions anymore. Can only be called by the current owner. NOTE: Renouncing ownership will leave the contract without an owner, thereby removing any functionality that is only available to the owner."
      },
      "transferOwnership(address)": {
        "details": "Transfers ownership of the contract to a new account (`newOwner`). Can only be called by the current owner."
      }
    },
    "title": "parameters controlled by governance",
    "version": 1
  },
  "userdoc": {
    "kind": "user",
    "methods": {},
    "notice": "the owner of this contract is the timelock controller of the governance feature",
    "version": 1
  },
  "storageLayout": {
    "storage": [
      {
        "astId": 1426,
        "contract": "contracts/governance/ProtocolParameters.sol:ProtocolParameters",
        "label": "_owner",
        "offset": 0,
        "slot": "0",
        "type": "t_address"
      },
      {
        "astId": 6186,
        "contract": "contracts/governance/ProtocolParameters.sol:ProtocolParameters",
        "label": "buyerFee",
        "offset": 0,
        "slot": "1",
        "type": "t_uint256"
      },
      {
        "astId": 6188,
        "contract": "contracts/governance/ProtocolParameters.sol:ProtocolParameters",
        "label": "sellerFee",
        "offset": 0,
        "slot": "2",
        "type": "t_uint256"
      },
      {
        "astId": 6190,
        "contract": "contracts/governance/ProtocolParameters.sol:ProtocolParameters",
        "label": "feesRecipient",
        "offset": 0,
        "slot": "3",
        "type": "t_address"
      }
    ],
    "types": {
      "t_address": {
        "encoding": "inplace",
        "label": "address",
        "numberOfBytes": "20"
      },
      "t_uint256": {
        "encoding": "inplace",
        "label": "uint256",
        "numberOfBytes": "32"
      }
    }
  }
}