{
  "address": "0x85D606E2308efCD648581E2b99962D4e2fC2eaD9",
  "abi": [
    {
      "inputs": [],
      "stateMutability": "nonpayable",
      "type": "constructor"
    },
    {
      "anonymous": false,
      "inputs": [
        {
          "indexed": true,
          "internalType": "address",
          "name": "owner",
          "type": "address"
        },
        {
          "indexed": true,
          "internalType": "address",
          "name": "approved",
          "type": "address"
        },
        {
          "indexed": true,
          "internalType": "uint256",
          "name": "tokenId",
          "type": "uint256"
        }
      ],
      "name": "Approval",
      "type": "event"
    },
    {
      "anonymous": false,
      "inputs": [
        {
          "indexed": true,
          "internalType": "address",
          "name": "owner",
          "type": "address"
        },
        {
          "indexed": true,
          "internalType": "address",
          "name": "operator",
          "type": "address"
        },
        {
          "indexed": false,
          "internalType": "bool",
          "name": "approved",
          "type": "bool"
        }
      ],
      "name": "ApprovalForAll",
      "type": "event"
    },
    {
      "anonymous": false,
      "inputs": [
        {
          "indexed": true,
          "internalType": "bytes32",
          "name": "role",
          "type": "bytes32"
        },
        {
          "indexed": true,
          "internalType": "bytes32",
          "name": "previousAdminRole",
          "type": "bytes32"
        },
        {
          "indexed": true,
          "internalType": "bytes32",
          "name": "newAdminRole",
          "type": "bytes32"
        }
      ],
      "name": "RoleAdminChanged",
      "type": "event"
    },
    {
      "anonymous": false,
      "inputs": [
        {
          "indexed": true,
          "internalType": "bytes32",
          "name": "role",
          "type": "bytes32"
        },
        {
          "indexed": true,
          "internalType": "address",
          "name": "account",
          "type": "address"
        },
        {
          "indexed": true,
          "internalType": "address",
          "name": "sender",
          "type": "address"
        }
      ],
      "name": "RoleGranted",
      "type": "event"
    },
    {
      "anonymous": false,
      "inputs": [
        {
          "indexed": true,
          "internalType": "bytes32",
          "name": "role",
          "type": "bytes32"
        },
        {
          "indexed": true,
          "internalType": "address",
          "name": "account",
          "type": "address"
        },
        {
          "indexed": true,
          "internalType": "address",
          "name": "sender",
          "type": "address"
        }
      ],
      "name": "RoleRevoked",
      "type": "event"
    },
    {
      "anonymous": false,
      "inputs": [
        {
          "indexed": true,
          "internalType": "address",
          "name": "from",
          "type": "address"
        },
        {
          "indexed": true,
          "internalType": "address",
          "name": "to",
          "type": "address"
        },
        {
          "indexed": true,
          "internalType": "uint256",
          "name": "tokenId",
          "type": "uint256"
        }
      ],
      "name": "Transfer",
      "type": "event"
    },
    {
      "inputs": [],
      "name": "DEFAULT_ADMIN_ROLE",
      "outputs": [
        {
          "internalType": "bytes32",
          "name": "",
          "type": "bytes32"
        }
      ],
      "stateMutability": "view",
      "type": "function"
    },
    {
      "inputs": [],
      "name": "MANAGER",
      "outputs": [
        {
          "internalType": "bytes32",
          "name": "",
          "type": "bytes32"
        }
      ],
      "stateMutability": "view",
      "type": "function"
    },
    {
      "inputs": [
        {
          "internalType": "address",
          "name": "to",
          "type": "address"
        },
        {
          "internalType": "uint256",
          "name": "tokenId",
          "type": "uint256"
        }
      ],
      "name": "approve",
      "outputs": [],
      "stateMutability": "nonpayable",
      "type": "function"
    },
    {
      "inputs": [
        {
          "internalType": "address",
          "name": "owner",
          "type": "address"
        }
      ],
      "name": "balanceOf",
      "outputs": [
        {
          "internalType": "uint256",
          "name": "",
          "type": "uint256"
        }
      ],
      "stateMutability": "view",
      "type": "function"
    },
    {
      "inputs": [
        {
          "internalType": "uint256",
          "name": "tokenId",
          "type": "uint256"
        }
      ],
      "name": "exists",
      "outputs": [
        {
          "internalType": "bool",
          "name": "",
          "type": "bool"
        }
      ],
      "stateMutability": "view",
      "type": "function"
    },
    {
      "inputs": [
        {
          "internalType": "uint256",
          "name": "tokenId",
          "type": "uint256"
        }
      ],
      "name": "getApproved",
      "outputs": [
        {
          "internalType": "address",
          "name": "",
          "type": "address"
        }
      ],
      "stateMutability": "view",
      "type": "function"
    },
    {
      "inputs": [
        {
          "internalType": "bytes32",
          "name": "role",
          "type": "bytes32"
        }
      ],
      "name": "getRoleAdmin",
      "outputs": [
        {
          "internalType": "bytes32",
          "name": "",
          "type": "bytes32"
        }
      ],
      "stateMutability": "view",
      "type": "function"
    },
    {
      "inputs": [
        {
          "internalType": "bytes32",
          "name": "role",
          "type": "bytes32"
        },
        {
          "internalType": "address",
          "name": "account",
          "type": "address"
        }
      ],
      "name": "grantRole",
      "outputs": [],
      "stateMutability": "nonpayable",
      "type": "function"
    },
    {
      "inputs": [
        {
          "internalType": "bytes32",
          "name": "role",
          "type": "bytes32"
        },
        {
          "internalType": "address",
          "name": "account",
          "type": "address"
        }
      ],
      "name": "hasRole",
      "outputs": [
        {
          "internalType": "bool",
          "name": "",
          "type": "bool"
        }
      ],
      "stateMutability": "view",
      "type": "function"
    },
    {
      "inputs": [
        {
          "internalType": "string",
          "name": "name_",
          "type": "string"
        },
        {
          "internalType": "string",
          "name": "symbol_",
          "type": "string"
        },
        {
          "internalType": "address",
          "name": "rentalManager_",
          "type": "address"
        }
      ],
      "name": "initialize",
      "outputs": [],
      "stateMutability": "nonpayable",
      "type": "function"
    },
    {
      "inputs": [
        {
          "internalType": "address",
          "name": "owner",
          "type": "address"
        },
        {
          "internalType": "address",
          "name": "operator",
          "type": "address"
        }
      ],
      "name": "isApprovedForAll",
      "outputs": [
        {
          "internalType": "bool",
          "name": "",
          "type": "bool"
        }
      ],
      "stateMutability": "view",
      "type": "function"
    },
    {
      "inputs": [
        {
          "internalType": "uint256",
          "name": "tokenId",
          "type": "uint256"
        }
      ],
      "name": "isRentalExpired",
      "outputs": [
        {
          "internalType": "bool",
          "name": "",
          "type": "bool"
        }
      ],
      "stateMutability": "view",
      "type": "function"
    },
    {
      "inputs": [],
      "name": "name",
      "outputs": [
        {
          "internalType": "string",
          "name": "",
          "type": "string"
        }
      ],
      "stateMutability": "view",
      "type": "function"
    },
    {
      "inputs": [
        {
          "internalType": "uint256",
          "name": "tokenId",
          "type": "uint256"
        }
      ],
      "name": "ownerOf",
      "outputs": [
        {
          "internalType": "address",
          "name": "",
          "type": "address"
        }
      ],
      "stateMutability": "view",
      "type": "function"
    },
    {
      "inputs": [
        {
          "internalType": "bytes32",
          "name": "role",
          "type": "bytes32"
        },
        {
          "internalType": "address",
          "name": "account",
          "type": "address"
        }
      ],
      "name": "renounceRole",
      "outputs": [],
      "stateMutability": "nonpayable",
      "type": "function"
    },
    {
      "inputs": [
        {
          "internalType": "bytes32",
          "name": "role",
          "type": "bytes32"
        },
        {
          "internalType": "address",
          "name": "account",
          "type": "address"
        }
      ],
      "name": "revokeRole",
      "outputs": [],
      "stateMutability": "nonpayable",
      "type": "function"
    },
    {
      "inputs": [
        {
          "internalType": "uint256",
          "name": "tokenId",
          "type": "uint256"
        }
      ],
      "name": "safeBurn",
      "outputs": [],
      "stateMutability": "nonpayable",
      "type": "function"
    },
    {
      "inputs": [
        {
          "internalType": "address",
          "name": "to",
          "type": "address"
        },
        {
          "internalType": "string",
          "name": "metadata",
          "type": "string"
        },
        {
          "internalType": "uint256",
          "name": "lifetime",
          "type": "uint256"
        }
      ],
      "name": "safeMint",
      "outputs": [
        {
          "internalType": "uint256",
          "name": "tokenId",
          "type": "uint256"
        }
      ],
      "stateMutability": "nonpayable",
      "type": "function"
    },
    {
      "inputs": [
        {
          "internalType": "address",
          "name": "from",
          "type": "address"
        },
        {
          "internalType": "address",
          "name": "to",
          "type": "address"
        },
        {
          "internalType": "uint256",
          "name": "tokenId",
          "type": "uint256"
        }
      ],
      "name": "safeTransferFrom",
      "outputs": [],
      "stateMutability": "nonpayable",
      "type": "function"
    },
    {
      "inputs": [
        {
          "internalType": "address",
          "name": "from",
          "type": "address"
        },
        {
          "internalType": "address",
          "name": "to",
          "type": "address"
        },
        {
          "internalType": "uint256",
          "name": "tokenId",
          "type": "uint256"
        },
        {
          "internalType": "bytes",
          "name": "_data",
          "type": "bytes"
        }
      ],
      "name": "safeTransferFrom",
      "outputs": [],
      "stateMutability": "nonpayable",
      "type": "function"
    },
    {
      "inputs": [
        {
          "internalType": "address",
          "name": "operator",
          "type": "address"
        },
        {
          "internalType": "bool",
          "name": "approved",
          "type": "bool"
        }
      ],
      "name": "setApprovalForAll",
      "outputs": [],
      "stateMutability": "nonpayable",
      "type": "function"
    },
    {
      "inputs": [
        {
          "internalType": "uint256",
          "name": "tokenId",
          "type": "uint256"
        },
        {
          "internalType": "string",
          "name": "metadata",
          "type": "string"
        }
      ],
      "name": "setMetadata",
      "outputs": [],
      "stateMutability": "nonpayable",
      "type": "function"
    },
    {
      "inputs": [
        {
          "internalType": "bytes4",
          "name": "interfaceId",
          "type": "bytes4"
        }
      ],
      "name": "supportsInterface",
      "outputs": [
        {
          "internalType": "bool",
          "name": "",
          "type": "bool"
        }
      ],
      "stateMutability": "view",
      "type": "function"
    },
    {
      "inputs": [],
      "name": "symbol",
      "outputs": [
        {
          "internalType": "string",
          "name": "",
          "type": "string"
        }
      ],
      "stateMutability": "view",
      "type": "function"
    },
    {
      "inputs": [],
      "name": "tokenCounter",
      "outputs": [
        {
          "internalType": "uint256",
          "name": "_value",
          "type": "uint256"
        }
      ],
      "stateMutability": "view",
      "type": "function"
    },
    {
      "inputs": [
        {
          "internalType": "uint256",
          "name": "tokenId",
          "type": "uint256"
        }
      ],
      "name": "tokenURI",
      "outputs": [
        {
          "internalType": "string",
          "name": "",
          "type": "string"
        }
      ],
      "stateMutability": "view",
      "type": "function"
    },
    {
      "inputs": [
        {
          "internalType": "address",
          "name": "from",
          "type": "address"
        },
        {
          "internalType": "address",
          "name": "to",
          "type": "address"
        },
        {
          "internalType": "uint256",
          "name": "tokenId",
          "type": "uint256"
        }
      ],
      "name": "transferFrom",
      "outputs": [],
      "stateMutability": "nonpayable",
      "type": "function"
    }
  ],
  "transactionHash": "0x16f2140830daec0218e6c5f66b23ea03e5d0f003fdcf500b444998e487de3dc7",
  "args": [],
  "solcInputHash": "edce919926861449af0282524d57abec",
  "bytecode": "0x608060405234801561001057600080fd5b50611e44806100206000396000f3fe608060405234801561001057600080fd5b50600436106101a95760003560e01c8063593aa283116100f9578063b88d4fde11610097578063d082e38111610071578063d082e3811461039f578063d547741f146103a9578063dbf51325146103bc578063e985e9c5146103cf57600080fd5b8063b88d4fde14610366578063c772745a14610379578063c87b56dd1461038c57600080fd5b806391d14854116100d357806391d148541461033057806395d89b4114610343578063a217fddf1461034b578063a22cb4651461035357600080fd5b8063593aa283146102f75780636352211e1461030a57806370a082311461031d57600080fd5b806323b872dd116101665780632f2ff15d116101405780632f2ff15d146102ab57806336568abe146102be57806342842e0e146102d15780634f558e79146102e457600080fd5b806323b872dd14610261578063248a9ca31461027457806329133e601461029857600080fd5b806301ffc9a7146101ae57806306fdde03146101d6578063077f224a146101eb578063081812fc14610200578063095ea7b31461022b5780631b2df8501461023e575b600080fd5b6101c16101bc366004611a0c565b61040b565b60405190151581526020015b60405180910390f35b6101de610451565b6040516101cd9190611bd8565b6101fe6101f9366004611a44565b6104e3565b005b61021361020e3660046119d2565b6105f9565b6040516001600160a01b0390911681526020016101cd565b6101fe6102393660046119a9565b610681565b610253600080516020611def83398151915281565b6040519081526020016101cd565b6101fe61026f366004611866565b610797565b6102536102823660046119d2565b6000908152600160208190526040909120015490565b6101c16102a63660046119d2565b6107c8565b6101fe6102b93660046119ea565b610849565b6101fe6102cc3660046119ea565b610870565b6101fe6102df366004611866565b6108ee565b6101c16102f23660046119d2565b610909565b6101fe610305366004611ab5565b610914565b6102136103183660046119d2565b610971565b61025361032b36600461181a565b6109e8565b6101c161033e3660046119ea565b610a6f565b6101de610a9a565b610253600081565b6101fe61036136600461191a565b610aa9565b6101fe6103743660046118a1565b610b6e565b610253610387366004611954565b610ba0565b6101de61039a3660046119d2565b610c19565b6002546102539081565b6101fe6103b73660046119ea565b610cde565b6101fe6103ca3660046119d2565b610d05565b6101c16103dd366004611834565b6001600160a01b03918216600090815260086020908152604080832093909416825291909152205460ff1690565b60006001600160e01b031982166380ac58cd60e01b148061043c57506001600160e01b03198216635b5e139f60e01b145b8061044b575061044b82610d4f565b92915050565b6060600a805461046090611d6e565b80601f016020809104026020016040519081016040528092919081815260200182805461048c90611d6e565b80156104d95780601f106104ae576101008083540402835291602001916104d9565b820191906000526020600020905b8154815290600101906020018083116104bc57829003601f168201915b5050505050905090565b600054610100900460ff16806104fc575060005460ff16155b6105645760405162461bcd60e51b815260206004820152602e60248201527f496e697469616c697a61626c653a20636f6e747261637420697320616c72656160448201526d191e481a5b9a5d1a585b1a5e995960921b60648201526084015b60405180910390fd5b600054610100900460ff16158015610586576000805461ffff19166101011790555b835161059990600a9060208701906116d0565b5082516105ad90600b9060208601906116d0565b50600c80546001600160a01b0319166001600160a01b0384161790556105e1600080516020611def83398151915283610d84565b80156105f3576000805461ff00191690555b50505050565b600061060482610d8e565b6106655760405162461bcd60e51b815260206004820152602c60248201527f4552433732313a20617070726f76656420717565727920666f72206e6f6e657860448201526b34b9ba32b73a103a37b5b2b760a11b606482015260840161055b565b506000908152600660205260409020546001600160a01b031690565b600061068c82610971565b9050806001600160a01b0316836001600160a01b031614156106fa5760405162461bcd60e51b815260206004820152602160248201527f4552433732313a20617070726f76616c20746f2063757272656e74206f776e656044820152603960f91b606482015260840161055b565b336001600160a01b0382161480610716575061071681336103dd565b6107885760405162461bcd60e51b815260206004820152603860248201527f4552433732313a20617070726f76652063616c6c6572206973206e6f74206f7760448201527f6e6572206e6f7220617070726f76656420666f7220616c6c0000000000000000606482015260840161055b565b6107928383610dab565b505050565b6107a13382610e19565b6107bd5760405162461bcd60e51b815260040161055b90611c8c565b610792838383610f03565b60006107d382610d8e565b6108335760405162461bcd60e51b815260206004820152602b60248201527f52656e74616c3a206578706972656420717565727920666f72206e6f6e65786960448201526a39ba32b73a103a37b5b2b760a91b606482015260840161055b565b5060009081526009602052604090205442101590565b6000828152600160208190526040909120015461086681336110a3565b6107928383611107565b6001600160a01b03811633146108e05760405162461bcd60e51b815260206004820152602f60248201527f416363657373436f6e74726f6c3a2063616e206f6e6c792072656e6f756e636560448201526e103937b632b9903337b91039b2b63360891b606482015260840161055b565b6108ea8282611172565b5050565b61079283838360405180602001604052806000815250610b6e565b600061044b82610d8e565b600080516020611def83398151915261092d81336110a3565b61093683610d8e565b6109525760405162461bcd60e51b815260040161055b90611c3d565b600083815260036020908152604090912083516105f3928501906116d0565b6000818152600460205260408120546001600160a01b03168061044b5760405162461bcd60e51b815260206004820152602960248201527f4552433732313a206f776e657220717565727920666f72206e6f6e657869737460448201526832b73a103a37b5b2b760b91b606482015260840161055b565b60006001600160a01b038216610a535760405162461bcd60e51b815260206004820152602a60248201527f4552433732313a2062616c616e636520717565727920666f7220746865207a65604482015269726f206164647265737360b01b606482015260840161055b565b506001600160a01b031660009081526005602052604090205490565b60009182526001602090815260408084206001600160a01b0393909316845291905290205460ff1690565b6060600b805461046090611d6e565b6001600160a01b038216331415610b025760405162461bcd60e51b815260206004820152601960248201527f4552433732313a20617070726f766520746f2063616c6c657200000000000000604482015260640161055b565b3360008181526008602090815260408083206001600160a01b03871680855290835292819020805460ff191686151590811790915590519081529192917f17307eab39ab6107e8899845ad3d59bd9653f200f220920489ca2b5937696c31910160405180910390a35050565b610b783383610e19565b610b945760405162461bcd60e51b815260040161055b90611c8c565b6105f3848484846111d9565b6000600080516020611def833981519152610bbb81336110a3565b6002549150610bce600280546001019055565b610bd8858361120c565b60008281526003602090815260409091208551610bf7928701906116d0565b50610c028342611cdd565b600083815260096020526040902055509392505050565b6060610c2482610d8e565b610c405760405162461bcd60e51b815260040161055b90611c3d565b60008281526003602052604090208054610c5990611d6e565b80601f0160208091040260200160405190810160405280929190818152602001828054610c8590611d6e565b8015610cd25780601f10610ca757610100808354040283529160200191610cd2565b820191906000526020600020905b815481529060010190602001808311610cb557829003601f168201915b50505050509050919050565b60008281526001602081905260409091200154610cfb81336110a3565b6107928383611172565b600080516020611def833981519152610d1e81336110a3565b610d278261133f565b60408051602080820180845260008084528681526003909252929020905161079292906116d0565b60006001600160e01b03198216637965db0b60e01b148061044b57506301ffc9a760e01b6001600160e01b031983161461044b565b6108ea8282611107565b6000908152600460205260409020546001600160a01b0316151590565b600081815260066020526040902080546001600160a01b0319166001600160a01b0384169081179091558190610de082610971565b6001600160a01b03167f8c5be1e5ebec7d5bd14f71427d1e84f3dd0314c0f7b2291e5b200ac8c7c3b92560405160405180910390a45050565b6000610e2482610d8e565b610e855760405162461bcd60e51b815260206004820152602c60248201527f4552433732313a206f70657261746f7220717565727920666f72206e6f6e657860448201526b34b9ba32b73a103a37b5b2b760a11b606482015260840161055b565b6000610e9083610971565b9050806001600160a01b0316846001600160a01b03161480610ecb5750836001600160a01b0316610ec0846105f9565b6001600160a01b0316145b80610efb57506001600160a01b0380821660009081526008602090815260408083209388168352929052205460ff165b949350505050565b826001600160a01b0316610f1682610971565b6001600160a01b031614610f7e5760405162461bcd60e51b815260206004820152602960248201527f4552433732313a207472616e73666572206f6620746f6b656e2074686174206960448201526839903737ba1037bbb760b91b606482015260840161055b565b6001600160a01b038216610fe05760405162461bcd60e51b8152602060048201526024808201527f4552433732313a207472616e7366657220746f20746865207a65726f206164646044820152637265737360e01b606482015260840161055b565b610feb600082610dab565b6001600160a01b0383166000908152600560205260408120805460019290611014908490611d14565b90915550506001600160a01b0382166000908152600560205260408120805460019290611042908490611cdd565b909155505060008181526004602052604080822080546001600160a01b0319166001600160a01b0386811691821790925591518493918716917fddf252ad1be2c89b69c2b068fc378daa952ba7f163c4a11628f55a4df523b3ef91a4505050565b6110ad8282610a6f565b6108ea576110c5816001600160a01b031660146113da565b6110d08360206113da565b6040516020016110e1929190611b26565b60408051601f198184030181529082905262461bcd60e51b825261055b91600401611bd8565b6111118282610a6f565b6108ea5760008281526001602081815260408084206001600160a01b0386168086529252808420805460ff19169093179092559051339285917f2f8788117e7eff1d82e926ec794901d17c78024a50270940304540a733656f0d9190a45050565b61117c8282610a6f565b156108ea5760008281526001602090815260408083206001600160a01b0385168085529252808320805460ff1916905551339285917ff6391f5c32d9c69d2a47ea670b442974b53935d1edc7fd64eb21e047a839171b9190a45050565b6111e4848484610f03565b6111f0848484846115c3565b6105f35760405162461bcd60e51b815260040161055b90611beb565b6001600160a01b0382166112625760405162461bcd60e51b815260206004820181905260248201527f4552433732313a206d696e7420746f20746865207a65726f2061646472657373604482015260640161055b565b61126b81610d8e565b156112b85760405162461bcd60e51b815260206004820152601c60248201527f4552433732313a20746f6b656e20616c7265616479206d696e74656400000000604482015260640161055b565b6001600160a01b03821660009081526005602052604081208054600192906112e1908490611cdd565b909155505060008181526004602052604080822080546001600160a01b0319166001600160a01b03861690811790915590518392907fddf252ad1be2c89b69c2b068fc378daa952ba7f163c4a11628f55a4df523b3ef908290a45050565b600061134a82610971565b9050611357600083610dab565b6001600160a01b0381166000908152600560205260408120805460019290611380908490611d14565b909155505060008281526004602052604080822080546001600160a01b0319169055518391906001600160a01b038416907fddf252ad1be2c89b69c2b068fc378daa952ba7f163c4a11628f55a4df523b3ef908390a45050565b606060006113e9836002611cf5565b6113f4906002611cdd565b67ffffffffffffffff81111561141a57634e487b7160e01b600052604160045260246000fd5b6040519080825280601f01601f191660200182016040528015611444576020820181803683370190505b509050600360fc1b8160008151811061146d57634e487b7160e01b600052603260045260246000fd5b60200101906001600160f81b031916908160001a905350600f60fb1b816001815181106114aa57634e487b7160e01b600052603260045260246000fd5b60200101906001600160f81b031916908160001a90535060006114ce846002611cf5565b6114d9906001611cdd565b90505b600181111561156d576f181899199a1a9b1b9c1cb0b131b232b360811b85600f166010811061151b57634e487b7160e01b600052603260045260246000fd5b1a60f81b82828151811061153f57634e487b7160e01b600052603260045260246000fd5b60200101906001600160f81b031916908160001a90535060049490941c9361156681611d57565b90506114dc565b5083156115bc5760405162461bcd60e51b815260206004820181905260248201527f537472696e67733a20686578206c656e67746820696e73756666696369656e74604482015260640161055b565b9392505050565b60006001600160a01b0384163b156116c557604051630a85bd0160e11b81526001600160a01b0385169063150b7a0290611607903390899088908890600401611b9b565b602060405180830381600087803b15801561162157600080fd5b505af1925050508015611651575060408051601f3d908101601f1916820190925261164e91810190611a28565b60015b6116ab573d80801561167f576040519150601f19603f3d011682016040523d82523d6000602084013e611684565b606091505b5080516116a35760405162461bcd60e51b815260040161055b90611beb565b805181602001fd5b6001600160e01b031916630a85bd0160e11b149050610efb565b506001949350505050565b8280546116dc90611d6e565b90600052602060002090601f0160209004810192826116fe5760008555611744565b82601f1061171757805160ff1916838001178555611744565b82800160010185558215611744579182015b82811115611744578251825591602001919060010190611729565b50611750929150611754565b5090565b5b808211156117505760008155600101611755565b600067ffffffffffffffff8084111561178457611784611dbf565b604051601f8501601f19908116603f011681019082821181831017156117ac576117ac611dbf565b816040528093508581528686860111156117c557600080fd5b858560208301376000602087830101525050509392505050565b80356001600160a01b03811681146117f657600080fd5b919050565b600082601f83011261180b578081fd5b6115bc83833560208501611769565b60006020828403121561182b578081fd5b6115bc826117df565b60008060408385031215611846578081fd5b61184f836117df565b915061185d602084016117df565b90509250929050565b60008060006060848603121561187a578081fd5b611883846117df565b9250611891602085016117df565b9150604084013590509250925092565b600080600080608085870312156118b6578081fd5b6118bf856117df565b93506118cd602086016117df565b925060408501359150606085013567ffffffffffffffff8111156118ef578182fd5b8501601f810187136118ff578182fd5b61190e87823560208401611769565b91505092959194509250565b6000806040838503121561192c578182fd5b611935836117df565b915060208301358015158114611949578182fd5b809150509250929050565b600080600060608486031215611968578283fd5b611971846117df565b9250602084013567ffffffffffffffff81111561198c578283fd5b611998868287016117fb565b925050604084013590509250925092565b600080604083850312156119bb578182fd5b6119c4836117df565b946020939093013593505050565b6000602082840312156119e3578081fd5b5035919050565b600080604083850312156119fc578182fd5b8235915061185d602084016117df565b600060208284031215611a1d578081fd5b81356115bc81611dd5565b600060208284031215611a39578081fd5b81516115bc81611dd5565b600080600060608486031215611a58578283fd5b833567ffffffffffffffff80821115611a6f578485fd5b611a7b878388016117fb565b94506020860135915080821115611a90578384fd5b50611a9d868287016117fb565b925050611aac604085016117df565b90509250925092565b60008060408385031215611ac7578182fd5b82359150602083013567ffffffffffffffff811115611ae4578182fd5b611af0858286016117fb565b9150509250929050565b60008151808452611b12816020860160208601611d2b565b601f01601f19169290920160200192915050565b7f416363657373436f6e74726f6c3a206163636f756e7420000000000000000000815260008351611b5e816017850160208801611d2b565b7001034b99036b4b9b9b4b733903937b6329607d1b6017918401918201528351611b8f816028840160208801611d2b565b01602801949350505050565b6001600160a01b0385811682528416602082015260408101839052608060608201819052600090611bce90830184611afa565b9695505050505050565b6020815260006115bc6020830184611afa565b60208082526032908201527f4552433732313a207472616e7366657220746f206e6f6e20455243373231526560408201527131b2b4bb32b91034b6b83632b6b2b73a32b960711b606082015260800190565b6020808252602f908201527f4552433732314d657461646174613a2055524920717565727920666f72206e6f60408201526e3732bc34b9ba32b73a103a37b5b2b760891b606082015260800190565b60208082526031908201527f4552433732313a207472616e736665722063616c6c6572206973206e6f74206f6040820152701ddb995c881b9bdc88185c1c1c9bdd9959607a1b606082015260800190565b60008219821115611cf057611cf0611da9565b500190565b6000816000190483118215151615611d0f57611d0f611da9565b500290565b600082821015611d2657611d26611da9565b500390565b60005b83811015611d46578181015183820152602001611d2e565b838111156105f35750506000910152565b600081611d6657611d66611da9565b506000190190565b600181811c90821680611d8257607f821691505b60208210811415611da357634e487b7160e01b600052602260045260246000fd5b50919050565b634e487b7160e01b600052601160045260246000fd5b634e487b7160e01b600052604160045260246000fd5b6001600160e01b031981168114611deb57600080fd5b5056feaf290d8680820aad922855f39b306097b20e28774d6c1ad35a20325630c3a02ca26469706673582212207a85a43c07a3488567e0a7e6397f4a531c065c6250d2f77f5a235c3464f38a8864736f6c63430008040033",
  "devdoc": {
    "kind": "dev",
    "methods": {
      "approve(address,uint256)": {
        "details": "Gives permission to `to` to transfer `tokenId` token to another account. The approval is cleared when the token is transferred. Only a single account can be approved at a time, so approving the zero address clears previous approvals. Requirements: - The caller must own the token or be an approved operator. - `tokenId` must exist. Emits an {Approval} event."
      },
      "balanceOf(address)": {
        "details": "Returns the number of tokens in ``owner``'s account."
      },
      "getApproved(uint256)": {
        "details": "Returns the account approved for `tokenId` token. Requirements: - `tokenId` must exist."
      },
      "getRoleAdmin(bytes32)": {
        "details": "Returns the admin role that controls `role`. See {grantRole} and {revokeRole}. To change a role's admin, use {_setRoleAdmin}."
      },
      "grantRole(bytes32,address)": {
        "details": "Grants `role` to `account`. If `account` had not been already granted `role`, emits a {RoleGranted} event. Requirements: - the caller must have ``role``'s admin role."
      },
      "hasRole(bytes32,address)": {
        "details": "Returns `true` if `account` has been granted `role`."
      },
      "isApprovedForAll(address,address)": {
        "details": "Returns if the `operator` is allowed to manage all of the assets of `owner`. See {setApprovalForAll}"
      },
      "name()": {
        "details": "Returns the token collection name."
      },
      "ownerOf(uint256)": {
        "details": "Returns the owner of the `tokenId` token. Requirements: - `tokenId` must exist."
      },
      "renounceRole(bytes32,address)": {
        "details": "Revokes `role` from the calling account. Roles are often managed via {grantRole} and {revokeRole}: this function's purpose is to provide a mechanism for accounts to lose their privileges if they are compromised (such as when a trusted device is misplaced). If the calling account had been granted `role`, emits a {RoleRevoked} event. Requirements: - the caller must be `account`."
      },
      "revokeRole(bytes32,address)": {
        "details": "Revokes `role` from `account`. If `account` had been granted `role`, emits a {RoleRevoked} event. Requirements: - the caller must have ``role``'s admin role."
      },
      "safeTransferFrom(address,address,uint256)": {
        "details": "Safely transfers `tokenId` token from `from` to `to`, checking first that contract recipients are aware of the ERC721 protocol to prevent tokens from being forever locked. Requirements: - `from` cannot be the zero address. - `to` cannot be the zero address. - `tokenId` token must exist and be owned by `from`. - If the caller is not `from`, it must be have been allowed to move this token by either {approve} or {setApprovalForAll}. - If `to` refers to a smart contract, it must implement {IERC721Receiver-onERC721Received}, which is called upon a safe transfer. Emits a {Transfer} event."
      },
      "symbol()": {
        "details": "Returns the token collection symbol."
      },
      "tokenURI(uint256)": {
        "details": "See {IERC721Metadata-tokenURI}."
      },
      "transferFrom(address,address,uint256)": {
        "details": "Transfers `tokenId` token from `from` to `to`. WARNING: Usage of this method is discouraged, use {safeTransferFrom} whenever possible. Requirements: - `from` cannot be the zero address. - `to` cannot be the zero address. - `tokenId` token must be owned by `from`. - If the caller is not `from`, it must be approved to move this token by either {approve} or {setApprovalForAll}. Emits a {Transfer} event."
      }
    },
    "version": 1
  },
  "userdoc": {
    "kind": "user",
    "methods": {},
    "version": 1
  },
  "storageLayout": {
    "storage": [
      {
        "astId": 538,
        "contract": "contracts/SyntheticNFT.sol:SyntheticNFT",
        "label": "_initialized",
        "offset": 0,
        "slot": "0",
        "type": "t_bool"
      },
      {
        "astId": 541,
        "contract": "contracts/SyntheticNFT.sol:SyntheticNFT",
        "label": "_initializing",
        "offset": 1,
        "slot": "0",
        "type": "t_bool"
      },
      {
        "astId": 1063,
        "contract": "contracts/SyntheticNFT.sol:SyntheticNFT",
        "label": "_roles",
        "offset": 0,
        "slot": "1",
        "type": "t_mapping(t_bytes32,t_struct(RoleData)1058_storage)"
      },
      {
        "astId": 5033,
        "contract": "contracts/SyntheticNFT.sol:SyntheticNFT",
        "label": "tokenCounter",
        "offset": 0,
        "slot": "2",
        "type": "t_struct(Counter)3263_storage"
      },
      {
        "astId": 5042,
        "contract": "contracts/SyntheticNFT.sol:SyntheticNFT",
        "label": "_tokenMetadata",
        "offset": 0,
        "slot": "3",
        "type": "t_mapping(t_uint256,t_string_storage)"
      },
      {
        "astId": 5046,
        "contract": "contracts/SyntheticNFT.sol:SyntheticNFT",
        "label": "_owners",
        "offset": 0,
        "slot": "4",
        "type": "t_mapping(t_uint256,t_address)"
      },
      {
        "astId": 5050,
        "contract": "contracts/SyntheticNFT.sol:SyntheticNFT",
        "label": "_balances",
        "offset": 0,
        "slot": "5",
        "type": "t_mapping(t_address,t_uint256)"
      },
      {
        "astId": 5054,
        "contract": "contracts/SyntheticNFT.sol:SyntheticNFT",
        "label": "_tokenApprovals",
        "offset": 0,
        "slot": "6",
        "type": "t_mapping(t_uint256,t_address)"
      },
      {
        "astId": 5058,
        "contract": "contracts/SyntheticNFT.sol:SyntheticNFT",
        "label": "_active",
        "offset": 0,
        "slot": "7",
        "type": "t_mapping(t_uint256,t_bool)"
      },
      {
        "astId": 5064,
        "contract": "contracts/SyntheticNFT.sol:SyntheticNFT",
        "label": "_operatorApprovals",
        "offset": 0,
        "slot": "8",
        "type": "t_mapping(t_address,t_mapping(t_address,t_bool))"
      },
      {
        "astId": 5068,
        "contract": "contracts/SyntheticNFT.sol:SyntheticNFT",
        "label": "_nftExpirationDate",
        "offset": 0,
        "slot": "9",
        "type": "t_mapping(t_uint256,t_uint256)"
      },
      {
        "astId": 5070,
        "contract": "contracts/SyntheticNFT.sol:SyntheticNFT",
        "label": "_name",
        "offset": 0,
        "slot": "10",
        "type": "t_string_storage"
      },
      {
        "astId": 5072,
        "contract": "contracts/SyntheticNFT.sol:SyntheticNFT",
        "label": "_symbol",
        "offset": 0,
        "slot": "11",
        "type": "t_string_storage"
      },
      {
        "astId": 5074,
        "contract": "contracts/SyntheticNFT.sol:SyntheticNFT",
        "label": "_rentalManager",
        "offset": 0,
        "slot": "12",
        "type": "t_address"
      }
    ],
    "types": {
      "t_address": {
        "encoding": "inplace",
        "label": "address",
        "numberOfBytes": "20"
      },
      "t_bool": {
        "encoding": "inplace",
        "label": "bool",
        "numberOfBytes": "1"
      },
      "t_bytes32": {
        "encoding": "inplace",
        "label": "bytes32",
        "numberOfBytes": "32"
      },
      "t_mapping(t_address,t_bool)": {
        "encoding": "mapping",
        "key": "t_address",
        "label": "mapping(address => bool)",
        "numberOfBytes": "32",
        "value": "t_bool"
      },
      "t_mapping(t_address,t_mapping(t_address,t_bool))": {
        "encoding": "mapping",
        "key": "t_address",
        "label": "mapping(address => mapping(address => bool))",
        "numberOfBytes": "32",
        "value": "t_mapping(t_address,t_bool)"
      },
      "t_mapping(t_address,t_uint256)": {
        "encoding": "mapping",
        "key": "t_address",
        "label": "mapping(address => uint256)",
        "numberOfBytes": "32",
        "value": "t_uint256"
      },
      "t_mapping(t_bytes32,t_struct(RoleData)1058_storage)": {
        "encoding": "mapping",
        "key": "t_bytes32",
        "label": "mapping(bytes32 => struct AccessControl.RoleData)",
        "numberOfBytes": "32",
        "value": "t_struct(RoleData)1058_storage"
      },
      "t_mapping(t_uint256,t_address)": {
        "encoding": "mapping",
        "key": "t_uint256",
        "label": "mapping(uint256 => address)",
        "numberOfBytes": "32",
        "value": "t_address"
      },
      "t_mapping(t_uint256,t_bool)": {
        "encoding": "mapping",
        "key": "t_uint256",
        "label": "mapping(uint256 => bool)",
        "numberOfBytes": "32",
        "value": "t_bool"
      },
      "t_mapping(t_uint256,t_string_storage)": {
        "encoding": "mapping",
        "key": "t_uint256",
        "label": "mapping(uint256 => string)",
        "numberOfBytes": "32",
        "value": "t_string_storage"
      },
      "t_mapping(t_uint256,t_uint256)": {
        "encoding": "mapping",
        "key": "t_uint256",
        "label": "mapping(uint256 => uint256)",
        "numberOfBytes": "32",
        "value": "t_uint256"
      },
      "t_string_storage": {
        "encoding": "bytes",
        "label": "string",
        "numberOfBytes": "32"
      },
      "t_struct(Counter)3263_storage": {
        "encoding": "inplace",
        "label": "struct Counters.Counter",
        "members": [
          {
            "astId": 3262,
            "contract": "contracts/SyntheticNFT.sol:SyntheticNFT",
            "label": "_value",
            "offset": 0,
            "slot": "0",
            "type": "t_uint256"
          }
        ],
        "numberOfBytes": "32"
      },
      "t_struct(RoleData)1058_storage": {
        "encoding": "inplace",
        "label": "struct AccessControl.RoleData",
        "members": [
          {
            "astId": 1055,
            "contract": "contracts/SyntheticNFT.sol:SyntheticNFT",
            "label": "members",
            "offset": 0,
            "slot": "0",
            "type": "t_mapping(t_address,t_bool)"
          },
          {
            "astId": 1057,
            "contract": "contracts/SyntheticNFT.sol:SyntheticNFT",
            "label": "adminRole",
            "offset": 0,
            "slot": "1",
            "type": "t_bytes32"
          }
        ],
        "numberOfBytes": "64"
      },
      "t_uint256": {
        "encoding": "inplace",
        "label": "uint256",
        "numberOfBytes": "32"
      }
    }
  }
}