{
  "address": "0x00E3C7449Ff083Df1F1D3CF906bf0bB1f822Adf1",
  "abi": [
    {
      "inputs": [
        {
          "internalType": "address",
          "name": "_owner",
          "type": "address"
        }
      ],
      "stateMutability": "nonpayable",
      "type": "constructor"
    },
    {
      "anonymous": false,
      "inputs": [
        {
          "indexed": false,
          "internalType": "address",
          "name": "operator",
          "type": "address"
        },
        {
          "indexed": false,
          "internalType": "address",
          "name": "from",
          "type": "address"
        },
        {
          "indexed": false,
          "internalType": "uint256",
          "name": "tokenId",
          "type": "uint256"
        },
        {
          "indexed": false,
          "internalType": "bytes",
          "name": "data",
          "type": "bytes"
        }
      ],
      "name": "NFTReceived",
      "type": "event"
    },
    {
      "anonymous": false,
      "inputs": [
        {
          "indexed": false,
          "internalType": "address",
          "name": "collection",
          "type": "address"
        },
        {
          "indexed": false,
          "internalType": "uint256",
          "name": "tokenId",
          "type": "uint256"
        },
        {
          "indexed": false,
          "internalType": "address",
          "name": "to",
          "type": "address"
        }
      ],
      "name": "NFTWithdrawn",
      "type": "event"
    },
    {
      "inputs": [
        {
          "internalType": "address",
          "name": "_owner",
          "type": "address"
        }
      ],
      "name": "initialize",
      "outputs": [],
      "stateMutability": "nonpayable",
      "type": "function"
    },
    {
      "inputs": [
        {
          "internalType": "address",
          "name": "collection_",
          "type": "address"
        },
        {
          "internalType": "uint256",
          "name": "tokenId_",
          "type": "uint256"
        }
      ],
      "name": "isTokenInVault",
      "outputs": [
        {
          "internalType": "bool",
          "name": "",
          "type": "bool"
        }
      ],
      "stateMutability": "view",
      "type": "function"
    },
    {
      "inputs": [
        {
          "internalType": "address",
          "name": "operator_",
          "type": "address"
        },
        {
          "internalType": "address",
          "name": "from_",
          "type": "address"
        },
        {
          "internalType": "uint256",
          "name": "tokenId_",
          "type": "uint256"
        },
        {
          "internalType": "bytes",
          "name": "data_",
          "type": "bytes"
        }
      ],
      "name": "onERC721Received",
      "outputs": [
        {
          "internalType": "bytes4",
          "name": "",
          "type": "bytes4"
        }
      ],
      "stateMutability": "nonpayable",
      "type": "function"
    },
    {
      "inputs": [
        {
          "internalType": "address",
          "name": "collection_",
          "type": "address"
        },
        {
          "internalType": "uint256",
          "name": "tokenId_",
          "type": "uint256"
        }
      ],
      "name": "originalOwner",
      "outputs": [
        {
          "internalType": "address",
          "name": "",
          "type": "address"
        }
      ],
      "stateMutability": "view",
      "type": "function"
    },
    {
      "inputs": [],
      "name": "owner",
      "outputs": [
        {
          "internalType": "address",
          "name": "",
          "type": "address"
        }
      ],
      "stateMutability": "view",
      "type": "function"
    },
    {
      "inputs": [
        {
          "internalType": "address",
          "name": "collection_",
          "type": "address"
        },
        {
          "internalType": "uint256",
          "name": "tokenId_",
          "type": "uint256"
        },
        {
          "internalType": "address",
          "name": "owner_",
          "type": "address"
        }
      ],
      "name": "registerNFT",
      "outputs": [],
      "stateMutability": "nonpayable",
      "type": "function"
    },
    {
      "inputs": [
        {
          "internalType": "address",
          "name": "",
          "type": "address"
        },
        {
          "internalType": "uint256",
          "name": "",
          "type": "uint256"
        }
      ],
      "name": "tokenData",
      "outputs": [
        {
          "internalType": "address",
          "name": "",
          "type": "address"
        }
      ],
      "stateMutability": "view",
      "type": "function"
    },
    {
      "inputs": [
        {
          "internalType": "address",
          "name": "collection_",
          "type": "address"
        },
        {
          "internalType": "uint256",
          "name": "tokenId_",
          "type": "uint256"
        }
      ],
      "name": "withdraw",
      "outputs": [],
      "stateMutability": "nonpayable",
      "type": "function"
    }
  ],
  "transactionHash": "0xd7e2f9069c03f888212f59af29a4fba934903a2d4461bcc779a96ff81e68e73b",
  "args": [
    "0x155a5d138EB739004F8a6314eFa78b1eCF087d74"
  ],
  "solcInputHash": "b9f9fd9d437c082217b7dd28b54b9315",
  "bytecode": "0x608060405234801561001057600080fd5b50604051610a6a380380610a6a83398101604081905261002f91610054565b600280546001600160a01b0319166001600160a01b0392909216919091179055610082565b600060208284031215610065578081fd5b81516001600160a01b038116811461007b578182fd5b9392505050565b6109d9806100916000396000f3fe608060405234801561001057600080fd5b50600436106100885760003560e01c8063c4d66de81161005b578063c4d66de814610140578063df06809f14610155578063eafe0fc21461018b578063f3fef3a31461019e57600080fd5b8063150b7a021461008d57806324ba4328146100be578063428e173e1461010a5780638da5cb5b1461012d575b600080fd5b6100a061009b36600461079a565b6101b1565b6040516001600160e01b031990911681526020015b60405180910390f35b6100f26100cc366004610873565b60036020908152600092835260408084209091529082529020546001600160a01b031681565b6040516001600160a01b0390911681526020016100b5565b61011d610118366004610873565b610232565b60405190151581526020016100b5565b6002546100f2906001600160a01b031681565b61015361014e36600461075b565b610276565b005b6100f2610163366004610873565b6001600160a01b03918216600090815260036020908152604080832093835292905220541690565b61015361019936600461089e565b61034a565b6101536101ac366004610873565b6104fc565b33600090815260036020908152604080832085845290915280822080546001600160a01b0319166001600160a01b038816179055517f1d823cdc8f0514a95b53538df2d2f3deaf98d1c534c6e750daa593173c27f8f0906102199087908790879087906108ff565b60405180910390a150630a85bd0160e11b949350505050565b6001600160a01b038083166000908152600360209081526040808320858452909152812054909116801561026a576001915050610270565b60009150505b92915050565b600054610100900460ff168061028f575060005460ff16155b6102f75760405162461bcd60e51b815260206004820152602e60248201527f496e697469616c697a61626c653a20636f6e747261637420697320616c72656160448201526d191e481a5b9a5d1a585b1a5e995960921b60648201526084015b60405180910390fd5b600054610100900460ff16158015610319576000805461ffff19166101011790555b600280546001600160a01b0319166001600160a01b0384161790558015610346576000805461ff00191690555b5050565b6002546001600160a01b031633146103a45760405162461bcd60e51b815260206004820181905260248201527f4f776e61626c653a2063616c6c6572206973206e6f7420746865206f776e657260448201526064016102ee565b6040516331a9108f60e11b81526004810183905230906001600160a01b03851690636352211e9060240160206040518083038186803b1580156103e657600080fd5b505afa1580156103fa573d6000803e3d6000fd5b505050506040513d601f19601f8201168201806040525081019061041e919061077e565b6001600160a01b0316146104745760405162461bcd60e51b815260206004820152601960248201527f5661756c74206973206e6f74206f776e6572206f66204e46540000000000000060448201526064016102ee565b6001600160a01b038381166000818152600360209081526040808320878452825280832080549587166001600160a01b03199096168617905580519384529083019390935281830185905260806060830181905282015290517f1d823cdc8f0514a95b53538df2d2f3deaf98d1c534c6e750daa593173c27f8f09181900360a00190a1505050565b6105068282610232565b6105475760405162461bcd60e51b8152602060048201526012602482015271151bdad95b881b9bdd081a5b881d985d5b1d60721b60448201526064016102ee565b600254604051638712a3c960e01b81526001600160a01b0384811660048301526024820184905290911690638712a3c99060440160206040518083038186803b15801561059357600080fd5b505afa1580156105a7573d6000803e3d6000fd5b505050506040513d601f19601f820116820180604052508101906105cb91906108df565b156106185760405162461bcd60e51b815260206004820181905260248201527f43616e27742077697468647261772c20746f6b656e2069732072656e7465642160448201526064016102ee565b6001600160a01b0382811660009081526003602090815260408083208584529091529020541633146106855760405162461bcd60e51b8152602060048201526016602482015275796f7520617265206e6f7420746865206f776e65722160501b60448201526064016102ee565b6040516323b872dd60e01b8152306004820152336024820152604481018290526001600160a01b038316906323b872dd90606401600060405180830381600087803b1580156106d357600080fd5b505af11580156106e7573d6000803e3d6000fd5b505050506001600160a01b038216600081815260036020908152604080832085845282529182902080546001600160a01b0319169055815192835282018390523382820152517fc9e322753b88ef200a699612ee80267ec1889ce31dd470742469de7a75c349829181900360600190a15050565b60006020828403121561076c578081fd5b81356107778161098b565b9392505050565b60006020828403121561078f578081fd5b81516107778161098b565b600080600080608085870312156107af578283fd5b84356107ba8161098b565b935060208501356107ca8161098b565b925060408501359150606085013567ffffffffffffffff808211156107ed578283fd5b818701915087601f830112610800578283fd5b81358181111561081257610812610975565b604051601f8201601f19908116603f0116810190838211818310171561083a5761083a610975565b816040528281528a6020848701011115610852578586fd5b82602086016020830137918201602001949094529598949750929550505050565b60008060408385031215610885578182fd5b82356108908161098b565b946020939093013593505050565b6000806000606084860312156108b2578283fd5b83356108bd8161098b565b92506020840135915060408401356108d48161098b565b809150509250925092565b6000602082840312156108f0578081fd5b81518015158114610777578182fd5b600060018060a01b0380871683526020818716818501528560408501526080606085015284519150816080850152825b8281101561094b5785810182015185820160a00152810161092f565b8281111561095c578360a084870101525b5050601f01601f19169190910160a00195945050505050565b634e487b7160e01b600052604160045260246000fd5b6001600160a01b03811681146109a057600080fd5b5056fea2646970667358221220c6730c2ed29f58ef1de8b7294d4ff471c4f05ae62ab9be448e135985e419778e64736f6c63430008040033",
  "devdoc": {
    "kind": "dev",
    "methods": {
      "initialize(address)": {
        "params": {
          "_owner": "the owner of the Vault"
        }
      },
      "onERC721Received(address,address,uint256,bytes)": {
        "details": "See {IERC721Receiver-onERC721Received}."
      }
    },
    "version": 1
  },
  "userdoc": {
    "kind": "user",
    "methods": {
      "owner()": {
        "notice": "The current owner of the vault."
      }
    },
    "version": 1
  },
  "storageLayout": {
    "storage": [
      {
        "astId": 538,
        "contract": "contracts/Vault.sol:Vault",
        "label": "_initialized",
        "offset": 0,
        "slot": "0",
        "type": "t_bool"
      },
      {
        "astId": 541,
        "contract": "contracts/Vault.sol:Vault",
        "label": "_initializing",
        "offset": 1,
        "slot": "0",
        "type": "t_bool"
      },
      {
        "astId": 6065,
        "contract": "contracts/Vault.sol:Vault",
        "label": "_bidCounter",
        "offset": 0,
        "slot": "1",
        "type": "t_struct(Counter)3263_storage"
      },
      {
        "astId": 6086,
        "contract": "contracts/Vault.sol:Vault",
        "label": "owner",
        "offset": 0,
        "slot": "2",
        "type": "t_address"
      },
      {
        "astId": 6092,
        "contract": "contracts/Vault.sol:Vault",
        "label": "tokenData",
        "offset": 0,
        "slot": "3",
        "type": "t_mapping(t_address,t_mapping(t_uint256,t_address))"
      }
    ],
    "types": {
      "t_address": {
        "encoding": "inplace",
        "label": "address",
        "numberOfBytes": "20"
      },
      "t_bool": {
        "encoding": "inplace",
        "label": "bool",
        "numberOfBytes": "1"
      },
      "t_mapping(t_address,t_mapping(t_uint256,t_address))": {
        "encoding": "mapping",
        "key": "t_address",
        "label": "mapping(address => mapping(uint256 => address))",
        "numberOfBytes": "32",
        "value": "t_mapping(t_uint256,t_address)"
      },
      "t_mapping(t_uint256,t_address)": {
        "encoding": "mapping",
        "key": "t_uint256",
        "label": "mapping(uint256 => address)",
        "numberOfBytes": "32",
        "value": "t_address"
      },
      "t_struct(Counter)3263_storage": {
        "encoding": "inplace",
        "label": "struct Counters.Counter",
        "members": [
          {
            "astId": 3262,
            "contract": "contracts/Vault.sol:Vault",
            "label": "_value",
            "offset": 0,
            "slot": "0",
            "type": "t_uint256"
          }
        ],
        "numberOfBytes": "32"
      },
      "t_uint256": {
        "encoding": "inplace",
        "label": "uint256",
        "numberOfBytes": "32"
      }
    }
  }
}